:100000000C9496020C944B100C9478100C94BE0235
:100010000C94BE020C94BE020C94BE020C94BE0260
:100020000C94BE020C94BE020C94BE020C94BE0250
:100030000C94BE020C94BE020C94BE020C94BE0240
:100040000C94A5100C94BE020C9432120C947512F0
:100050000C94BE020C94BE020C94BE020C94BE0220
:100060000C94BE020C94BE02780728074607340899
:10007000560A91073F071D0720071D07DA078C075F
:100080001D071D071D071D07750A960878075007ED
:100090001D07910A630A8C0A1D077A0A0A417661D4
:1000A000696C61626C6520636F6D6D616E64733A3B
:1000B0000A20203C6E6E3E206920202020202D202A
:1000C000736574206E6F64652049442028737461E1
:1000D0006E64617264206E6F646520696473206170
:1000E000726520312E2E3330290A20203C6E3E20AE
:1000F000622020202020202D20736574204D487A16
:100100002062616E64202834203D203433332C205B
:1001100038203D203836382C2039203D20393135E3
:10012000290A20203C6E6E6E3E2067202020202D64
:1001300020736574206E6574776F726B2067726FC1
:100140007570202852464D3132206F6E6C792061D7
:100150006C6C6F7773203231322C2030203D20615F
:100160006E79290A20203C6E3E206320202020202A
:10017000202D2073657420636F6C6C656374206D33
:100180006F64652028616476616E6365642C206EFF
:100190006F726D616C6C792030290A2020742020E8
:1001A00020202020202020202D2062726F61646397
:1001B000617374206D61782D73697A65207465733D
:1001C00074207061636B65742C2072657175657342
:1001D000742061636B0A20202E2E2E2C3C6E6E3E06
:1001E0002061202D2073656E64206461746120702D
:1001F00061636B657420746F206E6F6465203C6E64
:100200006E3E2C20726571756573742061636B0A94
:1002100020202E2E2E2C3C6E6E3E2073202D20731F
:10022000656E642064617461207061636B65742025
:10023000746F206E6F6465203C6E6E3E2C206E6F76
:100240002061636B0A20203C6E3E206C2020202021
:1002500020202D207475726E206163746976697434
:1002600079204C4544206F6E20504231206F6E2023
:100270006F72206F66660A20203C6E3E207120203F
:10028000202020202D2073657420717569657420ED
:100290006D6F6465202831203D20646F6E277420C7
:1002A0007265706F727420626164207061636B6547
:1002B0007473290A20203C6E3E20782020202020C4
:1002C000202D20736574207265706F7274696E677B
:1002D00020666F726D6174202830203D2064656354
:1002E000696D616C2C2031203D20686578290A20D9
:1002F00020313233207A2020202020202D20746FBE
:1003000074616C20706F77657220646F776E2C203B
:100310006E65656473206120726573657420746F07
:1003200020737461727420757020616761696E0A50
:1003300052656D6F746520636F6E74726F6C2063AD
:100340006F6D6D616E64733A0A20203C6863686962
:100350003E2C3C68636C6F3E2C3C616464723E2CA6
:100360003C636D643E206620202020202D204653D3
:10037000323020636F6D6D616E642028383638200E
:100380004D487A290A20203C616464723E2C3C640A
:1003900065763E2C3C6F6E3E206B20202020202076
:1003A00020202020202020202D204B414B55206351
:1003B0006F6D6D616E642028343333204D487A2987
:1003C0000A00466C6173682073746F726167652000
:1003D000284A65654C696E6B206F6E6C79293A0A04
:1003E00020206420202020202020202020202020C9
:1003F00020202020202020202020202020202020FD
:100400002020202D2064756D7020616C6C206C6F35
:1004100067206D61726B6572730A20203C73683EC1
:100420002C3C736C3E2C3C74333E2C3C74323E2C82
:100430003C74313E2C3C74303E207220202D2072C2
:1004400065706C61792066726F6D20737065636989
:1004500066696564206D61726B65720A20203132B5
:10046000332C3C6268693E2C3C626C6F3E206520F8
:100470002020202020202020202020202020202D6F
:1004800020657261736520344B20626C6F636B0A68
:10049000202031322C3334207720202020202020AF
:1004A000202020202020202020202020202020204C
:1004B0002020202D207769706520656E7469726533
:1004C00020666C617368206D656D6F72790A00003B
:1004D0000000070002010000030406000000000005
:1004E00000000001020408102040800102040810EE
:1004F000200102040810200404040404040404027B
:1005000002020202020303030303030000000023AC
:10051000002600290000000000250028002B000014
:10052000000000240027002A00002B1311241FBE06
:10053000CFEFD8E0DEBFCDBF11E0A0E0B1E0ECE34B
:10054000FBE202C005900D92A03CB107D9F714E080
:10055000A0ECB1E001C01D92AD37B107E1F715E0A5
:10056000CCE2D5E004C02297FE010E946715CA3292
:10057000D107C9F70E9481130C949C150C940000BC
:100580009C012627622F62956227062E6695669546
:100590006025062E669560256770022E232F6695CE
:1005A00007946795302D26270694679530252627D2
:1005B000C90108958EBD0DB407FEFDCF8EB5089517
:1005C0001F93CF93DF93EC01FE0121961491112329
:1005D00069F01A3029F46DE083ED93E00E94CE13A8
:1005E000612F83ED93E00E94CE13EECFDF91CF9188
:1005F0001F9108958F70682F605D6A330CF0695FFA
:1006000083ED93E00C94CE138CE990E00E94E0021D
:100610008091E0019091E101892B21F082EC93E03F
:100620000E94E00261E071E083ED93E00E94EB1331
:1006300081E00C94D00E0F931F93CF93DF93EC01C6
:100640008B0181E00E94C70ECE018A569F4F0E9407
:10065000511180E00E94C70EC801885C9109DF91AA
:10066000CF911F910F910C9451110F931F93CF9322
:10067000DF93EC016830B1F49C01220F331F8C2F03
:10068000082E82958025082E86958695802590E0F7
:10069000019681FB442740F9C42F80E0D82FC22B5C
:1006A000D32B69E0862F90E0019741E050E060E0B5
:1006B00070E004C0440F551F661F771F8A95D2F75C
:1006C0008A010FC0C8018C239D23892B19F088E56E
:1006D00092E002C080E991E0BC010E941B031695E4
:1006E00007950115110571F7DF91CF911F910F91BA
:1006F0000895CF93C82F61E089E00E94830F61E0E5
:10070000C11160E089E0CF910C94BB0FCF93DF93D0
:100710001F92CDB7DEB7682F8091E302882369F07E
:10072000862F82958F7069830E94FA026981862FD5
:100730000F90DF91CF910C94FA024AE050E070E004
:1007400083ED93E00F90DF91CF910C940D15289AD3
:1007500078940895CF93DF93EC018A30910538F0B7
:100760006AE070E00E942F15CB010E94AA03E2EC20
:10077000F1E001900020E9F7E35CF140FF27E0544D
:10078000FE4FCE016AE070E00E942F15805D8283EB
:10079000DF91CF9108950F931F93CF93DF93C2EC16
:1007A000D1E08CE1FE0111928A95E9F76DE671E0E6
:1007B000CE010E947F151091C0011F71DE010D90C6
:1007C0000020E9F7A35CB140BB27A054BE4F812FA6
:1007D000805C12968C9368E171E0CE010E947415E2
:1007E000812F90E00E94AA038091C00185FF0BC079
:1007F000FE0101900020E9F7E35CF140FF27E0549F
:10080000FE4F8AE282836BE171E082EC91E00E940C
:1008100074158091C10190E00E94AA036EE171E01D
:1008200082EC91E00E947415E091C001F0E026E0B6
:10083000F595E7952A95E1F7EE0FFF1FE855FE4F76
:10084000808191810E94AA0362E271E082EC91E0D2
:100850000E9474158FEF9FEF9093DF018093DE016C
:1008600000EC11E0E80169918091DE019091DF01D7
:100870000E94C0029093DF018093DE01F1E0CE3D43
:10088000DF0789F7C0E2D0E0F80161918F01CE0166
:100890000E948E152196C034D105B1F781E00E94E7
:1008A000D00E81110AC068E271E083ED93E0DF9120
:1008B000CF911F910F910C94EB13DF91CF911F916A
:1008C0000F910895CF93C82FF894289885E00E943F
:1008D000DA0280E00E94DA02289A78948F3F11F0C1
:1008E00080FDF2CFF89428988C2FCF910C94DA02E7
:1008F000CF93C82F86E00E9462040E94A7038C2F2A
:10090000CF910C946204AF92BF92CF92DF92EF929C
:10091000FF920F931F93CF93DF9300D0CDB7DEB735
:10092000F82E6A01890183E06A8399830E94620438
:100930009981892F0E94DA028F2D0E94DA026A8142
:10094000862F0E94DA02A12CB12C0BC07601EA0C92
:10095000F11C80E00E94DA02F7018083FFEFAF1AFA
:10096000BF0AA016B10691F70F900F90DF91CF91BB
:100970001F910F91FF90EF90DF90CF90BF90AF90BD
:100980000C94A703EF92FF920F931F93CF93DF93E3
:1009900000D01F92CDB7DEB7182F82E06A837B8329
:1009A00099830E9478049981892F0E94DA02812F0D
:1009B0000E94DA0280E00E94DA026A81E62E7B81E0
:1009C000F72E00E010E0F70181917F010E94DA022A
:1009D0000F5F1F4F0115F1E01F07A9F70F900F9050
:1009E0000F90DF91CF911F910F91FF90EF900C949A
:1009F000A70320E030E040E050E060E070E080E0FD
:100A000090E00C948304CF93DF93EC016BE371E0EF
:100A100083ED93E00E94CC134AE050E0BE0183EDE9
:100A200093E00E94961488ED0E9478048D2F0E9416
:100A3000DA028C2F0E94DA0280E00E94DA020E9421
:100A4000A703DF91CF910C94F904CF92DF92FF922C
:100A50000F931F93CF93DF931F92CDB7DEB7C09054
:100A6000E001D090E1012FEFC21AD20AC1148FE148
:100A7000D80618F0C12C42E0D42ED092E101C092E9
:100A8000E001C114E2E0DE0649F48091DA029091BF
:100A9000DB0201969093DB028093DA028FEF9FEFE7
:100AA0009093E1028093E00202EE11E020E0FF2447
:100AB000FA948091E202281720F0283F10F4F80100
:100AC000F082F80161918F018091E0029091E10242
:100AD00029830E94C0029093E1028093E002298161
:100AE0002F5F2E3F31F762EE71E0C6010E94C20413
:100AF0001092E2020E94F90461E471E083ED93E058
:100B00000E94CC136091E0017091E1014AE050E055
:100B100083ED93E00E94901460E283ED93E00E94E5
:100B2000CE136091DA027091DB024AE050E083ED6F
:100B300093E00E94901460E283ED93E00E94CE1354
:100B40004091DC025091DD026091DE027091DF0283
:100B50002AE030E083ED93E00E94F9148091E001F7
:100B60009091E101811111C093958115FFE19F07DB
:100B700010F080E092E00F90DF91CF911F910F91E4
:100B8000FF90DF90CF900C9403050F90DF91CF91F1
:100B90001F910F91FF90DF90CF900895CF93C82FB2
:100BA00067E471E083ED93E00E94CC13CC2329F03D
:100BB00083ED93E0CF910C94D513CF9108950F93CB
:100BC0001F93CF93DF9300D0CDB7DEB740E855E257
:100BD00060E070E083ED93E00E94B01280E00E943C
:100BE000CE0581E00E94790381E00E94D00E882327
:100BF00069F080E290E00E9486158093C00181E256
:100C000090E00E9486158093C10108C081E880931E
:100C1000C00182ED8093C1010E94CB03289A61E05C
:100C200088E00E94830F8FE90E94620480E00E94A6
:100C3000DA02182F00E080E00E94DA02082B0E94FE
:100C4000A7030032104209F061C081E00E947804DD
:100C500080E00E94DA020E94A7031092DB02109249
:100C6000DA028FEF9EE19093E1018093E00100E0D2
:100C700012E022E030E0AE014F5F5F4F68EF70E0BE
:100C8000C8010E94830489819A818F3F2FEF9207C8
:100C900051F01093E1010093E00101969093DB0283
:100CA0008093DA0209C0C80101972091E0013091D8
:100CB000E1012817390731F00F5F1F4F01158FE150
:100CC0001807B9F66DE571E083ED93E00E94CC134F
:100CD0006091E0017091E1014AE050E083ED93E022
:100CE0000E94901460E283ED93E00E94CE13609125
:100CF000DA027091DB024AE050E083ED93E00E945B
:100D000096148091E20281110E9425050E9404033D
:100D100060ED77E080E090E00E942B1180E00E947F
:100D200079030F900F90DF91CF911F910F9108954C
:100D30004F925F926F927F92AF92BF92CF92DF926B
:100D4000EF92FF920F931F93CF93DF93CDB7DEB750
:100D50002E970FB6F894DEBF0FBECDBF83ED93E0A4
:100D60000E949611892B09F41FC483ED93E00E9421
:100D7000C511182F80538A3060F490912903990F80
:100D8000892F880F880F890F8053810F8093290343
:100D90000BC41C3289F480912A03863450F4E82F66
:100DA000F0E0E55DFC4F9091290390838F5F809385
:100DB0002A0310922903F8C3812F81568A3108F043
:100DC000B4C362EA71E083ED93E00E94CC1300E0CB
:100DD00012C0E02FF0E0E55DFC4F60814AE050E09A
:100DE00070E083ED93E00E940D156CE283ED93E0DB
:100DF0000E94CE130F5F80912A03081750F3609171
:100E000029034AE050E070E083ED93E00E940D1565
:100E1000612F83ED93E00E94FF13412F552747FD7B
:100E20005095652F752FFA01E156F109EA31F10568
:100E300020F4EC5CFF4F0C9465150E940403A3C3DF
:100E4000809129038F719091C001907E890F14C009
:100E5000809129038823B9F0883021F0893021F46A
:100E600093E003C092E001C091E08091C0018F73D4
:100E700020E4929F800D11248093C00104C08091D2
:100E800029038093C1010E94CB037DC39091290364
:100E90008091C001992311F08062EECF8F7DECCF5D
:100EA00081E68093E40282E48093E5021092E602F8
:100EB00020917103E7EEF2E080E0982F920F91937A
:100EC0008F5F8234D1F763E671E083ED93E00E9497
:100ED000CC13609171034AE050E070E083ED93E041
:100EE0000E941515809171038F5F809371034BC32E
:100EF0001093E40240912A034093E5028091290374
:100F00008093E60227EE32E08BE293E050E0BC01F2
:100F1000C9010E946B1537C3809129030E94790390
:100F200032C344ED62E080E00E94510E81E00E94F5
:100F30007903F0902903E0902D0330912B0320E0FA
:100F400080912C03280F311D6901B32E1F2D1E0D1A
:100F50001A5F120F1D0D03E06DE081E090E00E942A
:100F6000350368E08B2D90E00E94350368E0C601F0
:100F70000E94350368E08E2D90E00E94350368E002
:100F80008F2D90E00E94350368E0812F90E00E9451
:100F9000350361E080E090E00E9435036AE070E094
:100FA00080E090E00E942B110150B1F680E00E9499
:100FB0007903E6C244ED61E080E00E94510E81E0D9
:100FC0000E94790300912C0310E001501109B4E054
:100FD000000F111FBA95E1F7166080912B03992736
:100FE00087FD909501978F709927082B192B809179
:100FF000290381111860F4E0BF2EACEDCA2EA5E0E4
:10100000DA2E2FC065E674E087E791E00E941B03AB
:10101000C8010E2C02C0959587950A94E2F780FFCF
:1010200003C085E694E002C087E791E0B601681B43
:10103000790B0E941B038FEFE81AF80A9CE0E9166F
:10104000F10401F767E771E087E791E00E941B0375
:101050006BE070E080E090E00E942B11BA9409F4FC
:10106000A5CFE12CF12CCECF8091E0019091E10150
:10107000892B09F488C283ED93E00E94C51197FF84
:10108000FACF00E012E083ED93E00E94C51197FFD4
:101090007AC228E030E0AE014F5F5F4F68EF70E04A
:1010A000C8010E94830489819A810196B9F169E699
:1010B00071E083ED93E00E94CC134AE050E0B80168
:1010C00083ED93E00E9490146FE671E083ED93E06E
:1010D0000E94CC1369817A814AE050E083ED93E06D
:1010E0000E94901460E283ED93E00E94CE134B8146
:1010F0005C816D817E812AE030E083ED93E00E9487
:10110000AE1460E283ED93E00E94CE136F81788588
:101110004AE050E083ED93E00E9496140F5F1F4F6A
:101120000115BFE11B0709F0AECF2DC28091E00190
:101130009091E101892B09F426C290912B0380E064
:10114000892B39F481E090912C03911103C080E048
:1011500001C081E0A82EB12C90912D0380E0892B55
:1011600039F491E080912E03811103C090E001C019
:1011700091E0492E512C612C712C320155244424CC
:1011800090912F0380E0892B39F481E0909129031D
:10119000911103C080E001C081E0482A00E010E026
:1011A000CC24CA94DC2CE12C72E0F72E26E030E04F
:1011B000AE01475F5F4F68EF70E0C7010E94830494
:1011C00029853A852F3FEFEF3E07B9F02A153B05F9
:1011D00018F02C153D0520F02C153D0571F401C0CB
:1011E00087018B859C85AD85BE85690148165906AA
:1011F0006A067B060CF401C08701FFEFEF1AFF0AB5
:10120000E1142FE1F20691F663E771E083ED93E0DC
:101210000E94CC134AE050E0B80183ED93E00E94B5
:10122000901460E283ED93E00E94CE136091E001A0
:101230007091E1014AE050E083ED93E00E94961442
:1012400083ED93E00E94C51197FFFACFE090DA0298
:10125000F090DB0222C183ED93E00E94C51197FD5F
:1012600038C01092E2028FEFE81AF80AF092DB021F
:10127000E092DA026BE371E083ED93E00E94CC131D
:101280006091E0017091E1014AE050E083ED93E06C
:101290000E94901460E283ED93E00E94CE1360916F
:1012A000DA027091DB024AE050E083ED93E00E94A5
:1012B000901460E283ED93E00E94CE130E94EF1041
:1012C000AB01BC012AE030E083ED93E00E947C1486
:1012D0005AC10F5F1F4F01159FE1190710F000E081
:1012E00012E020E031E042EE51E060E070E0C80141
:1012F0000E9483048091DA029091DB02019609F446
:10130000CCC062EEA62E61E0B62ECC24CA94DC2CB2
:10131000F50161915F01C6010E94C0026C01F2EE0D
:10132000AF16F2E0BF06A1F7009709F47BC06CE7A7
:1013300071E083ED93E00E94CC134AE050E0B801E5
:1013400083ED93E00E94901460E283ED93E00E94AD
:10135000CE134AE050E0B60183ED93E00E9496146C
:101360009CC066E871E083ED93E00E94CC1360912D
:10137000DA027091DB024AE050E083ED93E00E94D4
:10138000901460E283ED93E00E94CE13D6018C911D
:101390004091DC025091DD026091DE027091DF022B
:1013A000480F511D611D711D2AE030E083ED93E06F
:1013B0000E94AE1460E283ED93E00E94CE13EB2D09
:1013C000EF5FF0E0EE51FE4F60814AE050E070E0E8
:1013D00083ED93E00E940D15EB2DEE5FF0E0EE51F2
:1013E000FE4FD080B3E0BB0EDB0C12C060E283ED99
:1013F00093E00E94CE13EB2DF0E0EE51FE4F6081A2
:10140000B3944AE050E070E083ED93E00E940D1544
:10141000BD10ECCF83ED93E00E94D513E7EFEB1501
:1014200068F001C0B12CCB2CD12C82EE91E0C80E1B
:10143000D91ED6018C918F3F09F0B1C163E871E0EC
:1014400083ED93E00E94CC134AE050E0B80183EDB5
:1014500093E00E94901460E283ED93E00E94CE132B
:101460006091DA027091DB024AE050E083ED93E094
:101470000E94901460E283ED93E00E94CE134091AD
:10148000DC025091DD026091DE027091DF022AE001
:1014900030E083ED93E00E94F9148091E001909197
:1014A000E1010817190709F0D6CEDBCE8091E001E3
:1014B0009091E101892B09F466C080912B038B3751
:1014C00009F061C074C18091E0019091E101892B24
:1014D00009F459C080912B038C3009F054C08091DD
:1014E0002903823209F04FC06BC180912903809398
:1014F000720349C0809129038B3709F044C06AE028
:1015000070E080E090E00E942B1180E00E94200FAC
:10151000F8940E943C0F37C0809129038093E30226
:1015200032C081E00E94CE052EC01E33C1F58091ED
:101530002A03E82FF0E0E55DFC4F909129039083AA
:101540008F5F80932A0340912C0380912B03883076
:1015500021F0893021F463E003C062E001C061E062
:1015600080912D030E94510E40912A0344506FE256
:1015700073E080912E030E94160E82E00E94350EC9
:1015800080E00E94D00E10922A031092290386E474
:10159000EBE2F3E0DF011D928A95E9F705C01152F5
:1015A000103210F40E9404030E94520D882309F4A3
:1015B000D9C0D0907B038091C0039091C103892B47
:1015C00019F481E00E9479038091E302882329F0D5
:1015D00068E583ED93E00E94CE138091C1018111F3
:1015E0000AC069E871E083ED93E00E94CC1380911A
:1015F00079030E94860360E283ED93E00E94CE139C
:1016000080917A030E9486035CE7E52E53E0F52E75
:1016100087010EC08091E302811105C060E283ED75
:1016200093E00E94CE13F80181918F010E948603FE
:10163000802F8E198D1570F383ED93E00E94D513E2
:101640008091C0039091C103892B09F08BC081E088
:101650000E9479038091E0019091E101892B09F4C6
:1016600068C010917B031E5F8091E202811110C05F
:101670000E94EF1028EE33E040E050E00E94431556
:101680002093DC023093DD024093DE025093DF02B0
:101690000E94EF1028EE33E040E050E00E94431536
:1016A0008091DC029091DD02A091DE02B091DF0218
:1016B000281B390B4A0B5B0B2F3F310541055105A8
:1016C0004CF48091E20290E00196810F911D893FD8
:1016D0009105C0F08091E20281110E9425050E94CF
:1016E000EF1028EE33E040E050E00E9443152093D5
:1016F000DC023093DD024093DE025093DF0220E0F3
:1017000030E0A9010091E202E02FF0E0EE51FE4F3F
:1017100020830F5F202F30E02E513E4F8AE793E069
:10172000412F50E0BC01C9010E946B15100F1093AE
:10173000E20280917A0385FF12C080917A0387FDCF
:101740000EC08091C00185FF4FC009C080917A030F
:101750008F71806C40E060E070E00E94080E80E0D5
:101760000E9479038091E402882309F468C00E94F2
:10177000C50D811145C063C080E09091E6029923B8
:1017800011F09064892B4091E50267EE72E00E94AF
:10179000080E1092E40280E00E94790350C083EDAD
:1017A00093E00E949611892B09F4DBCD47CE9091EE
:1017B0002C0380E020912903822B0E940305E3CEB5
:1017C0006CE871E083ED93E00E94EB1387EC0E94DC
:1017D00078040E94A7030E94F90461E971E083ED97
:1017E00093E00E94EB13CFCE68E971E083ED93E0C4
:1017F0000E94EB1380917A0386FFA8CF80E8AACFDE
:1018000081E00E94790360EA71E083ED93E00E9439
:10181000CC136091E5024AE050E070E083ED93E084
:101820000E940D1565EA71E083ED93E00E94EB13D1
:101830008091E402813609F09FCF80E29ECF2E9600
:101840000FB6F894DEBF0FBECDBFDF91CF911F91D1
:101850000F91FF90EF90DF90CF90BF90AF907F906F
:101860006F905F904F9008959C012627622F62959C
:101870006227062E669566956025062E669560257C
:101880006770022E232F669507946795302D2627C3
:101890000694679530252627C901089525B141E0B2
:1018A00050E060E070E00090000104C0440F551F5C
:1018B000661F771F0A94D2F74095422345B99EBD13
:1018C0000DB407FEFDCF9EB5392F20E08EBD0DB4BF
:1018D00007FEFDCF9EB585B141E050E060E070E0CD
:1018E0000090000104C0440F551F661F771F0A9423
:1018F000D2F7842B85B9292BC9010895CF9380E0B5
:1019000090E00E944E0C8091C203853091F580E0FA
:1019100090EB0E944E0C682F8091C303811104C08C
:101920002091C503211176C08091C303E82FF0E018
:10193000E758FC4F60838F5F8093C3038091C0039F
:101940009091C1030E94340C9093C1038093C00313
:1019500080917B032091C30390E0049630E08217CE
:1019600093070CF462C08091C303873408F05DC014
:1019700061C08091C20387FF1AC0E0917B03809110
:10198000C203982F9F5F9093C203ED5FE80FF0E0D2
:10199000E758FC4FC0818091C0039091C1036C2F28
:1019A0000E94340C9093C1038093C0032FC0809198
:1019B000C203982F9F5F9093C203833011F12CF4E0
:1019C000882399F0813009F516C0893019F08A30E2
:1019D000E1F402C0CDE21AC0C091C50390917B032F
:1019E0008EEF891B8093C20311C08091C003909138
:1019F000C103C82F0BC08091C0039091C103C92FB0
:101A000005C08DE092E80E944E0CCAEA8C2F90E04F
:101A100098540DC09091C303E92FF0E0E758FC4FB4
:101A200020839F5F9093C3037FCF8DE092E8CF9197
:101A30000C944E0CCF91089525B181E090E0A0E088
:101A4000B0E00090000104C0880F991FAA1FBB1FBF
:101A50000A94D2F7282B25B924B1282B24B961E0A8
:101A60008AE00E94BB0F61E08AE00E94830F61E080
:101A70008BE00E94830F60E08CE00E94830F61E0A6
:101A80008DE00E94830F80E58CBD60E082E00E94C3
:101A9000830F61E082E00C94BB0FE8980E944E0C2B
:101AA000E89A08958091C203853071F580917B0397
:101AB0002091C30390E0049630E0821793070CF462
:101AC00044C08091C303873408F03FC01DC081E04B
:101AD00090E09093C1038093C00380917A0386FFC6
:101AE0003DC09091C403892F8F718F31B9F18091DE
:101AF0007A0389278F7191F107C0E0917303F09108
:101B00007403309791F534C08091C2038430D9F4C6
:101B100010927B031092C3038FEF9FEF9093C1034A
:101B20008093C0036091C503662331F00E94340C9A
:101B30009093C1038093C00385E08093C2038DED31
:101B400092E80E944E0C80E0089584E08093C203E6
:101B500080917B03833408F0BACFBFCF8091C0035C
:101B60009091C103892B49F203C080E009950BC015
:101B70008FEF9FEFDC018093750390937603A09322
:101B80007703B093780381E008958091C203853094
:101B900099F48091C30381110FC080E090E00E940E
:101BA0004D0D90FD09C08DE092E80E944D0D84E03E
:101BB0008093C20381E0089580E0089586FD05C00A
:101BC000807E9091C4039F71890F80937A03E09186
:101BD0007303F0917403309711F081E009958FEF52
:101BE0009FEF9093C1038093C0038091C0039091B5
:101BF000C1036091C5030E94340C9093C10380938C
:101C0000C00386E08093C2038DE392E80C944E0CEF
:101C1000CF93C82F40937B032CE733E050E0C901FA
:101C20000E946B158C2FCF910C94DE0DEF92FF92DA
:101C30001F93CF93DF931F92CDB7DEB7182F7B0191
:101C400004C049830E94520D498149830E94C50DF9
:101C500049818823B1F3B701812F0F90DF91CF9194
:101C60001F91FF90EF900C94080E16C08823A1F0EE
:101C700093B7917F833021F0823021F42CE003C0B0
:101C800024E001C020E0922B93BF93B7916093BFF3
:101C9000889593B79E7F93BF9091C203943031F79C
:101CA0000895CF93C62F8093C4034093C5030E9429
:101CB0001C0D80E090E00E944E0C85E092E80E94AE
:101CC0004E0C80E098EB02C080E090E00E944E0C49
:101CD00082E00E94F20F892BB9F320E1C29FC0017C
:101CE0001124876C90680E944E0C80E496EA0E9452
:101CF0004E0C86E096EC0E944E0C82EA94E90E941B
:101D00004E0C8CEA92EC0E944E0CC091C503CC2381
:101D100041F083E89AEC0E944E0C8C2F90E09E6C70
:101D200006C08BE89AEC0E944E0C8DE29EEC0E945D
:101D30004E0C83E894EC0E944E0C80E598E90E94DA
:101D40004E0C87E79CEC0E944E0C80E090EE0E94C7
:101D50004E0C80E098EC0E944E0C89E490EC0E94BE
:101D60004E0C84E08093C2038091C4038F7141F0D4
:101D700040E050E06EE77CE080E00E941B1003C072
:101D800080E00E943B108091C403CF910895882386
:101D900019F08DE392E802C08DE092E80C944E0CAD
:101DA000FF920F931F93CF93DF93F82EC0E2D0E002
:101DB0000FEF1FEFCE010E948615682FC8010E9409
:101DC000340C8C012196C034D105A1F7009789F518
:101DD000C0E2D0E000E010E0CE010E948615682F3E
:101DE0008C2F805259F0813059F0662371F0FF201A
:101DF00041F083ED93E00E94CE1303C0162F01C083
:101E0000062F2196CE33D10539F7FF2021F083ED3F
:101E100093E00E94D513612F70E0B6E07595679549
:101E2000BA95E1F7402F812F0E94510E812F8F71BB
:101E300001C080E0DF91CF911F910F91FF90089535
:101E4000CF93C82F87FF03C08DE092E80EC099277B
:101E500087FD9095956E0E944D0D85E092E80E9459
:101E60004D0DCC2321F087E092E80E944D0D84E0D7
:101E70008093C203CF910895EAE7F0E090818081DA
:101E80008F77808383B7817F846083BFF89483B723
:101E9000816083BF85B7806685BF85B78F79806491
:101EA00085BF7894889583B78E7F83BF90937A009F
:101EB0000895833069F028F48130A1F0823011F563
:101EC00014C08630B1F08730C1F08430D9F404C03A
:101ED000809180008F7703C0809180008F7D8093F8
:101EE0008000089584B58F7702C084B58F7D84BD4E
:101EF00008958091B0008F7703C08091B0008F7DEE
:101F00008093B0000895CF93DF9390E0FC01ED51F2
:101F1000FB4F4491FC01E950FB4F8491882341F130
:101F200090E0880F991FFC01E15EFA4F25913491F2
:101F3000D9018B5E9A4FFC0185919491C82FD92FBE
:101F40009FB7F8948C91611106C0409584238C93BF
:101F50008881842308C0623041F4242F2095822395
:101F60008C938881842B888302C0842B8C939FBFA1
:101F7000DF91CF9108950F931F93CF93DF931F921B
:101F8000CDB7DEB7282F30E0F901E153FB4F849144
:101F9000F901ED51FB4F1491F901E950FB4F049108
:101FA0000023D1F0882321F069830E94590F6981B1
:101FB000E02FF0E0EE0FFF1FEB5EFA4F859194915A
:101FC000DC019FB7F8948C91611103C010958123B7
:101FD00001C0812B8C939FBF0F90DF91CF911F91F8
:101FE0000F910895CF93DF93282F30E0F901E1534B
:101FF000FB4F8491F901ED51FB4FD491F901E95068
:10200000FB4FC491CC2389F081110E94590FEC2F12
:10201000F0E0EE0FFF1FE55FFA4F85919491DC0130
:102020008C918D2321E030E011F420E030E0C901F3
:10203000DF91CF9108958230E8F4E82FF0E0EE0FC1
:10204000FF1FEA53FC4F71836083813041F0809120
:1020500069008C7F842B80936900E89A08958091B1
:102060006900440F551F440F551F837F842B8093B5
:102070006900E99A0895823068F4813011F0E89897
:1020800001C0E998E82FF0E0EE0FFF1FEA53FC4F84
:102090001182108208951F920F920FB60F92112491
:1020A0002F933F934F935F936F937F938F939F9360
:1020B000AF93BF93EF93FF938091C6039091C703B3
:1020C000892B29F0E091C603F091C7030995FF9190
:1020D000EF91BF91AF919F918F917F916F915F91A0
:1020E0004F913F912F910F900FBE0F901F90189519
:1020F0001F920F920FB60F9211242F933F934F937D
:102100005F936F937F938F939F93AF93BF93EF935F
:10211000FF938091C8039091C903892B29F0E09126
:10212000C803F091C9030995FF91EF91BF91AF9159
:102130009F918F917F916F915F914F913F912F91DF
:102140000F900FBE0F901F9018951F920F920FB611
:102150000F9211242F933F938F939F93AF93BF932D
:102160008091CA039091CB03A091CC03B091CD0391
:102170003091D203232F2A5F2D3720F40296A11D20
:10218000B11D05C0232F27570396A11DB11D209314
:10219000D2038093CA039093CB03A093CC03B09354
:1021A000CD038091CE039091CF03A091D003B09145
:1021B000D1030196A11DB11D8093CE039093CF034F
:1021C000A093D003B093D103BF91AF919F918F9112
:1021D0003F912F910F900FBE0F901F9018950F9366
:1021E0001F938FB7F8940091CA031091CB032091ED
:1021F000CC033091CD038FBFB801C9011F910F915E
:1022000008950F931F939FB7F8940091CE031091F8
:10221000CF032091D0033091D10386B5A89B06C08F
:102220008F3F21F00F5F1F4F2F4F3F4F9FBF322F28
:10223000212F102F0027080F111D211D311D43E0F4
:10224000000F111F221F331F4A95D1F7B801C90192
:102250001F910F910895CF92DF92EF92FF92CF934B
:10226000DF936B017C010E940111EB010EC00E9403
:1022700001116C1B7D0B683E734038F081E0C81A79
:10228000D108E108F108C851DC4FC114D104E104C0
:10229000F10469F7DF91CF91FF90EF90DF90CF903D
:1022A0000895019739F0019729F0880F991F019738
:1022B0000197F1F70895789484B5826084BD84B560
:1022C000816084BD85B5826085BD85B5816085BD31
:1022D000EEE6F0E0808181608083E1E8F0E010824A
:1022E000808182608083808181608083E0E8F0E08B
:1022F000808181608083E1EBF0E080818460808375
:10230000E0EBF0E0808181608083EAE7F0E08081AB
:10231000846080838081826080838081816080830B
:102320008081806880831092C1000895FC018485BB
:102330009585FC01E05CFF4F20813181FC01EE5B63
:10234000FF4F80819181281B390B2F733327C901DF
:102350000895FC0184859585FC01E05CFF4F408178
:102360005181FC01EE5BFF4F208131814217530701
:1023700041F00190F081E02DE80FF91F208130E05D
:1023800002C02FEF3FEFC9010895FC0184859585B8
:10239000FC01E05CFF4F40815181FC01EE5BFF4F8F
:1023A000208131814217530781F0A081B181A80FAC
:1023B000B91F8C91208131812F5F3F4F2F733327BD
:1023C00031832083282F30E002C02FEF3FEFC90177
:1023D0000895FC0181A1882329F0A489B5898C91F5
:1023E00086FFFBCF11A20895CF93DF93FC012685D2
:1023F0003785D901A05CBF4F8D919C9111970196B3
:102400008F739927E901CE5BDF4F4881598184178B
:102410009507D9F30D90BC91A02DA20FB31F6C931B
:10242000A685B785A05CBF4F11969C938E93A68915
:10243000B7892C9181E090E0078C02C0880F991F2A
:102440000A94E2F7282B2C9381E081A30488F58974
:10245000E02D80818064808381E090E0DF91CF91E6
:10246000089508951F920F920FB60F9211242F9383
:102470003F934F938F939F93EF93FF938091C0006F
:1024800082FD1CC04091C6008091790490917A042D
:1024900001968F73992720917B0430917C048217D9
:1024A000930771F0E0917904F0917A04E75CFB4FB7
:1024B000408390937A048093790402C08091C6008F
:1024C000FF91EF919F918F914F913F912F910F909D
:1024D0000FBE0F901F90189583ED93E00E94961108
:1024E000892B11F00C94311208951F920F920FB6A0
:1024F0000F9211242F933F938F939F93EF93FF930A
:10250000209135043091360480913704909138043D
:102510002817390731F48091C1008F7D8093C10065
:1025200014C0E0913704F0913804EB50FC4F208147
:10253000809137049091380401968F739927909376
:102540003804809337042093C600FF91EF919F9148
:102550008F913F912F910F900FBE0F901F90189564
:10256000CF92DF92EF92FF92CF93DF93EC016A015B
:102570007B01EC89FD8981E090E008A002C0880F12
:10258000991F0A94E2F7808360E874E88EE190E096
:10259000A70196010E9443152150310941095109B3
:1025A0005695479537952795211580E1380798F07E
:1025B000EC89FD89108260E472E48FE090E0A7016D
:1025C00096010E9443152150310941095109569540
:1025D000479537952795E889F9893083EA89FB89FA
:1025E000208319A2EE89FF89408181E090E09C015F
:1025F0000C8C02C0220F331F0A94E2F7422B408357
:10260000EE89FF8940819C010D8C02C0220F331F8F
:102610000A94E2F7422B4083EE89FF8940819C01B6
:102620000E8C02C0220F331F0A94E2F7422B408324
:10263000EE89FF8920810F8C02C0880F991F0A94B0
:10264000E2F7809582238083DF91CF91FF90EF9016
:10265000DF90CF9008951092D6031092D50388EEA4
:1026600093E0A0E0B0E08093D7039093D803A093C9
:10267000D903B093DA0384EB91E09093D403809371
:10268000D30389E394E09093E0038093DF0385EF25
:1026900093E09093E2038093E10385EC90E09093C4
:1026A000E4038093E30384EC90E09093E60380934B
:1026B000E50380EC90E09093E8038093E70381ECDE
:1026C00090E09093EA038093E90382EC90E090938A
:1026D000EC038093EB0386EC90E09093EE03809301
:1026E000ED0384E08093EF0383E08093F00387E0C1
:1026F0008093F10385E08093F20381E08093F303FC
:1027000008950E945B110E94DF05CCE6D2E10E9491
:1027100098062097E1F30E946C12F9CFCF92DF92D6
:10272000EF92FF920F931F93CF93DF936C01EB0116
:102730007A01E60EF71E00E010E00BC06991D601A9
:10274000ED91FC910190F081E02DC6010995080FF3
:10275000191FCE15DF0591F7C801DF91CF911F91A9
:102760000F91FF90EF90DF90CF9008956115710564
:1027700081F0DB010D900020E9F7AD0141505109D6
:10278000461B570BDC01ED91FC910280F381E02D9B
:10279000099480E090E008950C94B613DC01ED916B
:1027A000FC910190F081E02D09940F931F93CF933A
:1027B000DF93EC016DE00E94CE138C016AE0CE0144
:1027C0000E94CE139C01200F311FC901DF91CF91D0
:1027D0001F910F9108950F931F93CF93DF93EC01F7
:1027E0000E94B6138C01CE010E94D5139801280FC8
:1027F000391FC901DF91CF911F910F9108950F9358
:102800001F93CF93DF93EC010E94CE138C01CE0176
:102810000E94D5139C01200F311FC901DF91CF9178
:102820001F910F9108954F925F926F927F929F92A6
:10283000AF92BF92CF92DF92EF92FF920F931F93CE
:10284000CF93DF93CDB7DEB7A1970FB6F894DEBF75
:102850000FBECDBF5C016A017B01922E19A281E0FF
:10286000821710F08AE0982E8E010F5D1F4F492CC1
:10287000512C612C712CC701B601A30192010E9459
:1028800043158C2D929E80191124015011098A3014
:1028900014F4805D01C0895CF801808369017A01CC
:1028A000C114D104E104F10431F7B801C5010E945B
:1028B000B613A1960FB6F894DEBF0FBECDBFDF9161
:1028C000CF911F910F91FF90EF90DF90CF90BF902D
:1028D000AF909F907F906F905F904F9008952115DB
:1028E000310541F4DC01ED91FC910190F081E02D86
:1028F000642F09940C9413140F931F93CF93DF93B9
:10290000EC010E946F148C01CE010E94D5139C0132
:10291000200F311FC901DF91CF911F910F910895B1
:102920009A01AB0160E070E00C946F140F931F9359
:10293000CF93DF93EC019A01AB0160E070E00E945D
:102940006F148C01CE010E94D5139801280F391FF6
:10295000C901DF91CF911F910F910895CF92DF921E
:10296000EF92FF920F931F93CF93DF93EC016A01D5
:102970007B012115310579F4E881F9810190F0811D
:10298000E02D642FDF91CF911F910F91FF90EF9079
:10299000DF90CF9009942A30310519F477FD0EC0ED
:1029A0002AE0B701A601CE01DF91CF911F910F91CF
:1029B000FF90EF90DF90CF900C9413146DE20E9483
:1029C000CE138C0144275527BA014C195D096E09B5
:1029D0007F092AE0CE010E941314080F191FC801B5
:1029E000DF91CF911F910F91FF90EF90DF90CF90EB
:1029F00008950F931F93CF93DF93EC010E94AE14C1
:102A00008C01CE010E94D5139C01200F311FC901FA
:102A1000DF91CF911F910F9108959A01AB01662725
:102A200057FD6095762F0C94AE140F931F93CF93A0
:102A3000DF93EC019A01AB01662757FD6095762F75
:102A40000E94AE148C01CE010E94D5139801280F6C
:102A5000391FC901DF91CF911F910F910895AA1BD2
:102A6000BB1B51E107C0AA1FBB1FA617B70710F079
:102A7000A61BB70B881F991F5A95A9F780959095AB
:102A8000BC01CD010895A1E21A2EAA1BBB1BFD01BA
:102A90000DC0AA1FBB1FEE1FFF1FA217B307E4073D
:102AA000F50720F0A21BB30BE40BF50B661F771F95
:102AB000881F991F1A9469F7609570958095909575
:102AC0009B01AC01BD01CF010895EE0FFF1F0590E2
:102AD000F491E02D0994FB01DC0102C001900D92FC
:102AE00041505040D8F70895FB01DC010D900020C3
:102AF000E9F7119701900D920020E1F70895FB018D
:102B0000DC0101900D920020E1F70895F999FECFC4
:102B100092BD81BDF89A992780B50895262FF9991D
:102B2000FECF1FBA92BD81BD20BD0FB6F894FA9AB0
:0C2B3000F99A0FBE01960895F894FFCFAB
:102B3C000243757272656E7420636F6E6669677599
:102B4C00726174696F6E3A00206900206700204042
:102B5C002000204D487A2000636F6E6669672073F1
:102B6C00617665206661696C656400444620452089
:102B7C00004446205320000A5B5246313264656D96
:102B8C006F2E31305F52464D3250695D0044462005
:102B9C004920007465737420002064662320002093
:102BAC003A2000723A207061676520004446204349
:102BBC003F20004446205220002047004446205726
:102BCC000065726173656400202D3E2061636B00AB
:102BDC00202D3E20002062003B01B10164039303D1
:102BEC0000000000F4118E139611C511A911E91102
:00000001FF
