:100000000C9496020C940D110C943A110C94BE02AF
:100010000C94BE020C94BE020C94BE020C94BE0260
:100020000C94BE020C94BE020C94BE020C94BE0250
:100030000C94BE020C94BE020C94BE020C94BE0240
:100040000C9467110C94BE020C9468120C94B612B6
:100050000C94BE020C94BE020C94BE020C94BE0220
:100060000C94BE020C94BE02D40680069F06930731
:10007000E109ED0698067606790676063407E80665
:1000800076067606760676061D0AF907D406AD06CC
:1000900076067606F809340A7606220A0A4176615F
:1000A000696C61626C6520636F6D6D616E64733A3B
:1000B0000A20203C6E6E3E206920202020202D202A
:1000C000736574206E6F64652049442028737461E1
:1000D0006E64617264206E6F646520696473206170
:1000E000726520312E2E3330290A20203C6E3E20AE
:1000F000622020202020202D20736574204D487A16
:100100002062616E64202834203D203433332C205B
:1001100038203D203836382C2039203D20393135E3
:10012000290A20203C6E6E6E3E2067202020202D64
:1001300020736574206E6574776F726B2067726FC1
:100140007570202852464D3132206F6E6C792061D7
:100150006C6C6F7773203231322C2030203D20615F
:100160006E79290A20203C6E3E206320202020202A
:10017000202D2073657420636F6C6C656374206D33
:100180006F64652028616476616E6365642C206EFF
:100190006F726D616C6C792030290A2020742020E8
:1001A00020202020202020202D2062726F61646397
:1001B000617374206D61782D73697A65207465733D
:1001C00074207061636B65742C2072657175657342
:1001D000742061636B0A20202E2E2E2C3C6E6E3E06
:1001E0002061202D2073656E64206461746120702D
:1001F00061636B657420746F206E6F6465203C6E64
:100200006E3E2C20726571756573742061636B0A94
:1002100020202E2E2E2C3C6E6E3E2073202D20731F
:10022000656E642064617461207061636B65742025
:10023000746F206E6F6465203C6E6E3E2C206E6F76
:100240002061636B0A20203C6E3E206C2020202021
:1002500020202D207475726E206163746976697434
:1002600079204C4544206F6E20504231206F6E2023
:100270006F72206F66660A20203C6E3E207120203F
:10028000202020202D2073657420717569657420ED
:100290006D6F6465202831203D20646F6E277420C7
:1002A0007265706F727420626164207061636B6547
:1002B0007473290A20203C6E3E20782020202020C4
:1002C000202D20736574207265706F7274696E677B
:1002D00020666F726D6174202830203D2064656354
:1002E000696D616C2C2031203D20686578290A20D9
:1002F00020313233207A2020202020202D20746FBE
:1003000074616C20706F77657220646F776E2C203B
:100310006E65656473206120726573657420746F07
:1003200020737461727420757020616761696E0A50
:1003300052656D6F746520636F6E74726F6C2063AD
:100340006F6D6D616E64733A0A20203C6863686962
:100350003E2C3C68636C6F3E2C3C616464723E2CA6
:100360003C636D643E206620202020202D204653D3
:10037000323020636F6D6D616E642028383638200E
:100380004D487A290A20203C616464723E2C3C640A
:1003900065763E2C3C6F6E3E206B20202020202076
:1003A00020202020202020202D204B414B55206351
:1003B0006F6D6D616E642028343333204D487A2987
:1003C0000A00466C6173682073746F726167652000
:1003D000284A65654C696E6B206F6E6C79293A0A04
:1003E00020206420202020202020202020202020C9
:1003F00020202020202020202020202020202020FD
:100400002020202D2064756D7020616C6C206C6F35
:1004100067206D61726B6572730A20203C73683EC1
:100420002C3C736C3E2C3C74333E2C3C74323E2C82
:100430003C74313E2C3C74303E207220202D2072C2
:1004400065706C61792066726F6D20737065636989
:1004500066696564206D61726B65720A20203132B5
:10046000332C3C6268693E2C3C626C6F3E206520F8
:100470002020202020202020202020202020202D6F
:1004800020657261736520344B20626C6F636B0A68
:10049000202031322C3334207720202020202020AF
:1004A000202020202020202020202020202020204C
:1004B0002020202D207769706520656E7469726533
:1004C00020666C617368206D656D6F72790A00003B
:1004D000000000240027002A00000000002500285A
:1004E000002B000000000023002600290004040463
:1004F00004040404040202020202020303030303CD
:1005000003010204081020408001020408102001A9
:10051000020408102000000007000201000003048C
:1005200006000000000000000000191411241FBE86
:10053000CFEFD8E0DEBFCDBF11E0A0E0B1E0E4E650
:10054000FDE202C005900D92A83CB107D9F714E076
:10055000A8ECB1E001C01D92A538B107E1F715E0A4
:10056000CCE2D5E004C02297FE010E94AC16CA324C
:10057000D107C9F70E946F140C94B0160C940000B8
:10058000FB01DC0102C001900D9241505040D8F7B0
:100590000895FB01DC010D900020E9F7119701900F
:1005A0000D920020E1F70895FB01DC0101900D920E
:1005B0000020E1F7089525E0F89428982EBD0DB4A9
:1005C00007FEFDCF9EB51EBC0DB407FEFDCF9EB548
:1005D000289A78949F3F11F090FDEECFF8942898D8
:1005E0008EBD0DB407FEFDCF8EB508951F93182F55
:1005F00086E00E94DB02289A7894812F0E94DB0219
:100600001F910895DF92EF92FF920F931F93CF9364
:10061000DF938C01D62E7A01E90183E00E94DB0290
:100620001EBD0DB407FEFDCF8EB50EBD0DB407FE89
:10063000FDCF8EB5DEBC0DB407FEFDCF8EB520E03C
:1006400030E00BC01EBC0DB407FEFDCF8EB5F70128
:10065000E20FF11D80832F5F3F4F2C173D0790F372
:10066000289A7894DF91CF911F910F91FF90EF908E
:10067000DF9008950F931F93CF93DF938C01EB01CD
:1006800082E00E94F6021EBD0DB407FEFDCF8EB5BE
:100690000EBD0DB407FEFDCF8EB51EBC0DB407FE1A
:1006A000FDCF8EB520E030E0FE01E20FF11D80812C
:1006B0008EBD0DB407FEFDCF8EB52F5F3F4F81E09D
:1006C0002030380789F7289A7894DF91CF911F91CD
:1006D0000F91089580E090E060E070E040E050E02D
:1006E00020E030E00E94020308951F93CF93DF9330
:1006F000EC01FE0121961491112369F01A3029F4BE
:1007000083E694E06DE00E94A81483E694E0612FF4
:100710000E94A814EECFDF91CF911F9108951F93EF
:10072000182F8091C8018823E9F0812F90E024E000
:10073000959587952A95E1F78F70682F605D6A33EC
:100740000CF0695F83E694E00E94A814812F8F70FB
:10075000682F605D6A330CF0695F83E694E00E9465
:10076000A81408C083E694E0612F70E04AE050E0EE
:100770000E940D161F9108958CE990E00E94750368
:100780008091780290917902892B21F082EC93E09C
:100790000E94750383E694E060E071E00E944216D7
:1007A00081E00E94690F08950F931F93CF93DF9309
:1007B000EC018B016A30710540F0CB016AE070E01A
:1007C0000E947416CE010E94D403DE010D90002019
:1007D000E9F71197AC1BCA0FD11DC8016AE070E0A0
:1007E0000E947416805D8883DF91CF911F910F91D5
:1007F00008951F93CF93DF93CBECD1E08CE1FE0102
:1008000011928A95E9F7CE0167E171E00E94D40266
:100810001091C9011F71FE0101900020E9F7EC5C05
:10082000F140F0E0EC0FFD1F105C10831054CE017E
:1008300069E171E00E94C902CE01612F70E00E945F
:10084000D4038091C90185FF0BC0FE0101900020F7
:10085000E9F7EC5CF140F0E0EC0FFD1F8AE28083E9
:100860008BEC91E06CE171E00E94C9026091CA01D9
:100870008BEC91E070E00E94D4038BEC91E06FE18F
:1008800071E00E94C902E091C901F0E046E0F595EF
:10089000E7954A95E1F7EE0FFF1FE055FE4F6081A7
:1008A00071818BEC91E00E94D4038BEC91E063E2C8
:1008B00071E00E94C9028FEF9FEF9093E80180934F
:1008C000E701E9ECF1E021918091E7019091E801E5
:1008D0008227282F22952827022E26952695202527
:1008E000022E269520252770082E892F26950794FD
:1008F0002795902D822706942795902582279093FF
:10090000E8018093E70181E0E73EF807E1F680E245
:1009100090E0FC01E755FE4FE081F999FECF1FBA48
:1009200092BD81BDE0BD0FB6F894FA9AF99A0FBE58
:1009300001968034910569F781E00E94690F882350
:1009400031F483E694E069E271E00E944216DF919F
:10095000CF911F910895EF92FF920F931F938C01F7
:100960007B0181E00E946E0EC8018A569F4F0E9453
:10097000221280E00E946E0EC701885C90400E94A7
:1009800022121F910F91FF90EF9008950F931F93E4
:10099000CF93DF93EC016830A1F49C01220F331F49
:1009A000082E82958025082E869586958025C82F4D
:1009B000D0E02196D595C795C170D070C22BD32BAE
:1009C00069E0262F30E02150304081E090E0A0E047
:1009D000B0E004C0880F991FAA1FBB1F2A95D2F749
:1009E0008C010FC0C8018C239D23892B19F460E969
:1009F00071E002C068E572E0CB010E94AB0416957D
:100A000007950115110571F7DF91CF911F910F9196
:100A100008950F931F938C0183E694E06CE371E0DB
:100A20000E943F1683E694E0B8014AE050E00E943D
:100A30009C1588ED0E94F6021EBD0DB407FEFDCF89
:100A40008EB50EBD0DB407FEFDCF8EB51EBC0DB428
:100A500007FEFDCF8EB5289A78940E946A031F91F5
:100A60000F91089560917A03662309F498C020914C
:100A70007802309179022F5F3F4F8FE120303807A5
:100A800010F020E032E0309379022093780282E087
:100A90002030380749F480917203909173030196D6
:100AA00090937303809372038FEF9FEF909379037A
:100AB00080937803EAE7F2E090E04FEF5FEF7FEF9B
:100AC000961718F0983F08F4708381914827842F77
:100AD00082958427082E869586958025082E8695F2
:100AE00080258770042E452F869507948795502D75
:100AF000482706948795502548279F5F9E3F01F71A
:100B00005093790340937803C9016AE772E00E9429
:100B10003A0310927A030E946A0383E694E062E447
:100B200071E00E943F16609178027091790283E62D
:100B300094E04AE050E00E948B1583E694E060E286
:100B40000E94A814609172037091730383E694E08D
:100B50004AE050E00E948B1583E694E060E20E9438
:100B6000A8144091740350917503609176037091BD
:100B7000770383E694E02AE030E00E94F915809143
:100B8000780290917902882351F480509F4F2FE191
:100B90008030920710F080E092E00E9409050895ED
:100BA0000E94BB1128EE33E040E050E00E9488161E
:100BB000CA01B90108951F93182F89E061E00E94CE
:100BC000F10F60E0112309F461E089E00E94301028
:100BD0001F9108952F923F924F925F926F927F9252
:100BE0008F929F92AF92BF92CF92DF92EF92FF923D
:100BF0000F931F93DF93CF93CDB7DEB764970FB6F4
:100C0000F894DEBF0FBECDBF83E694E00E946F1361
:100C1000892B09F46DC483E694E00E94A013182F79
:100C200080538A3058F480912E022AE0829FC001BE
:100C300011248053810F80932E025AC41C3289F4F0
:100C400090912F02963450F4E92FF0E0E05DFD4FD3
:100C500080912E0280839F5F90932F0210922E022C
:100C600047C4812F81568A3108F003C483E694E09B
:100C700068E471E00E943F1600E012C0E02FF0E04F
:100C8000E05DFD4F608183E694E070E04AE050E073
:100C90000E940D1683E694E06CE20E94A8140F5F98
:100CA00080912F02081750F360912E0283E694E0A2
:100CB00070E04AE050E00E940D1683E694E0612F58
:100CC0000E94D014812F992787FD9095A92FB92FC5
:100CD000FC01E156F040EA31F10540F4EC5CFF4FD5
:100CE000EE0FFF1F0590F491E02D09940E94BC03C4
:100CF000EEC390912E029F718091C901807E14C035
:100D000080912E028823C1F0883011F492E005C052
:100D1000893011F091E001C093E09295990F990FFD
:100D2000907C8091C9018F73980F9093C90104C082
:100D300080912E028093CA010E94F903C8C380915A
:100D40002E02882321F08091C901806203C0809126
:100D5000C9018F7D8093C901EFCF81E68093E901BE
:100D600082E48093EA011092EB01ECEEF1E090E076
:100D700080917602890F81939F5F9234C9F783E651
:100D800094E06BE471E00E943F166091760283E686
:100D900094E070E04AE050E00E94201680917602D4
:100DA0008F5F8093760293C31093E90140912F02E5
:100DB0004093EA0180912E028093EB012CEE31E00A
:100DC000E0E3F2E0C901BF0150E00E94C0027FC32E
:100DD00080912E020E94DB057AC380E062E044ED40
:100DE0000E94ED0E81E00E94DB059091300280E0D0
:100DF000209131027C01E20EF11CB0903202C090D1
:100E00002E02DF2C1B2D1C0D1A5F1E0D1F0D00E086
:100E100081E090E06DE00E94C6048D2D90E068E0D6
:100E20000E94C604C70168E00E94C6048B2D90E0B2
:100E300068E00E94C6048C2D90E068E00E94C60421
:100E4000812F90E068E00E94C60480E090E061E0BD
:100E50000E94C6046AE070E080E090E00E94C91140
:100E60000F5F0330A9F65BC080E061E044ED0E94B3
:100E7000ED0E81E00E94DB0580913102082F10E029
:100E80000150104024E0000F111F2A95E1F7166071
:100E900080913002992787FD909501978F7090700F
:100EA000082B192B80912E0281111860DD249CEDF6
:100EB000A92E95E0B92E30C087E791E065E674E091
:100EC0000E94AB04C8010E2C02C0959587950A9428
:100ED000E2F780FD03C087E791E002C085E694E079
:100EE000B501681B790B0E94AB040894E11CF11C4E
:100EF0002CE0E216F10401F787E791E067E771E083
:100F00000E94AB046BE070E080E090E00E94C911A9
:100F1000D39484E0D81619F0EE24FF24CDCF80E0DE
:100F20000E94DB05D1C28091780290917902892BD1
:100F300009F4CDC283E694E00E94A01397FFFACF94
:100F400000E012E08DE0E82EF12CEC0EFD1E83E6B1
:100F500094E00E94A01397FFBAC2C80168EF70E046
:100F6000A70128E030E00E9402038D859E858F5FF7
:100F70009F4FB9F183E694E061E571E00E943F166E
:100F800083E694E0B8014AE050E00E948B1583E6C6
:100F900094E067E571E00E943F166D857E8583E6EB
:100FA00094E04AE050E00E948B1583E694E060E212
:100FB0000E94A8144F85588969897A8983E694E04C
:100FC0002AE030E00E94B91583E694E060E20E94D6
:100FD000A8146B897C8983E694E04AE050E00E9483
:100FE0009C150F5F1F4FBFE100301B0709F0AFCF0B
:100FF0006EC28091780290917902892B09F467C2C0
:101000009091300280E0892B19F480913102811196
:1010100081E0282E33249091320280E0892B11F058
:1010200031E005C080913302811181E0382F909129
:10103000340280E0892B11F021E005C080912E025E
:10104000811181E0282F832F90E0A0E0B0E0DC0147
:1010500099278827E22EFF2400E010E0E82AF92AE9
:101060000A2B1B2BC12CA2E0DA2EAA24AA94BA2C9C
:1010700088249924F7E06F2E712C6C0E7D1E2E01B2
:101080000894411C511CC60168EF70E0A30126E0E2
:1010900030E00E9402032F813885EFEF2F3F3E079B
:1010A000E9F02215330568F02A153B0550F4D2010A
:1010B000F30186E001900D928150E1F7A980BA809A
:1010C00046012A153B0551F489859A85AB85BC8577
:1010D000E816F9060A071B070CF046010894C11C24
:1010E000D11CF0E0CF16FFE1DF0669F683E694E05D
:1010F0006BE571E00E943F1683E694E0B4014AE09C
:1011000050E00E948B1583E694E060E20E94A814F0
:10111000609178027091790283E694E04AE050E0B1
:101120000E949C1583E694E00E94A01397FFFACFDB
:10113000C0907203D090730304C183E694E00E94D0
:10114000A01397FF06C10894811C911C20E0821611
:101150002FE1920618F0812CE2E09E2EC40160E09F
:1011600070E04AE752E020E031E00E940203809103
:101170007203909173038F5F9F4F09F4E2C0EAE717
:10118000F2E00FEF1FEF81910827802F82958027D3
:10119000082E869586958025082E86958025877051
:1011A000002E012F869507948795102D0827069409
:1011B000879510250827B3E0EA37FB0721F70115CB
:1011C000110511F410E083C083E694E064E671E059
:1011D0000E943F1683E694E0B4014AE050E00E948A
:1011E0008B1583E694E060E20E94A81483E694E005
:1011F000B8014AE050E00E949C15A3C083E694E049
:101200000E946F13892B09F06DC083E694E06BE6B2
:1012100071E00E943F16609172037091730383E640
:1012200094E04AE050E00E948B1583E694E060E28F
:101230000E94A814012F0F5FF70180814091740371
:10124000509175036091760370917703480F511D9B
:10125000611D711D83E694E02AE030E00E94B9151B
:1012600083E694E060E20E94A8141E5FE02FF0E0A5
:10127000E658FD4F608183E694E070E04AE050E07C
:101280000E940D16E12FF0E0E658FD4FE0801F5F51
:10129000F12E0E2D13C083E694E060E20E94A814A4
:1012A000EF2DF0E0E658FD4F6081F39483E694E083
:1012B00070E04AE050E00E940D160150002359F7FB
:1012C0001E0D83E694E00E94B014183F58F4E12EFE
:1012D000FF248AE792E0E80EF91ED7018C918F3F38
:1012E00009F08CCF83E694E06EE671E00E943F1631
:1012F00083E694E0B4014AE050E00E948B1583E657
:1013000094E060E20E94A8146091720370917303EC
:1013100083E694E04AE050E00E948B1583E694E077
:1013200060E20E94A814409174035091750360918B
:1013300076037091770383E694E02AE030E00E9420
:10134000F91580917802909179028816990609F032
:10135000F4CE10927A030894C11CD11CD09273036E
:10136000C092720383E694E06CE371E00E943F1642
:10137000609178027091790283E694E04AE050E04F
:101380000E948B1583E694E060E20E94A8146091AD
:1013900072037091730383E694E04AE050E00E9488
:1013A0008B1583E694E060E20E94A8140E94BB11B2
:1013B000AB01BC0183E694E02AE030E00E9477159F
:1013C00086C08091780290917902892B09F47FC0C0
:1013D000809130028B3709F07AC09091310280E021
:1013E00020912E0230E0822B932B0E9409056FC0C2
:1013F0008091780290917902892B09F468C08091DC
:1014000030028C3009F063C080912E02823209F0E4
:101410005EC083E694E064E771E00E94421687ECC8
:101420000E94F602289A78940E946A0383E694E068
:1014300069E771E00E9442164AC080912E028093B3
:10144000770245C080912E028B3709F040C06AE0D8
:1014500070E080E090E00E94C91180E00E94780E68
:10146000F8940E94D40F33C080912E028093C8015B
:101470002EC01E33C1F580912F02E82FF0E0E05D11
:10148000FD4F90912E0290838F5F80932F02809169
:10149000320290913002983011F462E005C0993028
:1014A00011F061E001C063E0409131020E94ED0E55
:1014B00040912F0244508091330264E372E00E9415
:1014C000A30E82E00E94510E80E00E94690F1092EC
:1014D0002F0210922E0286E4E0E3F2E0DF011D927B
:1014E0008A95E9F705C01152103210F40E94BC032E
:1014F0000E94680D882309F4D3C0F0907F03809187
:101500007B0390917C03892B19F481E00E94DB0519
:101510008091C801882329F083E694E068E50E9461
:10152000A8148091CA01882351F483E694E060E80E
:1015300071E00E943F1680917D030E948F0383E635
:1015400094E060E20E94A81480917E030E948F03C1
:1015500000E010E011C08091C801882329F483E6DF
:1015600094E060E20E94A814F801E058FC4F8081EA
:101570000E948F030F5F1F4F0F1568F383E694E0FF
:101580000E94B01480917B0390917C03892B09F019
:1015900087C081E00E94DB058091780290917902FA
:1015A000892B09F459C010917F031E5F80917A0343
:1015B000882351F40E94D0056093740370937503DF
:1015C00080937603909377030E94D005AB01BC0112
:1015D0008091740390917503A0917603B091770385
:1015E000481B590B6A0B7B0B4F3F51056105710579
:1015F0004CF480917A0390E00196810F911D893F10
:10160000910580F00E9432050E94D005609374031A
:1016100070937503809376039093770340E050E0D6
:1016200060E070E020917A03E22FF0E0E658FD4F91
:1016300040832F5F20937A0330E026583D4F4EE7DA
:1016400053E0C901BA01412F50E00E94C0028091CD
:101650007A03810F80937A0380917E0385FF1DC0FA
:1016600080917E0387FD19C08091C90185FD15C059
:1016700083E694E063E871E00E94421680917E0365
:1016800086FF02C080E804C080917E038F71806C69
:1016900060E070E040E00E94940E80E00E94DB0574
:1016A0008091E9018823A1F10E94F70D882381F13F
:1016B00081E00E94DB0583E694E06BE871E00E9424
:1016C0003F166091EA0183E694E070E04AE050E062
:1016D0000E940D1683E694E060E971E00E944216D4
:1016E0008091E901813611F080E001C080E29091A3
:1016F000EB01992311F09064892B6CEE71E040911D
:10170000EA010E94940E1092E90180E00E94DB053C
:1017100064960FB6F894DEBF0FBECDBFCF91DF91B8
:101720001F910F91FF90EF90DF90CF90BF90AF90FF
:101730009F908F907F906F905F904F903F902F90F1
:101740000895CF92DF92EF92FF920F931F93DF9352
:10175000CF9300D0CDB7DEB783E694E040E855E202
:1017600060E070E00E94F11283E694E063E971E0CA
:101770000E943F1681E00E94DB0581E00E94690F14
:101780008823A9F0F999FECF80E290E092BD81BD57
:10179000F89A80B58093C901F999FECF81E290E073
:1017A00092BD81BDF89A80B58093CA0108C081E8D6
:1017B0008093C90182ED8093CA010E94F903289A9F
:1017C00088E061E00E94F10F8FE90E94DB021EBCFD
:1017D0000DB407FEFDCF3EB51EBC0DB407FEFDCF18
:1017E0002EB5932F80E0289A789430E0822B932BAB
:1017F0008052904209F063C081E00E94F6021EBC54
:101800000DB407FEFDCF8EB5289A7894109273031D
:10181000109272038FEF9EE1909379028093780289
:1018200000E012E03FEFE32E3EE1F32E6E0108945C
:10183000C11CD11CC80168EF70E0A60122E030E0B5
:101840000E94020389819A812FEF8F3F920739F01E
:1018500001969093730380937203780105C0C801C9
:101860000197E816F90631F00F5F1F4F8FE1003046
:10187000180701F7F0927902E092780283E694E08B
:1018800069EA71E00E943F166091780270917902D6
:1018900083E694E04AE050E00E948B1583E694E0F2
:1018A00060E20E94A814609172037091730383E652
:1018B00094E04AE050E00E949C150E9432050E948C
:1018C000BC0360ED77E080E090E00E94C91180E009
:1018D0000E94DB050F900F90CF91DF911F910F9128
:1018E000FF90EF90DF90CF900895782F65B121E0C1
:1018F00030E040E050E00090AF0104C0220F331F01
:10190000441F551F0A94D2F7322F822F80958623C9
:1019100085B99EBD0DB407FEFDCF4EB57EBD0DB49D
:1019200007FEFDCF2EB5942F80E045B1342B35B99D
:1019300030E0282B392BC9010895E8980E94750CD6
:10194000E89A089580E090E00E94750C8091CB03A6
:10195000853009F054C080E090EB0E94750C282F70
:101960008091CD03882371F49091CC03992351F099
:101970008091CD03E82FF0E0E358FC4F90838F5F18
:101980008093CD038091CD03E82FF0E0E358FC4F26
:1019900020838F5F8093CD0380917B0390917C03A4
:1019A0008227282F22952827022E26952695202546
:1019B000022E269520252770082E892F269507941C
:1019C0002795902D8227069427959025822790931E
:1019D0007C0380937B0380917F032091CD0390E073
:1019E000049630E0821793072CF08091CD03873462
:1019F00008F46DC08DE092E80E94750C0895809106
:101A0000CB0387FF2EC0E0917F038091CB038F5FD4
:101A10008093CB038150ED5FE80FF0E0E358FC4F7B
:101A2000E08180917B0390917C038E27282F229563
:101A30002827022E269526952025022E269520253C
:101A40002770082E892F269507942795902D822799
:101A5000069427959025822790937C0380937B039F
:101A600030C08091CB038F5F8093CB038150833054
:101A700019F184302CF4882399F0813009F516C0CF
:101A8000893019F08A30E1F402C0EDE21AC0E09129
:101A9000CC0390917F038EEF891B8093CB0311C001
:101AA00080917B0390917C03E82F0BC080917B0396
:101AB00090917C03E92F05C08DE092E80E94750C9F
:101AC000EAEA8E2F90E0805098440E94750C0895A9
:101AD0008091CB03853009F042C080917F03209133
:101AE000CD0390E0049630E08217930724F08091B4
:101AF000CD038734A0F184E08093CB0380917F03F2
:101B0000833430F081E090E090937C0380937B03FA
:101B100080917E0386FF12C08091CA03282F30E097
:101B2000C9018F7190704F9749F080917E0390E0CA
:101B3000822793278F719070892B89F480917B0382
:101B400090917C03892B09F044C0E091C803F09187
:101B5000C903309709F43DC080E0099546C08091E3
:101B6000CB03843011F080E0089510927F038091C0
:101B70007F038093CD038FEF9FEF90937C0380933F
:101B80007B032091CC032223D9F08227282F229592
:101B90002827022E269526952025022E26952025DB
:101BA0002770082E892F269507942795902D822738
:101BB000069427959025822790937C0380937B033E
:101BC00085E08093CB038DED92E80E94750C80E058
:101BD00008958FEF9FEFAFEFBFEF8093C403909313
:101BE000C503A093C603B093C70381E00895809115
:101BF000CB03853099F48091CD03882379F480E07C
:101C000090E00E949D0C90FD09C08DE092E80E943A
:101C10009D0C84E08093CB0381E0089580E00895DB
:101C2000982F86FD05C0907E8091CA038F71980F12
:101C300090937E03E091C803F091C903309711F0AF
:101C400081E009958FEF9FEF90937C0380937B0356
:101C500080917B0390917C032091CC038227282FD5
:101C600022952827022E269526952025022E269598
:101C700020252770082E892F269507942795902DCB
:101C80008227069427959025822790937C03809342
:101C90007B0386E08093CB038DE392E80E94750C72
:101CA0000895282F16C02223A1F093B7233011F4F2
:101CB00084E005C0223011F080E001C08CE0917F0B
:101CC000892B83BF83B7816083BF889583B78E7F5D
:101CD00083BF8091CB03843031F70895882319F4B2
:101CE0008DE092E802C08DE392E80E94750C0895A1
:101CF0001F93182F87FF03C08DE092E80EC099272D
:101D000087FD9095956E0E949D0C85E092E80E945B
:101D10009D0C112321F087E092E80E949D0C84E045
:101D20008093CB031F9108951F93182F40937F0337
:101D300020E833E0C90150E00E94C002812F0E94D8
:101D4000100E1F9108950F931F93CF93DF93182FB9
:101D5000EB01042F02C00E94680D0E94F70D88233A
:101D6000D1F3812FBE01402F0E94940EDF91CF91BD
:101D70001F910F91089525B181E090E0A0E0B0E0BF
:101D80000090AF0104C0880F991FAA1FBB1F0A94BF
:101D9000D2F7282B25B924B1822B84B98AE061E0DF
:101DA0000E9430108AE061E00E94F10F8BE061E058
:101DB0000E94F10F8CE060E00E94F10F8DE061E085
:101DC0000E94F10F80E58CBD82E060E00E94F10F7F
:101DD00082E061E00E94301008951F93162F8093D7
:101DE000CA034093CC030E94BB0E80E090E00E94A7
:101DF000750C85E092E80E94750C80E098EB02C0BB
:101E000080E090E00E94750C82E00E948410892B93
:101E1000B9F3812F90E074E0880F991F7A95E1F76C
:101E2000876C90680E94750C80E496EA0E94750C9D
:101E300086E096EC0E94750C82EA94E90E94750C8B
:101E40008CEA92EC0E94750C1091CC03112341F0A6
:101E500083E89AEC0E94750C812F90E09E6C06C07E
:101E60008BE89AEC0E94750C8DE29EEC0E94750C3A
:101E700083E894EC0E94750C80E598E90E94750C4B
:101E800087E79CEC0E94750C80E090EE0E94750C38
:101E900080E098EC0E94750C89E490EC0E94750C2F
:101EA00084E08093CB038091CA0390E08F7190709F
:101EB000892B41F080E062EA7CE040E050E00E9443
:101EC000D71003C080E00E94FA108091CA031F91CE
:101ED0000895EF92FF920F931F93CF93DF93E82E15
:101EE0004FEF5FEF20E230E0F999FECF32BD21BD28
:101EF000F89A80B54827842F82958427082E8695E6
:101F000086958025082E869580258770042E452F7E
:101F1000869507948795502D4827069487955025D8
:101F200048272F5F3F4F2034310509F0DDCF452B87
:101F300011F080E032C000E0FF2410E0C0E2D0E009
:101F4000F999FECFD2BDC1BDF89A60B5112311F445
:101F5000062F0CC0113011F4F62E08C0662351F084
:101F6000EE2021F083E694E00E94A8141F5F2196E2
:101F70001E3131F7EE2021F083E694E00E94B01488
:101F8000602F70E0E6E075956795EA95E1F7802FA0
:101F90004F2D0E94ED0E802F8F71DF91CF911F91F9
:101FA0000F91FF90EF900895EAE7F0E09081808133
:101FB0008F77808383B7817F846083BFF89483B7F2
:101FC000816083BF85B7806685BF85B78F79806460
:101FD00085BF7894889583B78E7F83BF90937A006E
:101FE0000895CF93DF93482F50E0CA018F5F9A4F37
:101FF000FC01349143515B4FFA018491882369F1CC
:1020000090E0880F991FFC01E153FB4FA591B4911B
:10201000FC01E752FB4FC591D491662351F42FB7D1
:10202000F8948C91932F909589238C9388818923A0
:102030000BC0623061F42FB7F8948C91932F909578
:1020400089238C938881832B88832FBF06C09FB7F9
:10205000F8948C91832B8C939FBFDF91CF9108953F
:10206000482F50E0CA018B5E9A4FFC012491CA01AF
:102070008F5F9A4FFC01949143515B4FFA01349169
:10208000332309F440C0222351F1233071F024306E
:1020900028F42130A1F0223011F514C02630B1F01F
:1020A0002730C1F02430D9F404C0809180008F77AC
:1020B00003C0809180008F7D8093800010C084B524
:1020C0008F7702C084B58F7D84BD09C08091B00038
:1020D0008F7703C08091B0008F7D8093B000E32F95
:1020E000F0E0EE0FFF1FE752FB4FA591B4912FB721
:1020F000F894662321F48C919095892302C08C91E9
:10210000892B8C932FBF0895682F70E0CB018B5ED5
:102110009A4FFC012491CB018F5F9A4FFC014491AF
:1021200063517B4FFB019491992319F420E030E037
:102130003CC0222351F1233071F0243028F42130A7
:10214000A1F0223011F514C02630B1F02730C1F0D3
:102150002430D9F404C0809180008F7703C080912F
:1021600080008F7D8093800010C084B58F7702C07F
:1021700084B58F7D84BD09C08091B0008F7703C086
:102180008091B0008F7D8093B000892F90E0880F00
:10219000991F8D519B4FFC01A591B4918C9120E02A
:1021A00030E0842311F021E030E0C901089582304D
:1021B00000F5E82FF0E0EE0FFF1FE253FC4F7183B4
:1021C0006083882319F08130A1F408C080916900F0
:1021D0008C7F842B80936900E89A08958091690030
:1021E000440F551F440F551F837F842B8093690034
:1021F000E99A0895823080F4882319F0813021F41F
:1022000002C0E89801C0E998E82FF0E0EE0FFF1F48
:10221000E253FC4F1182108208951F920F920FB665
:102220000F9211242F933F934F935F936F937F935C
:102230008F939F93AF93BF93EF93FF938091CE03C0
:102240009091CF03892B29F0E091CE03F091CF0339
:102250000995FF91EF91BF91AF919F918F917F91E0
:102260006F915F914F913F912F910F900FBE0F9003
:102270001F9018951F920F920FB60F9211242F9353
:102280003F934F935F936F937F938F939F93AF93FE
:10229000BF93EF93FF938091D0039091D103892B4B
:1022A00029F0E091D003F091D1030995FF91EF91CE
:1022B000BF91AF919F918F917F916F915F914F915E
:1022C0003F912F910F900FBE0F901F9018951F9266
:1022D0000F920FB60F9211242F933F934F935F935A
:1022E0006F937F938F939F93AF93BF932091D60368
:1022F0003091D7034091D8035091D9037091DA03FC
:10230000DA01C9010296A11DB11D672F6A5F6D3701
:1023100030F06D57DA01C9010396A11DB11D60931C
:10232000DA038093D6039093D703A093D803B09396
:10233000D9038091D2039091D303A091D403B0919B
:10234000D5030196A11DB11D8093D2039093D303B1
:10235000A093D403B093D503BF91AF919F918F9178
:102360007F916F915F914F913F912F910F900FBE91
:102370000F901F9018958FB7F8942091D603309145
:10238000D7034091D8035091D9038FBFB901CA0137
:1023900008959B01AC017FB7F8948091D20390918E
:1023A000D303A091D403B091D50366B5A89B05C013
:1023B0006F3F19F00196A11DB11D7FBFBA2FA92F44
:1023C000982F8827860F911DA11DB11D63E0880FEE
:1023D000991FAA1FBB1F6A95D1F7BC012DC0FFB77B
:1023E000F8948091D2039091D303A091D403B0913B
:1023F000D503E6B5A89B05C0EF3F19F00196A11DD6
:10240000B11DFFBFBA2FA92F982F88278E0F911DBE
:10241000A11DB11DE3E0880F991FAA1FBB1FEA95FC
:10242000D1F7861B970B885E9340C8F2215030404D
:102430004040504068517C4F211531054105510500
:1024400071F60895019739F0019729F0880F991FC7
:1024500001970197F1F70895789484B5826084BD5F
:1024600084B5816084BD85B5826085BD85B5816098
:1024700085BDEEE6F0E0808181608083E1E8F0E0F8
:102480001082808182608083808181608083E0E827
:10249000F0E0808181608083E1EBF0E08081846006
:1024A0008083E0EBF0E0808181608083EAE7F0E008
:1024B000808184608083808182608083808181606C
:1024C00080838081806880831092C1000895089580
:1024D0001F920F920FB60F9211242F933F934F9399
:1024E0008F939F93EF93FF938091C00082FD1DC057
:1024F0004091C60020911B0430911C042F5F3F4F78
:102500002F73307080911D0490911E042817390795
:1025100071F0E0911B04F0911C04E552FC4F4083E4
:1025200030931C0420931B0402C08091C600FF91CD
:10253000EF919F918F914F913F912F910F900FBEEF
:102540000F901F901895E0916F04F0917004E05C7B
:10255000FF4F8191919120813181821B930B8F7369
:102560009070892B11F00E94671208951F920F92AC
:102570000FB60F9211242F933F938F939F93EF9356
:10258000FF9320915F0430916004809161049091E9
:1025900062042817390731F48091C1008F7D809340
:1025A000C10014C0E0916104F0916204E15EFB4F50
:1025B0002081809161049091620401968F739070E4
:1025C00090936204809361042093C600FF91EF9181
:1025D0009F918F913F912F910F900FBE0F901F9061
:1025E0001895AF92BF92DF92EF92FF920F931F93D5
:1025F000CF93DF93EC017A018B01DD24D39491E03A
:10260000A92EB12CEC89FD89DD2069F0C50108A057
:1026100002C0880F991F0A94E2F7808360E874E88B
:102620008EE190E005C0108260E472E48FE090E0FB
:10263000A80197010E948816215030404040504028
:10264000569547953795279580E12030380720F03B
:10265000DD2011F0DD24D6CFE889F9893083EA89BD
:10266000FB89208319A2EE89FF89408121E030E0B7
:10267000C9010C8C02C0880F991F0A94E2F7482BFD
:102680004083EE89FF894081C9010D8C02C0880F0B
:10269000991F0A94E2F7482B4083EE89FF89408115
:1026A000C9010E8C02C0880F991F0A94E2F7482BCB
:1026B0004083EE89FF8980810F8C02C0220F331F77
:1026C0000A94E2F7209528232083DF91CF911F9170
:1026D0000F91FF90EF90DF90BF90AF900895DC01D5
:1026E0001C96ED91FC911D97E05CFF4F219131917B
:1026F00080819181281B390B2F733070C901089597
:10270000DC011C96ED91FC911D97E05CFF4F208150
:102710003181E054F040DF01AE5BBF4F8D919C9161
:1027200011972817390719F42FEF3FEF07C08D9144
:102730009C91E80FF91F8081282F30E0C90108958E
:10274000DC011C96ED91FC911D97E05CFF4F208110
:102750003181E054F040DF01AE5BBF4F8D919C9121
:1027600011972817390719F42FEF3FEF10C08D91FB
:102770009C911197E80FF91F20818D919C911197E1
:1027800001968F73907011969C938E9330E0C901DF
:102790000895DC0191968C919197882339F0549695
:1027A000ED91FC915597808186FFF9CF91961C920F
:1027B0000895CF93DF93EC01EE85FF85E05CFF4F3A
:1027C00020813181E054F0402F5F3F4F2F733070F4
:1027D000DF01AE5BBF4F8D919C9111972817390790
:1027E000D1F3E05CFF4F80819181E054F040E80F2D
:1027F000F91F6083EE85FF85E05CFF4F3183208306
:10280000EE89FF89208181E090E00F8C02C0880F63
:10281000991F0A94E2F7282B208381E089A3EC8991
:10282000FD8980818064808381E090E0DF91CF9199
:102830000895109266041092650488EE93E0A0E07B
:10284000B0E08093670490936804A0936904B09308
:102850006A048CEB91E090936404809363048BEDA5
:1028600093E09093700480936F048FE194E09093D1
:1028700072048093710485EC90E0909374048093CB
:10288000730484EC90E0909376048093750480EC5C
:1028900090E0909378048093770481EC90E090939B
:1028A0007A048093790482EC90E090937C04809386
:1028B0007B0486EC90E090937E0480937D0484E01A
:1028C00080937F0483E08093800487E08093810479
:1028D00085E08093820481E0809383040895CF9300
:1028E000DF930E942C120E94A10BC3EAD2E10E9446
:1028F000EA052097E1F30E94A312F9CFCF92DF926D
:10290000EF92FF920F931F93CF93DF937C016B01A4
:102910008A01C0E0D0E00FC0D6016D916D01D701F2
:10292000ED91FC910190F081E02DC7010995C80F50
:10293000D91F015010400115110571F7CE01DF912B
:10294000CF911F910F91FF90EF90DF90CF9008955E
:10295000DC01ED91FC910190F081E02D0995089545
:10296000EF92FF920F931F938C01DC01ED91FC918C
:102970000190F081E02D6DE009957C01D801ED9189
:10298000FC910190F081E02DC8016AE009959C015D
:102990002E0D3F1DC9011F910F91FF90EF900895DB
:1029A000EF92FF920F931F937C01DC01ED91FC915C
:1029B0000190F081E02D09958C01C7010E94B014AF
:1029C000080F191FC8011F910F91FF90EF900895F4
:1029D000CF93DF93EC016115710519F420E030E02D
:1029E0000FC0DB010D900020E9F71197A61BB70B74
:1029F000E881F9810280F381E02DAD0109959C0108
:102A0000C901DF91CF9108954F925F927F928F928B
:102A10009F92AF92BF92CF92DF92EF92FF920F936D
:102A20001F93DF93CF93CDB7DEB7A1970FB6F8947E
:102A3000DEBF0FBECDBF2C01742ECB01223008F4B7
:102A40002AE019A231E2C32ED12CCC0EDD1E822E3B
:102A50009924AA24BB24672D752FA50194010E94F7
:102A6000881679018A01C801B701A50194010E9465
:102A70005516472D461B0894C108D1084A3014F456
:102A8000405D01C0495CF6014083E114F104010599
:102A9000110521F07E2C5F2DC801DDCFC201B601EA
:102AA0000E94E814A1960FB6F894DEBF0FBECDBF0A
:102AB000CF91DF911F910F91FF90EF90DF90CF901A
:102AC000BF90AF909F908F907F905F904F900895B0
:102AD000DC012115310541F4ED91FC910190F0816B
:102AE000E02D642F099508950E9404150895EF9232
:102AF000FF920F931F937C010E9468158C01C70100
:102B00000E94B0149C01200F311FC9011F910F9129
:102B1000FF90EF900895EF92FF920F931F939A0109
:102B20007B0100E010E0B801A7010E9468151F9129
:102B30000F91FF90EF900895CF92DF92EF92FF9266
:102B40000F931F936C017B019A0100E010E0B80124
:102B5000A7010E9468158C01C6010E94B014080FDD
:102B6000191FC8011F910F91FF90EF90DF90CF9038
:102B70000895CF92DF92EF92FF920F931F93CF931E
:102B8000DF93EC016A017B012115310541F4E881F5
:102B9000F9810190F081E02D642F09951FC02A3042
:102BA0003105D1F477FF17C0E881F9810190F081F8
:102BB000E02D6DE209958C0144275527BA014C1987
:102BC0005D096E097F09CE012AE00E940415980173
:102BD000280F391F04C02AE00E9404159C01C90176
:102BE000DF91CF911F910F91FF90EF90DF90CF90E9
:102BF0000895EF92FF920F931F937C010E94B915E5
:102C00008C01C7010E94B0149C01200F311FC90123
:102C10001F910F91FF90EF900895EF92FF920F9305
:102C20001F937B019A010027F7FC0095102FB80134
:102C3000A7010E94B9151F910F91FF90EF90089581
:102C4000CF92DF92EF92FF920F931F936C017B0163
:102C50009A010027F7FC0095102FB801A7010E94E8
:102C6000B9158C01C6010E94B014080F191FC801C4
:102C70001F910F91FF90EF90DF90CF9008950E94E9
:102C8000E8140895EF92FF920F931F937C010E9426
:102C9000E8148C01C7010E94B014080F191FC80165
:102CA0001F910F91FF90EF900895629FD001739F45
:102CB000F001829FE00DF11D649FE00DF11D929FD8
:102CC000F00D839FF00D749FF00D659FF00D992717
:102CD000729FB00DE11DF91F639FB00DE11DF91F3B
:102CE000BD01CF0111240895AA1BBB1B51E107C0F0
:102CF000AA1FBB1FA617B70710F0A61BB70B881F8C
:102D0000991F5A95A9F780959095BC01CD0108951A
:102D1000A1E21A2EAA1BBB1BFD010DC0AA1FBB1FDF
:102D2000EE1FFF1FA217B307E407F50720F0A21B51
:102D3000B30BE40BF50B661F771F881F991F1A94BE
:102D400069F760957095809590959B01AC01BD01E8
:102D5000CF010895EE0FFF1F0590F491E02D099427
:042D6000F894FFCF15
:102D640043757272656E7420636F6E6669677572FF
:102D74006174696F6E3A00200020690020670020AA
:102D8400402000204D487A2000636F6E66696720FA
:102D940073617665206661696C656400444620450C
:102DA40020004446205320003E20007465737420A4
:102DB40000206466232000203A2000723A207061CB
:102DC40067652000444620433F20005220004446CB
:102DD40020522000444620570065726173656400E8
:102DE400204700202D3E2061636B00202D3E2000F3
:102DF4002062000A5B5246313264656D6F2E3130B9
:102E04005F52464D3250695D00444620492000021D
:102E14003B01B1016403930300000000D9137E1445
:082E24006F13A0138013C91302
:00000001FF
