:100000000C9496020C9418110C9445110C94BE0299
:100010000C94BE020C94BE020C94BE020C94BE0260
:100020000C94BE020C94BE020C94BE020C94BE0250
:100030000C94BE020C94BE020C94BE020C94BE0240
:100040000C9472110C94BE020C9473120C94C11295
:100050000C94BE020C94BE020C94BE020C94BE0220
:100060000C94BE020C94BE02D40680069F06930731
:10007000E109ED0698067606790676063407E80665
:1000800076067606760676061D0AF907D406AD06CC
:1000900076067606F809340A7606220A0A4176615F
:1000A000696C61626C6520636F6D6D616E64733A3B
:1000B0000A20203C6E6E3E206920202020202D202A
:1000C000736574206E6F64652049442028737461E1
:1000D0006E64617264206E6F646520696473206170
:1000E000726520312E2E3330290A20203C6E3E20AE
:1000F000622020202020202D20736574204D487A16
:100100002062616E64202834203D203433332C205B
:1001100038203D203836382C2039203D20393135E3
:10012000290A20203C6E6E6E3E2067202020202D64
:1001300020736574206E6574776F726B2067726FC1
:100140007570202852464D3132206F6E6C792061D7
:100150006C6C6F7773203231322C2030203D20615F
:100160006E79290A20203C6E3E206320202020202A
:10017000202D2073657420636F6C6C656374206D33
:100180006F64652028616476616E6365642C206EFF
:100190006F726D616C6C792030290A2020742020E8
:1001A00020202020202020202D2062726F61646397
:1001B000617374206D61782D73697A65207465733D
:1001C00074207061636B65742C2072657175657342
:1001D000742061636B0A20202E2E2E2C3C6E6E3E06
:1001E0002061202D2073656E64206461746120702D
:1001F00061636B657420746F206E6F6465203C6E64
:100200006E3E2C20726571756573742061636B0A94
:1002100020202E2E2E2C3C6E6E3E2073202D20731F
:10022000656E642064617461207061636B65742025
:10023000746F206E6F6465203C6E6E3E2C206E6F76
:100240002061636B0A20203C6E3E206C2020202021
:1002500020202D207475726E206163746976697434
:1002600079204C4544206F6E20504231206F6E2023
:100270006F72206F66660A20203C6E3E207120203F
:10028000202020202D2073657420717569657420ED
:100290006D6F6465202831203D20646F6E277420C7
:1002A0007265706F727420626164207061636B6547
:1002B0007473290A20203C6E3E20782020202020C4
:1002C000202D20736574207265706F7274696E677B
:1002D00020666F726D6174202830203D2064656354
:1002E000696D616C2C2031203D20686578290A20D9
:1002F00020313233207A2020202020202D20746FBE
:1003000074616C20706F77657220646F776E2C203B
:100310006E65656473206120726573657420746F07
:1003200020737461727420757020616761696E0A50
:1003300052656D6F746520636F6E74726F6C2063AD
:100340006F6D6D616E64733A0A20203C6863686962
:100350003E2C3C68636C6F3E2C3C616464723E2CA6
:100360003C636D643E206620202020202D204653D3
:10037000323020636F6D6D616E642028383638200E
:100380004D487A290A20203C616464723E2C3C640A
:1003900065763E2C3C6F6E3E206B20202020202076
:1003A00020202020202020202D204B414B55206351
:1003B0006F6D6D616E642028343333204D487A2987
:1003C0000A00466C6173682073746F726167652000
:1003D000284A65654C696E6B206F6E6C79293A0A04
:1003E00020206420202020202020202020202020C9
:1003F00020202020202020202020202020202020FD
:100400002020202D2064756D7020616C6C206C6F35
:1004100067206D61726B6572730A20203C73683EC1
:100420002C3C736C3E2C3C74333E2C3C74323E2C82
:100430003C74313E2C3C74303E207220202D2072C2
:1004400065706C61792066726F6D20737065636989
:1004500066696564206D61726B65720A20203132B5
:10046000332C3C6268693E2C3C626C6F3E206520F8
:100470002020202020202020202020202020202D6F
:1004800020657261736520344B20626C6F636B0A68
:10049000202031322C3334207720202020202020AF
:1004A000202020202020202020202020202020204C
:1004B0002020202D207769706520656E7469726533
:1004C00020666C617368206D656D6F72790A00003B
:1004D000000000240027002A00000000002500285A
:1004E000002B000000000023002600290004040463
:1004F00004040404040202020202020303030303CD
:1005000003010204081020408001020408102001A9
:10051000020408102000000007000201000003048C
:1005200006000000000000000000241411241FBE7B
:10053000CFEFD8E0DEBFCDBF11E0A0E0B1E0EAE749
:10054000FDE202C005900D92AE3CB107D9F714E070
:10055000AEECB1E001C01D92AB38B107E1F715E098
:10056000CCE2D5E004C02297FE010E94B716CA3241
:10057000D107C9F70E947A140C94BB160C940000A2
:10058000FB01DC0102C001900D9241505040D8F7B0
:100590000895FB01DC010D900020E9F7119701900F
:1005A0000D920020E1F70895FB01DC0101900D920E
:1005B0000020E1F7089525E0F89428982EBD0DB4A9
:1005C00007FEFDCF9EB51EBC0DB407FEFDCF9EB548
:1005D000289A78949F3F11F090FDEECFF8942898D8
:1005E0008EBD0DB407FEFDCF8EB508951F93182F55
:1005F00086E00E94DB02289A7894812F0E94DB0219
:100600001F910895DF92EF92FF920F931F93CF9364
:10061000DF938C01D62E7A01E90183E00E94DB0290
:100620001EBD0DB407FEFDCF8EB50EBD0DB407FE89
:10063000FDCF8EB5DEBC0DB407FEFDCF8EB520E03C
:1006400030E00BC01EBC0DB407FEFDCF8EB5F70128
:10065000E20FF11D80832F5F3F4F2C173D0790F372
:10066000289A7894DF91CF911F910F91FF90EF908E
:10067000DF9008950F931F93CF93DF938C01EB01CD
:1006800082E00E94F6021EBD0DB407FEFDCF8EB5BE
:100690000EBD0DB407FEFDCF8EB51EBC0DB407FE1A
:1006A000FDCF8EB520E030E0FE01E20FF11D80812C
:1006B0008EBD0DB407FEFDCF8EB52F5F3F4F81E09D
:1006C0002030380789F7289A7894DF91CF911F91CD
:1006D0000F91089580E090E060E070E040E050E02D
:1006E00020E030E00E94020308951F93CF93DF9330
:1006F000EC01FE0121961491112369F01A3029F4BE
:1007000089E694E06DE00E94B31489E694E0612FDD
:100710000E94B314EECFDF91CF911F9108951F93E4
:10072000182F8091CF018823E9F0812F90E024E0F9
:10073000959587952A95E1F78F70682F605D6A33EC
:100740000CF0695F89E694E00E94B314812F8F70EA
:10075000682F605D6A330CF0695F89E694E00E945F
:10076000B31408C089E694E0612F70E04AE050E0DD
:100770000E9418161F9108958CE990E00E9475035D
:1007800080917E0290917F02892B21F082EC93E090
:100790000E94750389E694E060E071E00E944D16C6
:1007A00081E00E94740F08950F931F93CF93DF93FE
:1007B000EC018B016A30710540F0CB016AE070E01A
:1007C0000E947F16CE010E94D403DE010D9000200E
:1007D000E9F71197AC1BCA0FD11DC8016AE070E0A0
:1007E0000E947F16805D8883DF91CF911F910F91CA
:1007F00008951F93CF93DF93C2EDD1E08CE1FE010A
:1008000011928A95E9F7CE0167E171E00E94D40266
:100810001091D0011F71FE0101900020E9F7E35D06
:10082000F140F0E0EC0FFD1F105C10831054CE017E
:1008300069E171E00E94C902CE01612F70E00E945F
:10084000D4038091D00185FF0BC0FE0101900020F0
:10085000E9F7E35DF140F0E0EC0FFD1F8AE28083F1
:1008600082ED91E06CE171E00E94C9026091D101DA
:1008700082ED91E070E00E94D40382ED91E06FE19F
:1008800071E00E94C902E091D001F0E046E0F595E8
:10089000E7954A95E1F7EE0FFF1FEA54FE4F60819E
:1008A000718182ED91E00E94D40382ED91E063E2D8
:1008B00071E00E94C9028FEF9FEF9093EF01809348
:1008C000EE01E0EDF1E021918091EE019091EF01D8
:1008D0008227282F22952827022E26952695202527
:1008E000022E269520252770082E892F26950794FD
:1008F0002795902D822706942795902582279093FF
:10090000EF018093EE0181E0EE3EF807E1F680E230
:1009100090E0FC01E055FE4FE081F999FECF1FBA4F
:1009200092BD81BDE0BD0FB6F894FA9AF99A0FBE58
:1009300001968034910569F781E00E94740F882345
:1009400031F489E694E069E271E00E944D16DF918E
:10095000CF911F910895EF92FF920F931F938C01F7
:100960007B0181E00E94790EC8018A569F4F0E9448
:100970002D1280E00E94790EC701885C90400E9491
:100980002D121F910F91FF90EF9008950F931F93D9
:10099000CF93DF93EC016830A1F49C01220F331F49
:1009A000082E82958025082E869586958025C82F4D
:1009B000D0E02196D595C795C170D070C22BD32BAE
:1009C00069E0262F30E02150304081E090E0A0E047
:1009D000B0E004C0880F991FAA1FBB1F2A95D2F749
:1009E0008C010FC0C8018C239D23892B19F460E969
:1009F00071E002C068E572E0CB010E94AB0416957D
:100A000007950115110571F7DF91CF911F910F9196
:100A100008950F931F938C0189E694E06CE371E0D5
:100A20000E944A1689E694E0B8014AE050E00E942C
:100A3000A71588ED0E94F6021EBD0DB407FEFDCF7E
:100A40008EB50EBD0DB407FEFDCF8EB51EBC0DB428
:100A500007FEFDCF8EB5289A78940E946A031F91F5
:100A60000F91089560918003662309F498C0209146
:100A70007E0230917F022F5F3F4F8FE12030380799
:100A800010F020E032E030937F0220937E0282E07B
:100A90002030380749F480917803909179030196CA
:100AA00090937903809378038FEF9FEF90937F0368
:100AB00080937E03E0E8F2E090E04FEF5FEF7FEF9E
:100AC000961718F0983F08F4708381914827842F77
:100AD00082958427082E869586958025082E8695F2
:100AE00080258770042E452F869507948795502D75
:100AF000482706948795502548279F5F9E3F01F71A
:100B000050937F0340937E03C90160E872E00E9426
:100B10003A03109280030E946A0389E694E062E43B
:100B200071E00E944A1660917E0270917F0289E610
:100B300094E04AE050E00E94961589E694E060E275
:100B40000E94B314609178037091790389E694E070
:100B50004AE050E00E94961589E694E060E20E9427
:100B6000B31440917A0350917B0360917C037091A0
:100B70007D0389E694E02AE030E00E94041680912B
:100B80007E0290917F02882351F480509F4F2FE185
:100B90008030920710F080E092E00E9409050895ED
:100BA0000E94C61128EE33E040E050E00E94931608
:100BB000CA01B90108951F93182F89E061E00E94CE
:100BC000FC0F60E0112309F461E089E00E943B1012
:100BD0001F9108952F923F924F925F926F927F9252
:100BE0008F929F92AF92BF92CF92DF92EF92FF923D
:100BF0000F931F93DF93CF93CDB7DEB764970FB6F4
:100C0000F894DEBF0FBECDBF89E694E00E947A1350
:100C1000892B09F46DC489E694E00E94AB13182F68
:100C200080538A3058F4809135022AE0829FC001B7
:100C300011248053810F809335025AC41C3289F4E9
:100C400090913602963450F4E92FF0E0E95CFD4FC4
:100C50008091350280839F5F909336021092350217
:100C600047C4812F81568A3108F003C489E694E095
:100C700068E471E00E944A1600E012C0E02FF0E044
:100C8000E95CFD4F608189E694E070E04AE050E065
:100C90000E94181689E694E06CE20E94B3140F5F7C
:100CA00080913602081750F36091350289E694E08E
:100CB00070E04AE050E00E94181689E694E0612F47
:100CC0000E94DB14812F992787FD9095A92FB92FBA
:100CD000FC01E156F040EA31F10540F4EC5CFF4FD5
:100CE000EE0FFF1F0590F491E02D09940E94BC03C4
:100CF000EEC3909135029F718091D001807E14C027
:100D0000809135028823C1F0883011F492E005C04B
:100D1000893011F091E001C093E09295990F990FFD
:100D2000907C8091D0018F73980F9093D00104C074
:100D3000809135028093D1010E94F903C8C380914C
:100D40003502882321F08091D001806203C0809118
:100D5000D0018F7D8093D001EFCF81E68093F001A9
:100D600082E48093F1011092F201E3EFF1E090E070
:100D700080917D02890F81939F5F9234C9F789E644
:100D800094E06BE471E00E944A1660917D0289E66E
:100D900094E070E04AE050E00E942B1680917D02C2
:100DA0008F5F80937D0293C31093F00140913602D0
:100DB0004093F101809135028093F20123EF31E0FD
:100DC000E7E3F2E0C901BF0150E00E94C0027FC327
:100DD000809135020E94DB057AC380E062E044ED39
:100DE0000E94F80E81E00E94DB059091370280E0BE
:100DF000209138027C01E20EF11CB0903902C090C3
:100E00003502DF2C1B2D1C0D1A5F1E0D1F0D00E07F
:100E100081E090E06DE00E94C6048D2D90E068E0D6
:100E20000E94C604C70168E00E94C6048B2D90E0B2
:100E300068E00E94C6048C2D90E068E00E94C60421
:100E4000812F90E068E00E94C60480E090E061E0BD
:100E50000E94C6046AE070E080E090E00E94D41135
:100E60000F5F0330A9F65BC080E061E044ED0E94B3
:100E7000F80E81E00E94DB0580913802082F10E017
:100E80000150104024E0000F111F2A95E1F7166071
:100E900080913702992787FD909501978F70907008
:100EA000082B192B8091350281111860DD249CEDEF
:100EB000A92E95E0B92E30C087E791E065E674E091
:100EC0000E94AB04C8010E2C02C0959587950A9428
:100ED000E2F780FD03C087E791E002C085E694E079
:100EE000B501681B790B0E94AB040894E11CF11C4E
:100EF0002CE0E216F10401F787E791E067E771E083
:100F00000E94AB046BE070E080E090E00E94D4119E
:100F1000D39484E0D81619F0EE24FF24CDCF80E0DE
:100F20000E94DB05D1C280917E0290917F02892BC5
:100F300009F4CDC289E694E00E94AB1397FFFACF83
:100F400000E012E08DE0E82EF12CEC0EFD1E89E6AB
:100F500094E00E94AB1397FFBAC2C80168EF70E03B
:100F6000A70128E030E00E9402038D859E858F5FF7
:100F70009F4FB9F189E694E061E571E00E944A165D
:100F800089E694E0B8014AE050E00E94961589E6AF
:100F900094E067E571E00E944A166D857E8589E6DA
:100FA00094E04AE050E00E94961589E694E060E201
:100FB0000E94B3144F85588969897A8989E694E03B
:100FC0002AE030E00E94C41589E694E060E20E94C5
:100FD000B3146B897C8989E694E04AE050E00E9472
:100FE000A7150F5F1F4FBFE100301B0709F0AFCF00
:100FF0006EC280917E0290917F02892B09F467C2B4
:101000009091370280E0892B19F480913802811188
:1010100081E0282E33249091390280E0892B11F051
:1010200031E005C080913A02811181E0382F909122
:101030003B0280E0892B11F021E005C08091350250
:10104000811181E0282F832F90E0A0E0B0E0DC0147
:1010500099278827E22EFF2400E010E0E82AF92AE9
:101060000A2B1B2BC12CB2E0DB2EAA24AA94BA2C8B
:1010700088249924A7E06A2E712C6C0E7D1E2E0107
:101080000894411C511CC60168EF70E0A30126E0E2
:1010900030E00E9402032F813885EFEF2F3F3E079B
:1010A000E9F02215330568F02A153B0550F4D2010A
:1010B000F30186E001900D928150E1F7A980BA809A
:1010C00046012A153B0551F489859A85AB85BC8577
:1010D000E816F9060A071B070CF046010894C11C24
:1010E000D11CF0E0CF16FFE1DF0669F689E694E057
:1010F0006BE571E00E944A1689E694E0B4014AE08B
:1011000050E00E94961589E694E060E20E94B314D4
:1011100060917E0270917F0289E694E04AE050E09F
:101120000E94A71589E694E00E94AB1397FFFACFBF
:10113000C0907803D090790304C189E694E00E94BE
:10114000AB1397FF06C10894811C911C20E0821606
:101150002FE1920618F0812CF2E09F2EC40160E08E
:1011600070E040E852E020E031E00E94020380910C
:101170007803909179038F5F9F4F09F4E2C0E0E814
:10118000F2E00FEF1FEF81910827802F82958027D3
:10119000082E869586958025082E86958025877051
:1011A000002E012F869507948795102D0827069409
:1011B000879510250827B3E0E038FB0721F70115D4
:1011C000110511F410E083C089E694E064E671E053
:1011D0000E944A1689E694E0B4014AE050E00E9479
:1011E000961589E694E060E20E94B31489E694E0E3
:1011F000B8014AE050E00E94A715A3C089E694E038
:101200000E947A13892B09F06DC089E694E06BE6A1
:1012100071E00E944A16609178037091790389E623
:1012200094E04AE050E00E94961589E694E060E27E
:101230000E94B314012F0F5FF701808140917A0360
:1012400050917B0360917C0370917D03480F511D89
:10125000611D711D89E694E02AE030E00E94C4150A
:1012600089E694E060E20E94B3141E5FE02FF0E094
:10127000E058FD4F608189E694E070E04AE050E07C
:101280000E941816E12FF0E0E058FD4FE0801F5F4C
:10129000F12E0E2D13C089E694E060E20E94B31493
:1012A000EF2DF0E0E058FD4F6081F39489E694E083
:1012B00070E04AE050E00E9418160150002359F7F0
:1012C0001E0D89E694E00E94BB14183F58F4E12EED
:1012D000FF2480E892E0E80EF91ED7018C918F3F41
:1012E00009F08CCF89E694E06EE671E00E944A1620
:1012F00089E694E0B4014AE050E00E94961589E640
:1013000094E060E20E94B3146091780370917903D5
:1013100089E694E04AE050E00E94961589E694E060
:1013200060E20E94B31440917A0350917B03609174
:101330007C0370917D0389E694E02AE030E00E940E
:10134000041680917E0290917F028816990609F01A
:10135000F4CE109280030894C11CD11CD092790362
:10136000C092780389E694E06CE371E00E944A162B
:1013700060917E0270917F0289E694E04AE050E03D
:101380000E94961589E694E060E20E94B314609191
:1013900078037091790389E694E04AE050E00E9476
:1013A000961589E694E060E20E94B3140E94C6118B
:1013B000AB01BC0189E694E02AE030E00E9482158E
:1013C00086C080917E0290917F02892B09F47FC0B4
:1013D000809137028B3709F07AC09091380280E013
:1013E0002091350230E0822B932B0E9409056FC0BB
:1013F00080917E0290917F02892B09F468C08091D0
:1014000037028C3009F063C080913502823209F0D6
:101410005EC089E694E064E771E00E944D1687ECB7
:101420000E94F602289A78940E946A0389E694E062
:1014300069E771E00E944D164AC0809135028093A1
:10144000CE0145C0809135028B3709F040C06AE07B
:1014500070E080E090E00E94D41180E00E94830E52
:10146000F8940E94DF0F33C0809135028093CF0142
:101470002EC01E33C1F580913602E82FF0E0E95C02
:10148000FD4F9091350290838F5F8093360280915B
:10149000390290913702983011F462E005C099301A
:1014A00011F061E001C063E0409138020E94F80E43
:1014B00040913602445080913A026BE372E00E9400
:1014C000AE0E82E00E945C0E80E00E94740F1092CB
:1014D00036021092350286E4E7E3F2E0DF011D9266
:1014E0008A95E9F705C01152103210F40E94BC032E
:1014F0000E94730D882309F4E7C0F0908503809162
:10150000810390918203892B39F489E694E060E8A5
:1015100071E00E944A1610C08091CE01882309F024
:101520000BC189E694E063E871E00E944A16B4E1D9
:10153000BF1510F4E4E1FE2E8091CF01882329F03D
:1015400089E694E068E50E94B3148091D101882374
:1015500051F489E694E066E871E00E944A168091B1
:1015600083030E948F0389E694E060E20E94B31433
:10157000809184030E948F0300E010E011C08091ED
:10158000CF01882329F489E694E060E20E94B31435
:10159000F801EA57FC4F80810E948F030F5F1F4FB5
:1015A0000F1568F389E694E00E94BB1480918103D3
:1015B00090918203892B09F087C081E00E94DB05AE
:1015C00080917E0290917F02892B09F459C010917D
:1015D00085031E5F80918003882351F40E94D0050B
:1015E00060937A0370937B0380937C0390937D03D5
:1015F0000E94D005AB01BC0180917A0390917B03DE
:10160000A0917C03B0917D03481B590B6A0B7B0BA7
:101610004F3F5105610571054CF48091800390E0C6
:101620000196810F911D893F910580F00E9432053E
:101630000E94D00560937A0370937B0380937C03B0
:1016400090937D0340E050E060E070E020918003E3
:10165000E22FF0E0E058FD4F40832F5F209380039E
:1016600030E020583D4F44E853E0C901BA01412F12
:1016700050E00E94C00280918003810F809380031C
:101680008091840385FF1DC08091840387FD19C06C
:101690008091D00185FD15C089E694E069E871E08C
:1016A0000E944D168091840386FF02C080E804C02A
:1016B000809184038F71806C60E070E040E00E9454
:1016C0009F0E80E00E94DB058091F0018823A1F14C
:1016D0000E94020E882381F181E00E94DB0589E6E9
:1016E00094E061E971E00E944A166091F10189E697
:1016F00094E070E04AE050E00E94181689E694E019
:1017000066E971E00E944D168091F001813611F07A
:1017100080E001C080E29091F201992311F0906481
:10172000892B63EF71E04091F1010E949F0E1092AE
:10173000F00180E00E94DB0564960FB6F894DEBFEE
:101740000FBECDBFCF91DF911F910F91FF90EF9012
:10175000DF90CF90BF90AF909F908F907F906F90D1
:101760005F904F903F902F900895CF92DF92EF922D
:10177000FF920F931F93DF93CF9300D0CDB7DEB7C7
:1017800089E694E040E855E260E070E00E94FC12D7
:1017900089E694E069E971E00E944A1680E00E94BF
:1017A000DB0581E00E94740F8823A9F0F999FECF30
:1017B00080E290E092BD81BDF89A80B58093D0011F
:1017C000F999FECF81E290E092BD81BDF89A80B593
:1017D0008093D10108C081E88093D00182ED80938D
:1017E000D1010E94F903289A88E061E00E94FC0F71
:1017F0008FE90E94DB021EBC0DB407FEFDCF3EB593
:101800001EBC0DB407FEFDCF2EB5932F80E0289AA5
:10181000789430E0822B932B8052904209F063C081
:1018200081E00E94F6021EBC0DB407FEFDCF8EB50E
:10183000289A789410927903109278038FEF9EE1A2
:1018400090937F0280937E0200E012E03FEFE32E50
:101850003EE1F32E6E010894C11CD11CC80168EF53
:1018600070E0A60122E030E00E94020389819A81A3
:101870002FEF8F3F920739F0019690937903809371
:101880007803780105C0C8010197E816F90631F020
:101890000F5F1F4F8FE10030180701F7F0927F02B2
:1018A000E0927E0289E694E06FEA71E00E944A16B7
:1018B00060917E0270917F0289E694E04AE050E0F8
:1018C0000E94961589E694E060E20E94B31460914C
:1018D00078037091790389E694E04AE050E00E9431
:1018E000A7150E9432050E94BC030F900F90CF9164
:1018F000DF911F910F91FF90EF90DF90CF900895AF
:10190000782F65B121E030E040E050E00090B50173
:1019100004C0220F331F441F551F0A94D2F7322FE1
:10192000822F8095862385B99EBD0DB407FEFDCF1D
:101930004EB57EBD0DB407FEFDCF2EB5942F80E0D1
:1019400045B1342B35B930E0282B392BC901089526
:10195000E8980E94800CE89A089580E090E00E9448
:10196000800C8091D103853009F054C080E090EB69
:101970000E94800C282F8091D303882371F49091CA
:10198000D203992351F08091D303E82FF0E0ED5773
:10199000FC4F90838F5F8093D3038091D303E82F14
:1019A000F0E0ED57FC4F20838F5F8093D30380914D
:1019B0008103909182038227282F22952827022EC7
:1019C000269526952025022E269520252770082E5F
:1019D000892F269507942795902D82270694279581
:1019E00090258227909382038093810380918503C1
:1019F0002091D30390E0049630E0821793072CF0F7
:101A00008091D303873408F46DC08DE092E80E9482
:101A1000800C08958091D10387FF2EC0E09185034B
:101A20008091D1038F5F8093D1038150ED5FE80FE8
:101A3000F0E0ED57FC4FE0818091810390918203AB
:101A40008E27282F22952827022E26952695202599
:101A5000022E269520252770082E892F269507947B
:101A60002795902D8227069427959025822790937D
:101A700082038093810330C08091D1038F5F809374
:101A8000D1038150833019F184302CF4882399F0EC
:101A9000813009F516C0893019F08A30E1F402C0AE
:101AA000EDE21AC0E091D203909185038EEF891B7D
:101AB0008093D10311C08091810390918203E82F1C
:101AC0000BC08091810390918203E92F05C08DE0C6
:101AD00092E80E94800CEAEA8E2F90E080509844B1
:101AE0000E94800C08958091D103853009F042C096
:101AF000809185032091D30390E0049630E0821713
:101B0000930724F08091D3038734A0F184E080937D
:101B1000D10380918503833430F081E090E090938D
:101B20008203809381038091840386FF12C0809199
:101B3000D003282F30E0C9018F7190704F9749F082
:101B40008091840390E0822793278F719070892B76
:101B500089F48091810390918203892B09F044C01C
:101B6000E091CE03F091CF03309709F43DC080E0BF
:101B7000099546C08091D103843011F080E008952A
:101B800010928503809185038093D3038FEF9FEF9D
:101B900090938203809381032091D2032223D9F072
:101BA0008227282F22952827022E26952695202544
:101BB000022E269520252770082E892F269507941A
:101BC0002795902D8227069427959025822790931C
:101BD00082038093810385E08093D1038DED92E8A9
:101BE0000E94800C80E008958FEF9FEFAFEFBFEF72
:101BF0008093CA039093CB03A093CC03B093CD03FF
:101C000081E008958091D103853099F48091D303C8
:101C1000882379F480E090E00E94A80C90FD09C030
:101C20008DE092E80E94A80C84E08093D10381E0CB
:101C3000089580E00895982F86FD05C0907E8091DC
:101C4000D0038F71980F90938403E091CE03F091AD
:101C5000CF03309711F081E009958FEF9FEF9093BC
:101C6000820380938103809181039091820320916C
:101C7000D2038227282F22952827022E26952695E3
:101C80002025022E269520252770082E892F26959F
:101C900007942795902D82270694279590258227D3
:101CA000909382038093810386E08093D1038DE338
:101CB00092E80E94800C0895282F16C02223A1F0DC
:101CC00093B7233011F484E005C0223011F080E096
:101CD00001C08CE0917F892B83BF83B7816083BF74
:101CE000889583B78E7F83BF8091D103843031F78D
:101CF0000895882319F48DE092E802C08DE392E8FC
:101D00000E94800C08951F93182F87FF03C08DE059
:101D100092E80EC0992787FD9095956E0E94A80CB9
:101D200085E092E80E94A80C112321F087E092E858
:101D30000E94A80C84E08093D1031F9108951F9303
:101D4000182F4093850326E833E0C90150E00E9434
:101D5000C002812F0E941B0E1F9108950F931F93A5
:101D6000CF93DF93182FEB01042F02C00E94730D55
:101D70000E94020E8823D1F3812FBE01402F0E94C2
:101D80009F0EDF91CF911F910F91089525B181E0B2
:101D900090E0A0E0B0E00090B50104C0880F991F6A
:101DA000AA1FBB1F0A94D2F7282B25B924B1822B76
:101DB00084B98AE061E00E943B108AE061E00E9401
:101DC000FC0F8BE061E00E94FC0F8CE060E00E9461
:101DD000FC0F8DE061E00E94FC0F80E58CBD82E08D
:101DE00060E00E94FC0F82E061E00E943B100895D9
:101DF0001F93162F8093D0034093D2030E94C60EE8
:101E000080E090E00E94800C85E092E80E94800CC7
:101E100080E098EB02C080E090E00E94800C82E0BD
:101E20000E948F10892BB9F3812F90E074E0880F06
:101E3000991F7A95E1F7876C90680E94800C80E486
:101E400096EA0E94800C86E096EC0E94800C82EA62
:101E500094E90E94800C8CEA92EC0E94800C109114
:101E6000D203112341F083E89AEC0E94800C812F69
:101E700090E09E6C06C08BE89AEC0E94800C8DE28C
:101E80009EEC0E94800C83E894EC0E94800C80E51C
:101E900098E90E94800C87E79CEC0E94800C80E00F
:101EA00090EE0E94800C80E098EC0E94800C89E407
:101EB00090EC0E94800C84E08093D1038091D00349
:101EC00090E08F719070892B41F080E06DEA7CE0AA
:101ED00040E050E00E94E21003C080E00E94051143
:101EE0008091D0031F910895EF92FF920F931F935B
:101EF000CF93DF93E82E4FEF5FEF20E230E0F999C8
:101F0000FECF32BD21BDF89A80B54827842F829537
:101F10008427082E869586958025082E869580250F
:101F20008770042E452F869507948795502D482756
:101F300006948795502548272F5F3F4F2034310561
:101F400009F0DDCF452B11F080E032C000E0FF2426
:101F500010E0C0E2D0E0F999FECFD2BDC1BDF89A41
:101F600060B5112311F4062F0CC0113011F4F62EB8
:101F700008C0662351F0EE2021F089E694E00E942B
:101F8000B3141F5F21961E3131F7EE2021F089E650
:101F900094E00E94BB14602F70E0E6E075956795B1
:101FA000EA95E1F7802F4F2D0E94F80E802F8F7158
:101FB000DF91CF911F910F91FF90EF900895EAE785
:101FC000F0E0908180818F77808383B7817F846008
:101FD00083BFF89483B7816083BF85B7806685BF70
:101FE00085B78F79806485BF7894889583B78E7F15
:101FF00083BF90937A000895CF93DF93482F50E0EA
:10200000CA018F5F9A4FFC01349143515B4FFA0133
:102010008491882369F190E0880F991FFC01E153B6
:10202000FB4FA591B491FC01E752FB4FC591D491B0
:10203000662351F42FB7F8948C91932F90958923B0
:102040008C93888189230BC0623061F42FB7F89498
:102050008C91932F909589238C938881832B8883EF
:102060002FBF06C09FB7F8948C91832B8C939FBF92
:10207000DF91CF910895482F50E0CA018B5E9A4FAF
:10208000FC012491CA018F5F9A4FFC019491435146
:102090005B4FFA013491332309F440C0222351F1FC
:1020A000233071F0243028F42130A1F0223011F5D2
:1020B00014C02630B1F02730C1F02430D9F404C068
:1020C000809180008F7703C0809180008F7D809306
:1020D000800010C084B58F7702C084B58F7D84BD29
:1020E00009C08091B0008F7703C08091B0008F7DD0
:1020F0008093B000E32FF0E0EE0FFF1FE752FB4F9D
:10210000A591B4912FB7F894662321F48C91909502
:10211000892302C08C91892B8C932FBF0895682F3F
:1021200070E0CB018B5E9A4FFC012491CB018F5F55
:102130009A4FFC01449163517B4FFB019491992389
:1021400019F420E030E03CC0222351F1233071F03B
:10215000243028F42130A1F0223011F514C02630AB
:10216000B1F02730C1F02430D9F404C08091800050
:102170008F7703C0809180008F7D8093800010C096
:1021800084B58F7702C084B58F7D84BD09C08091EE
:10219000B0008F7703C08091B0008F7D8093B00036
:1021A000892F90E0880F991F8D519B4FFC01A591BD
:1021B000B4918C9120E030E0842311F021E030E0F4
:1021C000C9010895823000F5E82FF0E0EE0FFF1FFF
:1021D000EC52FC4F71836083882319F08130A1F4A5
:1021E00008C0809169008C7F842B80936900E89AF5
:1021F000089580916900440F551F440F551F837F38
:10220000842B80936900E99A0895823080F48823B2
:1022100019F0813021F402C0E89801C0E998E82F54
:10222000F0E0EE0FFF1FEC52FC4F11821082089578
:102230001F920F920FB60F9211242F933F934F933B
:102240005F936F937F938F939F93AF93BF93EF931E
:10225000FF938091D4039091D503892B29F0E091CD
:10226000D403F091D5030995FF91EF91BF91AF9100
:102270009F918F917F916F915F914F913F912F919E
:102280000F900FBE0F901F9018951F920F920FB6D0
:102290000F9211242F933F934F935F936F937F93EC
:1022A0008F939F93AF93BF93EF93FF938091D60348
:1022B0009091D703892B29F0E091D603F091D703B1
:1022C0000995FF91EF91BF91AF919F918F917F9170
:1022D0006F915F914F913F912F910F900FBE0F9093
:1022E0001F9018951F920F920FB60F9211242F93E3
:1022F0003F934F935F936F937F938F939F93AF938E
:10230000BF932091DC033091DD034091DE035091B7
:10231000DF037091E003DA01C9010296A11DB11D2E
:10232000672F6A5F6D3730F06D57DA01C901039688
:10233000A11DB11D6093E0038093DC039093DD0346
:10234000A093DE03B093DF038091D8039091D9036B
:10235000A091DA03B091DB030196A11DB11D80931A
:10236000D8039093D903A093DA03B093DB03BF9112
:10237000AF919F918F917F916F915F914F913F911D
:102380002F910F900FBE0F901F9018958FB7F89454
:102390002091DC033091DD034091DE035091DF0397
:1023A0008FBFB901CA0108959B01AC017FB7F894B2
:1023B0008091D8039091D903A091DA03B091DB0307
:1023C00066B5A89B05C06F3F19F00196A11DB11D10
:1023D0007FBFBA2FA92F982F8827860F911DA11D87
:1023E000B11D63E0880F991FAA1FBB1F6A95D1F723
:1023F000BC012DC0FFB7F8948091D8039091D90308
:10240000A091DA03B091DB03E6B5A89B05C0EF3FCE
:1024100019F00196A11DB11DFFBFBA2FA92F982F4A
:1024200088278E0F911DA11DB11DE3E0880F991F14
:10243000AA1FBB1FEA95D1F7861B970B885E9340B6
:10244000C8F2215030404040504068517C4F211527
:1024500031054105510571F60895019739F001974D
:1024600029F0880F991F01970197F1F70895789443
:1024700084B5826084BD84B5816084BD85B5826089
:1024800085BD85B5816085BDEEE6F0E08081816027
:102490008083E1E8F0E01082808182608083808127
:1024A00081608083E0E8F0E0808181608083E1EBFF
:1024B000F0E0808184608083E0EBF0E080818160E7
:1024C0008083EAE7F0E0808184608083808182609D
:1024D0008083808181608083808180688083109286
:1024E000C100089508951F920F920FB60F92112404
:1024F0002F933F934F938F939F93EF93FF938091ED
:10250000C00082FD1DC04091C60020912104309181
:1025100022042F5F3F4F2F733070809123049091DE
:1025200024042817390771F0E0912104F091220466
:10253000EF51FC4F4083309322042093210402C0CA
:102540008091C600FF91EF919F918F914F913F91A4
:102550002F910F900FBE0F901F901895E09175046A
:10256000F0917604E05CFF4F81919191208131815F
:10257000821B930B8F739070892B11F00E94721243
:1025800008951F920F920FB60F9211242F933F932D
:102590008F939F93EF93FF9320916504309166048E
:1025A00080916704909168042817390731F480916D
:1025B000C1008F7D8093C10014C0E0916704F09149
:1025C0006804EB5DFB4F2081809167049091680463
:1025D00001968F73907090936804809367042093A2
:1025E000C600FF91EF919F918F913F912F910F9096
:1025F0000FBE0F901F901895AF92BF92DF92EF928F
:10260000FF920F931F93CF93DF93EC017A018B011D
:10261000DD24D39491E0A92EB12CEC89FD89DD2035
:1026200069F0C50108A002C0880F991F0A94E2F75B
:10263000808360E874E88EE190E005C0108260E479
:1026400072E48FE090E0A80197010E949316215058
:10265000304040405040569547953795279580E14A
:102660002030380720F0DD2011F0DD24D6CFE889B6
:10267000F9893083EA89FB89208319A2EE89FF89D1
:10268000408121E030E0C9010C8C02C0880F991F05
:102690000A94E2F7482B4083EE89FF894081C90103
:1026A0000D8C02C0880F991F0A94E2F7482B4083D3
:1026B000EE89FF894081C9010E8C02C0880F991FE5
:1026C0000A94E2F7482B4083EE89FF8980810F8CC2
:1026D00002C0220F331F0A94E2F72095282320839B
:1026E000DF91CF911F910F91FF90EF90DF90BF90FE
:1026F000AF900895DC011C96ED91FC911D97E05C74
:10270000FF4F2191319180819181281B390B2F73CB
:102710003070C9010895DC011C96ED91FC911D9764
:10272000E05CFF4F20813181E054F040DF01AE5B7F
:10273000BF4F8D919C9111972817390719F42FEFEE
:102740003FEF07C08D919C91E80FF91F8081282FE2
:1027500030E0C9010895DC011C96ED91FC911D97B4
:10276000E05CFF4F20813181E054F040DF01AE5B3F
:10277000BF4F8D919C9111972817390719F42FEFAE
:102780003FEF10C08D919C911197E80FF91F2081A8
:102790008D919C91119701968F73907011969C93D7
:1027A0008E9330E0C9010895DC0191968C91919748
:1027B000882339F05496ED91FC915597808186FFDE
:1027C000F9CF91961C920895CF93DF93EC01EE859B
:1027D000FF85E05CFF4F20813181E054F0402F5FA6
:1027E0003F4F2F733070DF01AE5BBF4F8D919C91D7
:1027F000119728173907D1F3E05CFF4F8081918151
:10280000E054F040E80FF91F6083EE85FF85E05C3F
:10281000FF4F31832083EE89FF89208181E090E0A2
:102820000F8C02C0880F991F0A94E2F7282B20838F
:1028300081E089A3EC89FD8980818064808381E0C7
:1028400090E0DF91CF91089510926C0410926B0488
:1028500088EE93E0A0E0B0E080936D0490936E0466
:10286000A0936F04B093700482EC91E090936A049B
:102870008093690481EE93E09093760480937504CD
:1028800085E294E0909378048093770485EC90E05F
:1028900090937A048093790484EC90E090937C0484
:1028A00080937B0480EC90E090937E0480937D0481
:1028B00081EC90E09093800480937F0482EC90E020
:1028C000909382048093810486EC90E0909384043A
:1028D0008093830484E08093850483E0809386045E
:1028E00087E08093870485E08093880481E080936B
:1028F00089040895CF93DF930E9437120E94B50B8D
:10290000CEEAD2E10E94EA052097E1F30E94AE12DE
:10291000F9CFCF92DF92EF92FF920F931F93CF9355
:10292000DF937C016B018A01C0E0D0E00FC0D601CB
:102930006D916D01D701ED91FC910190F081E02D39
:10294000C7010995C80FD91F015010400115110585
:1029500071F7CE01DF91CF911F910F91FF90EF9012
:10296000DF90CF900895DC01ED91FC910190F08112
:10297000E02D09950895EF92FF920F931F938C011C
:10298000DC01ED91FC910190F081E02D6DE0099565
:102990007C01D801ED91FC910190F081E02DC801FE
:1029A0006AE009959C012E0D3F1DC9011F910F91F1
:1029B000FF90EF900895EF92FF920F931F937C0189
:1029C000DC01ED91FC910190F081E02D09958C01E5
:1029D000C7010E94BB14080F191FC8011F910F9156
:1029E000FF90EF900895CF93DF93EC01611571058F
:1029F00019F420E030E00FC0DB010D900020E9F772
:102A00001197A61BB70BE881F9810280F381E02DB5
:102A1000AD0109959C01C901DF91CF9108954F92B5
:102A20005F927F928F929F92AF92BF92CF92DF92EE
:102A3000EF92FF920F931F93DF93CF93CDB7DEB743
:102A4000A1970FB6F894DEBF0FBECDBF2C01742E38
:102A5000CB01223008F42AE019A231E2C32ED12C96
:102A6000CC0EDD1E822E9924AA24BB24672D752F3F
:102A7000A50194010E94931679018A01C801B7014A
:102A8000A50194010E946016472D461B0894C108B9
:102A9000D1084A3014F4405D01C0495CF60140831E
:102AA000E114F1040105110521F07E2C5F2DC80110
:102AB000DDCFC201B6010E94F314A1960FB6F894BF
:102AC000DEBF0FBECDBFCF91DF911F910F91FF9061
:102AD000EF90DF90CF90BF90AF909F908F907F90BE
:102AE0005F904F900895DC012115310541F4ED917F
:102AF000FC910190F081E02D642F099508950E94CA
:102B00000F150895EF92FF920F931F937C010E947F
:102B100073158C01C7010E94BB149C01200F311F4B
:102B2000C9011F910F91FF90EF900895EF92FF92CE
:102B30000F931F939A017B0100E010E0B801A701F9
:102B40000E9473151F910F91FF90EF900895CF92FF
:102B5000DF92EF92FF920F931F936C017B019A011A
:102B600000E010E0B801A7010E9473158C01C601B6
:102B70000E94BB14080F191FC8011F910F91FF90ED
:102B8000EF90DF90CF900895CF92DF92EF92FF9277
:102B90000F931F93CF93DF93EC016A017B01211503
:102BA000310541F4E881F9810190F081E02D642F35
:102BB00009951FC02A303105D1F477FF17C0E8818D
:102BC000F9810190F081E02D6DE209958C01442797
:102BD0005527BA014C195D096E097F09CE012AE01B
:102BE0000E940F159801280F391F04C02AE00E9487
:102BF0000F159C01C901DF91CF911F910F91FF909B
:102C0000EF90DF90CF900895EF92FF920F931F9374
:102C10007C010E94C4158C01C7010E94BB149C0159
:102C2000200F311FC9011F910F91FF90EF90089560
:102C3000EF92FF920F931F937B019A010027F7FCFD
:102C40000095102FB801A7010E94C4151F910F9184
:102C5000FF90EF900895CF92DF92EF92FF920F9343
:102C60001F936C017B019A010027F7FC0095102F40
:102C7000B801A7010E94C4158C01C6010E94BB14B3
:102C8000080F191FC8011F910F91FF90EF90DF905F
:102C9000CF9008950E94F3140895EF92FF920F933E
:102CA0001F937C010E94F3148C01C7010E94BB1486
:102CB000080F191FC8011F910F91FF90EF90089501
:102CC000629FD001739FF001829FE00DF11D649F10
:102CD000E00DF11D929FF00D839FF00D749FF00D9C
:102CE000659FF00D9927729FB00DE11DF91F639F3D
:102CF000B00DE11DF91FBD01CF0111240895AA1BDC
:102D0000BB1B51E107C0AA1FBB1FA617B70710F0D6
:102D1000A61BB70B881F991F5A95A9F78095909508
:102D2000BC01CD010895A1E21A2EAA1BBB1BFD0117
:102D30000DC0AA1FBB1FEE1FFF1FA217B307E4079A
:102D4000F50720F0A21BB30BE40BF50B661F771FF2
:102D5000881F991F1A9469F76095709580959095D2
:102D60009B01AC01BD01CF010895EE0FFF1F05903F
:0A2D7000F491E02D0994F894FFCFD0
:102D7A0043757272656E7420636F6E6669677572E9
:102D8A006174696F6E3A0020002069002067002094
:102D9A00402000204D487A2000636F6E66696720E4
:102DAA0073617665206661696C65640044462045F6
:102DBA0020004446205320003E200074657374208E
:102DCA0000206466232000203A2000723A207061B5
:102DDA0067652000444620433F20005220004446B5
:102DEA0020522000444620570065726173656400D2
:102DFA004F4B00203F00204700202D3E2061636B8F
:102E0A0000202D3E20002062000A5B5246313264C7
:102E1A00656D6F2E31305F52464D3250695D004408
:102E2A004620492000023B01B101640393030000DC
:0E2E3A000000E41389147A13AB138B13D41326
:00000001FF
