:100000000C9496020C941E110C944B110C94BE028D
:100010000C94BE020C94BE020C94BE020C94BE0260
:100020000C94BE020C94BE020C94BE020C94BE0250
:100030000C94BE020C94BE020C94BE020C94BE0240
:100040000C9478110C94BE020C9479120C94C71283
:100050000C94BE020C94BE020C94BE020C94BE0220
:100060000C94BE020C94BE02D40680069F06930731
:10007000E109ED0698067606790676063407E80665
:1000800076067606760676061D0AF907D406AD06CC
:1000900076067606F809340A7606220A0A4176615F
:1000A000696C61626C6520636F6D6D616E64733A3B
:1000B0000A20203C6E6E3E206920202020202D202A
:1000C000736574206E6F64652049442028737461E1
:1000D0006E64617264206E6F646520696473206170
:1000E000726520312E2E3330290A20203C6E3E20AE
:1000F000622020202020202D20736574204D487A16
:100100002062616E64202834203D203433332C205B
:1001100038203D203836382C2039203D20393135E3
:10012000290A20203C6E6E6E3E2067202020202D64
:1001300020736574206E6574776F726B2067726FC1
:100140007570202852464D3132206F6E6C792061D7
:100150006C6C6F7773203231322C2030203D20615F
:100160006E79290A20203C6E3E206320202020202A
:10017000202D2073657420636F6C6C656374206D33
:100180006F64652028616476616E6365642C206EFF
:100190006F726D616C6C792030290A2020742020E8
:1001A00020202020202020202D2062726F61646397
:1001B000617374206D61782D73697A65207465733D
:1001C00074207061636B65742C2072657175657342
:1001D000742061636B0A20202E2E2E2C3C6E6E3E06
:1001E0002061202D2073656E64206461746120702D
:1001F00061636B657420746F206E6F6465203C6E64
:100200006E3E2C20726571756573742061636B0A94
:1002100020202E2E2E2C3C6E6E3E2073202D20731F
:10022000656E642064617461207061636B65742025
:10023000746F206E6F6465203C6E6E3E2C206E6F76
:100240002061636B0A20203C6E3E206C2020202021
:1002500020202D207475726E206163746976697434
:1002600079204C4544206F6E20504231206F6E2023
:100270006F72206F66660A20203C6E3E207120203F
:10028000202020202D2073657420717569657420ED
:100290006D6F6465202831203D20646F6E277420C7
:1002A0007265706F727420626164207061636B6547
:1002B0007473290A20203C6E3E20782020202020C4
:1002C000202D20736574207265706F7274696E677B
:1002D00020666F726D6174202830203D2064656354
:1002E000696D616C2C2031203D20686578290A20D9
:1002F00020313233207A2020202020202D20746FBE
:1003000074616C20706F77657220646F776E2C203B
:100310006E65656473206120726573657420746F07
:1003200020737461727420757020616761696E0A50
:1003300052656D6F746520636F6E74726F6C2063AD
:100340006F6D6D616E64733A0A20203C6863686962
:100350003E2C3C68636C6F3E2C3C616464723E2CA6
:100360003C636D643E206620202020202D204653D3
:10037000323020636F6D6D616E642028383638200E
:100380004D487A290A20203C616464723E2C3C640A
:1003900065763E2C3C6F6E3E206B20202020202076
:1003A00020202020202020202D204B414B55206351
:1003B0006F6D6D616E642028343333204D487A2987
:1003C0000A00466C6173682073746F726167652000
:1003D000284A65654C696E6B206F6E6C79293A0A04
:1003E00020206420202020202020202020202020C9
:1003F00020202020202020202020202020202020FD
:100400002020202D2064756D7020616C6C206C6F35
:1004100067206D61726B6572730A20203C73683EC1
:100420002C3C736C3E2C3C74333E2C3C74323E2C82
:100430003C74313E2C3C74303E207220202D2072C2
:1004400065706C61792066726F6D20737065636989
:1004500066696564206D61726B65720A20203132B5
:10046000332C3C6268693E2C3C626C6F3E206520F8
:100470002020202020202020202020202020202D6F
:1004800020657261736520344B20626C6F636B0A68
:10049000202031322C3334207720202020202020AF
:1004A000202020202020202020202020202020204C
:1004B0002020202D207769706520656E7469726533
:1004C00020666C617368206D656D6F72790A00003B
:1004D000000000240027002A00000000002500285A
:1004E000002B000000000023002600290004040463
:1004F00004040404040202020202020303030303CD
:1005000003010204081020408001020408102001A9
:10051000020408102000000007000201000003048C
:10052000060000000000000000002A1411241FBE75
:10053000CFEFD8E0DEBFCDBF11E0A0E0B1E0E6E84C
:10054000FDE202C005900D92AC3CB107D9F714E072
:10055000ACECB1E001C01D92A938B107E1F715E09C
:10056000CCE2D5E004C02297FE010E94BD16CA323B
:10057000D107C9F70E9480140C94C1160C94000096
:10058000FB01DC0102C001900D9241505040D8F7B0
:100590000895FB01DC010D900020E9F7119701900F
:1005A0000D920020E1F70895FB01DC0101900D920E
:1005B0000020E1F7089525E0F89428982EBD0DB4A9
:1005C00007FEFDCF9EB51EBC0DB407FEFDCF9EB548
:1005D000289A78949F3F11F090FDEECFF8942898D8
:1005E0008EBD0DB407FEFDCF8EB508951F93182F55
:1005F00086E00E94DB02289A7894812F0E94DB0219
:100600001F910895DF92EF92FF920F931F93CF9364
:10061000DF938C01D62E7A01E90183E00E94DB0290
:100620001EBD0DB407FEFDCF8EB50EBD0DB407FE89
:10063000FDCF8EB5DEBC0DB407FEFDCF8EB520E03C
:1006400030E00BC01EBC0DB407FEFDCF8EB5F70128
:10065000E20FF11D80832F5F3F4F2C173D0790F372
:10066000289A7894DF91CF911F910F91FF90EF908E
:10067000DF9008950F931F93CF93DF938C01EB01CD
:1006800082E00E94F6021EBD0DB407FEFDCF8EB5BE
:100690000EBD0DB407FEFDCF8EB51EBC0DB407FE1A
:1006A000FDCF8EB520E030E0FE01E20FF11D80812C
:1006B0008EBD0DB407FEFDCF8EB52F5F3F4F81E09D
:1006C0002030380789F7289A7894DF91CF911F91CD
:1006D0000F91089580E090E060E070E040E050E02D
:1006E00020E030E00E94020308951F93CF93DF9330
:1006F000EC01FE0121961491112369F01A3029F4BE
:1007000087E694E06DE00E94B91487E694E0612FDB
:100710000E94B914EECFDF91CF911F9108951F93DE
:10072000182F8091CD018823E9F0812F90E024E0FB
:10073000959587952A95E1F78F70682F605D6A33EC
:100740000CF0695F87E694E00E94B914812F8F70E6
:10075000682F605D6A330CF0695F87E694E00E9461
:10076000B91408C087E694E0612F70E04AE050E0D9
:100770000E941E161F9108958CE990E00E94750357
:1007800080917C0290917D02892B21F082EC93E094
:100790000E94750387E694E060E071E00E945316C2
:1007A00081E00E947A0F08950F931F93CF93DF93F8
:1007B000EC018B016A30710540F0CB016AE070E01A
:1007C0000E948516CE010E94D403DE010D90002008
:1007D000E9F71197AC1BCA0FD11DC8016AE070E0A0
:1007E0000E948516805D8883DF91CF911F910F91C4
:1007F00008951F93CF93DF93C0EDD1E08CE1FE010C
:1008000011928A95E9F7CE0167E171E00E94D40266
:100810001091CE011F71FE0101900020E9F7E15D0A
:10082000F140F0E0EC0FFD1F105C10831054CE017E
:1008300069E171E00E94C902CE01612F70E00E945F
:10084000D4038091CE0185FF0BC0FE0101900020F2
:10085000E9F7E15DF140F0E0EC0FFD1F8AE28083F3
:1008600080ED91E06CE171E00E94C9026091CF01DE
:1008700080ED91E070E00E94D40380ED91E06FE1A3
:1008800071E00E94C902E091CE01F0E046E0F595EA
:10089000E7954A95E1F7EE0FFF1FED54FE4F60819B
:1008A000718180ED91E00E94D40380ED91E063E2DC
:1008B00071E00E94C9028FEF9FEF9093ED0180934A
:1008C000EC01EEECF1E021918091EC019091ED01D1
:1008D0008227282F22952827022E26952695202527
:1008E000022E269520252770082E892F26950794FD
:1008F0002795902D822706942795902582279093FF
:10090000ED018093EC0181E0EC3EF807E1F680E236
:1009100090E0FC01E255FE4FE081F999FECF1FBA4D
:1009200092BD81BDE0BD0FB6F894FA9AF99A0FBE58
:1009300001968034910569F781E00E947A0F88233F
:1009400031F487E694E069E271E00E945316DF918A
:10095000CF911F910895EF92FF920F931F938C01F7
:100960007B0181E00E947F0EC8018A569F4F0E9442
:10097000331280E00E947F0EC701885C90400E9485
:1009800033121F910F91FF90EF9008950F931F93D3
:10099000CF93DF93EC016830A1F49C01220F331F49
:1009A000082E82958025082E869586958025C82F4D
:1009B000D0E02196D595C795C170D070C22BD32BAE
:1009C00069E0262F30E02150304081E090E0A0E047
:1009D000B0E004C0880F991FAA1FBB1F2A95D2F749
:1009E0008C010FC0C8018C239D23892B19F460E969
:1009F00071E002C068E572E0CB010E94AB0416957D
:100A000007950115110571F7DF91CF911F910F9196
:100A100008950F931F938C0187E694E06CE371E0D7
:100A20000E94501687E694E0B8014AE050E00E9428
:100A3000AD1588ED0E94F6021EBD0DB407FEFDCF78
:100A40008EB50EBD0DB407FEFDCF8EB51EBC0DB428
:100A500007FEFDCF8EB5289A78940E946A031F91F5
:100A60000F91089560917E03662309F498C0209148
:100A70007C0230917D022F5F3F4F8FE1203038079D
:100A800010F020E032E030937D0220937C0282E07F
:100A90002030380749F480917603909177030196CE
:100AA00090937703809376038FEF9FEF90937D036E
:100AB00080937C03EEE7F2E090E04FEF5FEF7FEF93
:100AC000961718F0983F08F4708381914827842F77
:100AD00082958427082E869586958025082E8695F2
:100AE00080258770042E452F869507948795502D75
:100AF000482706948795502548279F5F9E3F01F71A
:100B000050937D0340937C03C9016EE772E00E941D
:100B10003A0310927E030E946A0387E694E062E43F
:100B200071E00E94501660917C0270917D0287E610
:100B300094E04AE050E00E949C1587E694E060E271
:100B40000E94B914609176037091770387E694E070
:100B50004AE050E00E949C1587E694E060E20E9423
:100B6000B914409178035091790360917A037091A0
:100B70007B0387E694E02AE030E00E940A16809129
:100B80007C0290917D02882351F480509F4F2FE189
:100B90008030920710F080E092E00E9409050895ED
:100BA0000E94CC1128EE33E040E050E00E949916FC
:100BB000CA01B90108951F93182F89E061E00E94CE
:100BC000021060E0112309F461E089E00E94411005
:100BD0001F9108952F923F924F925F926F927F9252
:100BE0008F929F92AF92BF92CF92DF92EF92FF923D
:100BF0000F931F93DF93CF93CDB7DEB764970FB6F4
:100C0000F894DEBF0FBECDBF87E694E00E9480134C
:100C1000892B09F46DC487E694E00E94B113182F64
:100C200080538A3058F4809133022AE0829FC001B9
:100C300011248053810F809333025AC41C3289F4EB
:100C400090913402963450F4E92FF0E0EB5CFD4FC4
:100C50008091330280839F5F90933402109233021D
:100C600047C4812F81568A3108F003C487E694E097
:100C700068E471E00E94501600E012C0E02FF0E03E
:100C8000EB5CFD4F608187E694E070E04AE050E065
:100C90000E941E1687E694E06CE20E94B9140F5F72
:100CA00080913402081750F36091330287E694E094
:100CB00070E04AE050E00E941E1687E694E0612F43
:100CC0000E94E114812F992787FD9095A92FB92FB4
:100CD000FC01E156F040EA31F10540F4EC5CFF4FD5
:100CE000EE0FFF1F0590F491E02D09940E94BC03C4
:100CF000EEC3909133029F718091CE01807E14C02B
:100D0000809133028823C1F0883011F492E005C04D
:100D1000893011F091E001C093E09295990F990FFD
:100D2000907C8091CE018F73980F9093CE0104C078
:100D3000809133028093CF010E94F903C8C3809150
:100D40003302882321F08091CE01806203C080911C
:100D5000CE018F7D8093CE01EFCF81E68093EE01AF
:100D600082E48093EF011092F001E1EFF1E090E076
:100D700080917B02890F81939F5F9234C9F787E648
:100D800094E06BE471E00E94501660917B0287E66C
:100D900094E070E04AE050E00E94311680917B02BE
:100DA0008F5F80937B0293C31093EE0140913402D6
:100DB0004093EF01809133028093F00121EF31E005
:100DC000E5E3F2E0C901BF0150E00E94C0027FC329
:100DD000809133020E94DB057AC380E062E044ED3B
:100DE0000E94FE0E81E00E94DB059091350280E0BA
:100DF000209136027C01E20EF11CB0903702C090C7
:100E00003302DF2C1B2D1C0D1A5F1E0D1F0D00E081
:100E100081E090E06DE00E94C6048D2D90E068E0D6
:100E20000E94C604C70168E00E94C6048B2D90E0B2
:100E300068E00E94C6048C2D90E068E00E94C60421
:100E4000812F90E068E00E94C60480E090E061E0BD
:100E50000E94C6046AE070E080E090E00E94DA112F
:100E60000F5F0330A9F65BC080E061E044ED0E94B3
:100E7000FE0E81E00E94DB0580913602082F10E013
:100E80000150104024E0000F111F2A95E1F7166071
:100E900080913502992787FD909501978F7090700A
:100EA000082B192B8091330281111860DD249CEDF1
:100EB000A92E95E0B92E30C087E791E065E674E091
:100EC0000E94AB04C8010E2C02C0959587950A9428
:100ED000E2F780FD03C087E791E002C085E694E079
:100EE000B501681B790B0E94AB040894E11CF11C4E
:100EF0002CE0E216F10401F787E791E067E771E083
:100F00000E94AB046BE070E080E090E00E94DA1198
:100F1000D39484E0D81619F0EE24FF24CDCF80E0DE
:100F20000E94DB05D1C280917C0290917D02892BC9
:100F300009F4CDC287E694E00E94B11397FFFACF7F
:100F400000E012E08DE0E82EF12CEC0EFD1E87E6AD
:100F500094E00E94B11397FFBAC2C80168EF70E035
:100F6000A70128E030E00E9402038D859E858F5FF7
:100F70009F4FB9F187E694E061E571E00E94501659
:100F800087E694E0B8014AE050E00E949C1587E6AD
:100F900094E067E571E00E9450166D857E8587E6D6
:100FA00094E04AE050E00E949C1587E694E060E2FD
:100FB0000E94B9144F85588969897A8987E694E037
:100FC0002AE030E00E94CA1587E694E060E20E94C1
:100FD000B9146B897C8987E694E04AE050E00E946E
:100FE000AD150F5F1F4FBFE100301B0709F0AFCFFA
:100FF0006EC280917C0290917D02892B09F467C2B8
:101000009091350280E0892B19F48091360281118C
:1010100081E0282E33249091370280E0892B11F053
:1010200031E005C080913802811181E0382F909124
:10103000390280E0892B11F021E005C08091330254
:10104000811181E0282F832F90E0A0E0B0E0DC0147
:1010500099278827E22EFF2400E010E0E82AF92AE9
:101060000A2B1B2BC12CB2E0DB2EAA24AA94BA2C8B
:1010700088249924A7E06A2E712C6C0E7D1E2E0107
:101080000894411C511CC60168EF70E0A30126E0E2
:1010900030E00E9402032F813885EFEF2F3F3E079B
:1010A000E9F02215330568F02A153B0550F4D2010A
:1010B000F30186E001900D928150E1F7A980BA809A
:1010C00046012A153B0551F489859A85AB85BC8577
:1010D000E816F9060A071B070CF046010894C11C24
:1010E000D11CF0E0CF16FFE1DF0669F687E694E059
:1010F0006BE571E00E94501687E694E0B4014AE087
:1011000050E00E949C1587E694E060E20E94B914CA
:1011100060917C0270917D0287E694E04AE050E0A5
:101120000E94AD1587E694E00E94B11397FFFACFB5
:10113000C0907603D090770304C187E694E00E94C4
:10114000B11397FF06C10894811C911C20E0821600
:101150002FE1920618F0812CF2E09F2EC40160E08E
:1011600070E04EE752E020E031E00E9402038091FF
:101170007603909177038F5F9F4F09F4E2C0EEE70B
:10118000F2E00FEF1FEF81910827802F82958027D3
:10119000082E869586958025082E86958025877051
:1011A000002E012F869507948795102D0827069409
:1011B000879510250827B3E0EE37FB0721F70115C7
:1011C000110511F410E083C087E694E064E671E055
:1011D0000E94501687E694E0B4014AE050E00E9475
:1011E0009C1587E694E060E20E94B91487E694E0DB
:1011F000B8014AE050E00E94AD15A3C087E694E034
:101200000E948013892B09F06DC087E694E06BE69D
:1012100071E00E945016609176037091770387E623
:1012200094E04AE050E00E949C1587E694E060E27A
:101230000E94B914012F0F5FF7018081409178035C
:101240005091790360917A0370917B03480F511D8F
:10125000611D711D87E694E02AE030E00E94CA1506
:1012600087E694E060E20E94B9141E5FE02FF0E090
:10127000E258FD4F608187E694E070E04AE050E07C
:101280000E941E16E12FF0E0E258FD4FE0801F5F44
:10129000F12E0E2D13C087E694E060E20E94B9148F
:1012A000EF2DF0E0E258FD4F6081F39487E694E083
:1012B00070E04AE050E00E941E160150002359F7EA
:1012C0001E0D87E694E00E94C114183F58F4E12EE9
:1012D000FF248EE792E0E80EF91ED7018C918F3F34
:1012E00009F08CCF87E694E06EE671E00E9450161C
:1012F00087E694E0B4014AE050E00E949C1587E63E
:1013000094E060E20E94B9146091760370917703D3
:1013100087E694E04AE050E00E949C1587E694E05E
:1013200060E20E94B9144091780350917903609172
:101330007A0370917B0387E694E02AE030E00E9414
:101340000A1680917C0290917D028816990609F018
:10135000F4CE10927E030894C11CD11CD092770366
:10136000C092760387E694E06CE371E00E94501629
:1013700060917C0270917D0287E694E04AE050E043
:101380000E949C1587E694E060E20E94B914609187
:1013900076037091770387E694E04AE050E00E947C
:1013A0009C1587E694E060E20E94B9140E94CC117B
:1013B000AB01BC0187E694E02AE030E00E9488158A
:1013C00086C080917C0290917D02892B09F47FC0B8
:1013D000809135028B3709F07AC09091360280E017
:1013E0002091330230E0822B932B0E9409056FC0BD
:1013F00080917C0290917D02892B09F468C08091D4
:1014000035028C3009F063C080913302823209F0DA
:101410005EC087E694E064E771E00E94531687ECB3
:101420000E94F602289A78940E946A0387E694E064
:1014300069E771E00E9453164AC08091330280939D
:10144000CC0145C0809133028B3709F040C06AE07F
:1014500070E080E090E00E94DA1180E00E94890E46
:10146000F8940E94E50F33C0809133028093CD0140
:101470002EC01E33C1F580913402E82FF0E0EB5C02
:10148000FD4F9091330290838F5F8093340280915F
:10149000370290913502983011F462E005C099301E
:1014A00011F061E001C063E0409136020E94FE0E3F
:1014B0004091340244508091380269E372E00E9406
:1014C000B40E82E00E94620E80E00E947A0F1092B9
:1014D00034021092330286E4E5E3F2E0DF011D926C
:1014E0008A95E9F705C01152103210F40E94BC032E
:1014F0000E94790D882309F4E4C0F0908303809161
:101500007F0390918003892B21F481E00E94DB0509
:1015100010C08091CC01882309F00BC187E694E0CC
:1015200060E871E00E945016B4E1BF1510F4E4E1E8
:10153000FE2E8091CD01882329F087E694E068E5AE
:101540000E94B9148091CF01882351F487E694E07A
:1015500063E871E00E945016809181030E948F031E
:1015600087E694E060E20E94B914809182030E94B1
:101570008F0300E010E011C08091CD01882329F491
:1015800087E694E060E20E94B914F801EC57FC4F42
:1015900080810E948F030F5F1F4F0F1568F387E64E
:1015A00094E00E94C11480917F0390918003892B65
:1015B00009F087C081E00E94DB0580917C02909158
:1015C0007D02892B09F459C0109183031E5F80911D
:1015D0007E03882351F40E94D005609378037093B2
:1015E000790380937A0390937B030E94D005AB012B
:1015F000BC018091780390917903A0917A03B09116
:101600007B03481B590B6A0B7B0B4F3F5105610550
:1016100071054CF480917E0390E00196810F911D3D
:10162000893F910580F00E9432050E94D0056093A9
:1016300078037093790380937A0390937B0340E05F
:1016400050E060E070E020917E03E22FF0E0E2588D
:10165000FD4F40832F5F20937E0330E022583D4FA3
:1016600042E853E0C901BA01412F50E00E94C00294
:1016700080917E03810F80937E038091820385FF9A
:101680001DC08091820387FD19C08091CE0185FD28
:1016900015C087E694E066E871E00E9453168091D9
:1016A000820386FF02C080E804C0809182038F71AC
:1016B000806C60E070E040E00E94A50E80E00E9437
:1016C000DB058091EE018823A1F10E94080E88239A
:1016D00081F181E00E94DB0587E694E06EE871E02D
:1016E0000E9450166091EF0187E694E070E04AE0B6
:1016F00050E00E941E1687E694E063E971E00E94C4
:1017000053168091EE01813611F080E001C080E235
:101710009091F001992311F09064892B61EF71E0B1
:101720004091EF010E94A50E1092EE0180E00E9410
:10173000DB0564960FB6F894DEBF0FBECDBFCF9128
:10174000DF911F910F91FF90EF90DF90CF90BF90AE
:10175000AF909F908F907F906F905F904F903F9051
:101760002F900895CF92DF92EF92FF920F931F93E5
:10177000DF93CF9300D0CDB7DEB787E694E040E8A3
:1017800055E260E070E00E94021387E694E066E9AB
:1017900071E00E94501681E00E94DB0581E00E940A
:1017A0007A0F8823A9F0F999FECF80E290E092BDEC
:1017B00081BDF89A80B58093CE01F999FECF81E280
:1017C00090E092BD81BDF89A80B58093CF0108C0AA
:1017D00081E88093CE0182ED8093CF010E94F903CE
:1017E000289A88E061E00E9402108FE90E94DB02E3
:1017F0001EBC0DB407FEFDCF3EB51EBC0DB407FEEA
:10180000FDCF2EB5932F80E0289A789430E0822B7C
:10181000932B8052904209F063C081E00E94F6024F
:101820001EBC0DB407FEFDCF8EB5289A7894109299
:101830007703109276038FEF9EE190937D02809361
:101840007C0200E012E03FEFE32E3EE1F32E6E015A
:101850000894C11CD11CC80168EF70E0A60122E009
:1018600030E00E94020389819A812FEF8F3F920717
:1018700039F001969093770380937603780105C041
:10188000C8010197E816F90631F00F5F1F4F8FE18D
:101890000030180701F7F0927D02E0927C0287E6A3
:1018A00094E06CEA71E00E94501660917C027091A5
:1018B0007D0287E694E04AE050E00E949C1587E6AE
:1018C00094E060E20E94B91460917603709177030E
:1018D00087E694E04AE050E00E94AD150E94320590
:1018E0000E94BC0360ED77E080E090E00E94DA1196
:1018F00080E00E94DB050F900F90CF91DF911F9148
:101900000F91FF90EF90DF90CF900895782F65B101
:1019100021E030E040E050E00090B20104C0220F2E
:10192000331F441F551F0A94D2F7322F822F809500
:10193000862385B99EBD0DB407FEFDCF4EB57EBD95
:101940000DB407FEFDCF2EB5942F80E045B1342BAA
:1019500035B930E0282B392BC9010895E8980E9449
:10196000860CE89A089580E090E00E94860C8091B1
:10197000CF03853009F054C080E090EB0E94860CC4
:10198000282F8091D103882371F49091D00399235B
:1019900051F08091D103E82FF0E0EF57FC4F908396
:1019A0008F5F8093D1038091D103E82FF0E0EF5750
:1019B000FC4F20838F5F8093D10380917F039091B0
:1019C00080038227282F22952827022E26952695E8
:1019D0002025022E269520252770082E892F269552
:1019E00007942795902D8227069427959025822786
:1019F0009093800380937F03809183032091D10390
:101A000090E0049630E0821793072CF08091D10388
:101A1000873408F46DC08DE092E80E94860C08952A
:101A20008091CF0387FF2EC0E09183038091CF0385
:101A30008F5F8093CF038150ED5FE80FF0E0EF57A9
:101A4000FC4FE08180917F03909180038E27282FA7
:101A500022952827022E269526952025022E2695AA
:101A600020252770082E892F269507942795902DDD
:101A70008227069427959025822790938003809350
:101A80007F0330C08091CF038F5F8093CF0381505D
:101A9000833019F184302CF4882399F0813009F5D2
:101AA00016C0893019F08A30E1F402C0EDE21AC0A4
:101AB000E091D003909183038EEF891B8093CF0335
:101AC00011C080917F0390918003E82F0BC080911B
:101AD0007F0390918003E92F05C08DE092E80E947A
:101AE000860CEAEA8E2F90E0805098440E94860C83
:101AF00008958091CF03853009F042C0809183031F
:101B00002091D10390E0049630E08217930724F0EF
:101B10008091D1038734A0F184E08093CF0380913A
:101B20008303833430F081E090E0909380038093CE
:101B30007F038091820386FF12C08091CE03282FFD
:101B400030E0C9018F7190704F9749F08091820306
:101B500090E0822793278F719070892B89F4809170
:101B60007F0390918003892B09F044C0E091CC035E
:101B7000F091CD03309709F43DC080E0099546C04F
:101B80008091CF03843011F080E008951092830398
:101B9000809183038093D1038FEF9FEF9093800315
:101BA00080937F032091D0032223D9F08227282F0E
:101BB00022952827022E269526952025022E269549
:101BC00020252770082E892F269507942795902D7C
:101BD00082270694279590258227909380038093EF
:101BE0007F0385E08093CF038DED92E80E94860C01
:101BF00080E008958FEF9FEFAFEFBFEF8093C803B2
:101C00009093C903A093CA03B093CB0381E00895D6
:101C10008091CF03853099F48091D103882379F4A2
:101C200080E090E00E94AE0C90FD09C08DE092E84B
:101C30000E94AE0C84E08093CF0381E0089580E0A1
:101C40000895982F86FD05C0907E8091CE038F71F8
:101C5000980F90938203E091CC03F091CD033097DD
:101C600011F081E009958FEF9FEF909380038093AF
:101C70007F0380917F03909180032091D00382277E
:101C8000282F22952827022E269526952025022EDC
:101C9000269520252770082E892F269507942795AD
:101CA000902D822706942795902582279093800374
:101CB00080937F0386E08093CF038DE392E80E94B8
:101CC000860C0895282F16C02223A1F093B7233045
:101CD00011F484E005C0223011F080E001C08CE0F6
:101CE000917F892B83BF83B7816083BF889583B73A
:101CF0008E7F83BF8091CF03843031F7089588238E
:101D000019F48DE092E802C08DE392E80E94860CFF
:101D100008951F93182F87FF03C08DE092E80EC02F
:101D2000992787FD9095956E0E94AE0C85E092E80C
:101D30000E94AE0C112321F087E092E80E94AE0CC5
:101D400084E08093CF031F9108951F93182F409331
:101D5000830324E833E0C90150E00E94C002812FD0
:101D60000E94210E1F9108950F931F93CF93DF932D
:101D7000182FEB01042F02C00E94790D0E94080E5B
:101D80008823D1F3812FBE01402F0E94A50EDF9141
:101D9000CF911F910F91089525B181E090E0A0E0CF
:101DA000B0E00090B20104C0880F991FAA1FBB1FAA
:101DB0000A94D2F7282B25B924B1822B84B98AE062
:101DC00061E00E9441108AE061E00E9402108BE015
:101DD00061E00E9402108CE060E00E9402108DE041
:101DE00061E00E94021080E58CBD82E060E00E940C
:101DF000021082E061E00E94411008951F93162FA7
:101E00008093CE034093D0030E94CC0E80E090E0FC
:101E10000E94860C85E092E80E94860C80E098EB98
:101E200002C080E090E00E94860C82E00E94951043
:101E3000892BB9F3812F90E074E0880F991F7A9570
:101E4000E1F7876C90680E94860C80E496EA0E9415
:101E5000860C86E096EC0E94860C82EA94E90E9449
:101E6000860C8CEA92EC0E94860C1091D003112310
:101E700041F083E89AEC0E94860C812F90E09E6CE2
:101E800006C08BE89AEC0E94860C8DE29EEC0E94C4
:101E9000860C83E894EC0E94860C80E598E90E9409
:101EA000860C87E79CEC0E94860C80E090EE0E94F6
:101EB000860C80E098EC0E94860C89E490EC0E94ED
:101EC000860C84E08093CF038091CE0390E08F71E5
:101ED0009070892B41F080E063EB7CE040E050E0C3
:101EE0000E94E81003C080E00E940B118091CE0395
:101EF0001F910895EF92FF920F931F93CF93DF935B
:101F0000E82E4FEF5FEF20E230E0F999FECF32BDCF
:101F100021BDF89A80B54827842F82958427082E02
:101F2000869586958025082E869580258770042EB7
:101F3000452F869507948795502D482706948795B9
:101F4000502548272F5F3F4F2034310509F0DDCF62
:101F5000452B11F080E032C000E0FF2410E0C0E229
:101F6000D0E0F999FECFD2BDC1BDF89A60B511237A
:101F700011F4062F0CC0113011F4F62E08C06623A0
:101F800051F0EE2021F087E694E00E94B9141F5F23
:101F900021961E3131F7EE2021F087E694E00E9471
:101FA000C114602F70E0E6E075956795EA95E1F75A
:101FB000802F4F2D0E94FE0E802F8F71DF91CF91C9
:101FC0001F910F91FF90EF900895EAE7F0E0908164
:101FD00080818F77808383B7817F846083BFF8940B
:101FE00083B7816083BF85B7806685BF85B78F79EA
:101FF000806485BF7894889583B78E7F83BF9093E4
:102000007A000895CF93DF93482F50E0CA018F5F85
:102010009A4FFC01349143515B4FFA01849188231C
:1020200069F190E0880F991FFC01E153FB4FA591E6
:10203000B491FC01E752FB4FC591D491662351F452
:102040002FB7F8948C91932F909589238C93888146
:1020500089230BC0623061F42FB7F8948C91932FD1
:10206000909589238C938881832B88832FBF06C00A
:102070009FB7F8948C91832B8C939FBFDF91CF9166
:102080000895482F50E0CA018B5E9A4FFC012491BD
:10209000CA018F5F9A4FFC01949143515B4FFA0143
:1020A0003491332309F440C0222351F1233071F0DD
:1020B000243028F42130A1F0223011F514C026304C
:1020C000B1F02730C1F02430D9F404C080918000F1
:1020D0008F7703C0809180008F7D8093800010C037
:1020E00084B58F7702C084B58F7D84BD09C080918F
:1020F000B0008F7703C08091B0008F7D8093B000D7
:10210000E32FF0E0EE0FFF1FE752FB4FA591B491D4
:102110002FB7F894662321F48C919095892302C0FF
:102120008C91892B8C932FBF0895682F70E0CB0181
:102130008B5E9A4FFC012491CB018F5F9A4FFC017B
:10214000449163517B4FFB019491992319F420E052
:1021500030E03CC0222351F1233071F0243028F4C8
:102160002130A1F0223011F514C02630B1F0273013
:10217000C1F02430D9F404C0809180008F7703C06F
:10218000809180008F7D8093800010C084B58F7710
:1021900002C084B58F7D84BD09C08091B0008F7767
:1021A00003C08091B0008F7D8093B000892F90E0B4
:1021B000880F991F8D519B4FFC01A591B4918C9173
:1021C00020E030E0842311F021E030E0C9010895DF
:1021D000823000F5E82FF0E0EE0FFF1FEE52FC4FCB
:1021E00071836083882319F08130A1F408C0809145
:1021F00069008C7F842B80936900E89A0895809110
:102200006900440F551F440F551F837F842B809313
:102210006900E99A0895823080F4882319F08130AA
:1022200021F402C0E89801C0E998E82FF0E0EE0F31
:10223000FF1FEE52FC4F1182108208951F920F92E1
:102240000FB60F9211242F933F934F935F936F9389
:102250007F938F939F93AF93BF93EF93FF9380915F
:10226000D2039091D303892B29F0E091D203F0910E
:10227000D3030995FF91EF91BF91AF919F918F91FA
:102280007F916F915F914F913F912F910F900FBE72
:102290000F901F9018951F920F920FB60F92112456
:1022A0002F933F934F935F936F937F938F939F935E
:1022B000AF93BF93EF93FF938091D4039091D50395
:1022C000892B29F0E091D403F091D5030995FF9172
:1022D000EF91BF91AF919F918F917F916F915F919E
:1022E0004F913F912F910F900FBE0F901F90189517
:1022F0001F920F920FB60F9211242F933F934F937B
:102300005F936F937F938F939F93AF93BF9320912E
:10231000DA033091DB034091DC035091DD037091CF
:10232000DE03DA01C9010296A11DB11D672F6A5FA4
:102330006D3730F06D57DA01C9010396A11DB11D4B
:102340006093DE038093DA039093DB03A093DC03B6
:10235000B093DD038091D6039091D703A091D80369
:10236000B091D9030196A11DB11D8093D60390931E
:10237000D703A093D803B093D903BF91AF919F9196
:102380008F917F916F915F914F913F912F910F901E
:102390000FBE0F901F9018958FB7F8942091DA0315
:1023A0003091DB034091DC035091DD038FBFB90115
:1023B000CA0108959B01AC017FB7F8948091D603C0
:1023C0009091D703A091D803B091D90366B5A89B8B
:1023D00005C06F3F19F00196A11DB11D7FBFBA2F37
:1023E000A92F982F8827860F911DA11DB11D63E08D
:1023F000880F991FAA1FBB1F6A95D1F7BC012DC07A
:10240000FFB7F8948091D6039091D703A091D80399
:10241000B091D903E6B5A89B05C0EF3F19F001962E
:10242000A11DB11DFFBFBA2FA92F982F88278E0F8E
:10243000911DA11DB11DE3E0880F991FAA1FBB1FAD
:10244000EA95D1F7861B970B885E9340C8F221501E
:1024500030404040504068517C4F211531054105C6
:10246000510571F60895019739F0019729F0880F09
:10247000991F01970197F1F70895789484B58260C8
:1024800084BD84B5816084BD85B5826085BD85B518
:10249000816085BDEEE6F0E0808181608083E1E8C7
:1024A000F0E01082808182608083808181608083FF
:1024B000E0E8F0E0808181608083E1EBF0E0808102
:1024C00084608083E0EBF0E0808181608083EAE7D4
:1024D000F0E080818460808380818260808380815D
:1024E000816080838081806880831092C10008951C
:1024F00008951F920F920FB60F9211242F933F93BE
:102500004F938F939F93EF93FF938091C00082FD31
:102510001DC04091C60020911F04309120042F5F00
:102520003F4F2F733070809121049091220428171F
:10253000390771F0E0911F04F0912004E152FC4F43
:1025400040833093200420931F0402C08091C60072
:10255000FF91EF919F918F914F913F912F910F900C
:102560000FBE0F901F901895E0917304F0917404C2
:10257000E05CFF4F8191919120813181821B930B0F
:102580008F739070892B11F00E94781208951F921A
:102590000F920FB60F9211242F933F938F939F9317
:1025A000EF93FF932091630430916404809165045C
:1025B000909166042817390731F48091C1008F7D0E
:1025C0008093C10014C0E0916504F0916604ED5D54
:1025D000FB4F2081809165049091660401968F7372
:1025E000907090936604809365042093C600FF91D9
:1025F000EF919F918F913F912F910F900FBE0F9070
:102600001F901895AF92BF92DF92EF92FF920F93B7
:102610001F93CF93DF93EC017A018B01DD24D394D8
:1026200091E0A92EB12CEC89FD89DD2069F0C5016E
:1026300008A002C0880F991F0A94E2F7808360E81F
:1026400074E88EE190E005C0108260E472E48FE0EF
:1026500090E0A80197010E94991621503040404017
:102660005040569547953795279580E1203038079B
:1026700020F0DD2011F0DD24D6CFE889F989308300
:10268000EA89FB89208319A2EE89FF89408121E034
:1026900030E0C9010C8C02C0880F991F0A94E2F740
:1026A000482B4083EE89FF894081C9010D8C02C00F
:1026B000880F991F0A94E2F7482B4083EE89FF891F
:1026C0004081C9010E8C02C0880F991F0A94E2F75D
:1026D000482B4083EE89FF8980810F8C02C0220F36
:1026E000331F0A94E2F7209528232083DF91CF91AE
:1026F0001F910F91FF90EF90DF90BF90AF900895E2
:10270000DC011C96ED91FC911D97E05CFF4F21913F
:10271000319180819181281B390B2F733070C90151
:102720000895DC011C96ED91FC911D97E05CFF4F34
:1027300020813181E054F040DF01AE5BBF4F8D91CD
:102740009C9111972817390719F42FEF3FEF07C015
:102750008D919C91E80FF91F8081282F30E0C901ED
:102760000895DC011C96ED91FC911D97E05CFF4FF4
:1027700020813181E054F040DF01AE5BBF4F8D918D
:102780009C9111972817390719F42FEF3FEF10C0CC
:102790008D919C911197E80FF91F20818D919C914B
:1027A000119701968F73907011969C938E9330E0E1
:1027B000C9010895DC0191968C919197882339F095
:1027C0005496ED91FC915597808186FFF9CF9196B3
:1027D0001C920895CF93DF93EC01EE85FF85E05CBA
:1027E000FF4F20813181E054F0402F5F3F4F2F7326
:1027F0003070DF01AE5BBF4F8D919C911197281710
:102800003907D1F3E05CFF4F80819181E054F040C3
:10281000E80FF91F6083EE85FF85E05CFF4F318391
:102820002083EE89FF89208181E090E00F8C02C037
:10283000880F991F0A94E2F7282B208381E089A34F
:10284000EC89FD8980818064808381E090E0DF9164
:10285000CF91089510926A041092690488EE93E073
:10286000A0E0B0E080936B0490936C04A0936D049F
:10287000B0936E048FEB91E09093680480936704AB
:102880008FED93E0909374048093730483E294E05B
:10289000909376048093750485EC90E0909378048F
:1028A0008093770484EC90E090937A048093790489
:1028B00080EC90E090937C0480937B0481EC90E02A
:1028C00090937E0480937D0482EC90E0909380044A
:1028D00080937F0486EC90E090938204809381043F
:1028E00084E08093830483E08093840487E0809372
:1028F000850485E08093860481E0809387040895B1
:10290000CF93DF930E943D120E94B20BC4EBD2E141
:102910000E94EA052097E1F30E94B412F9CFCF920A
:10292000DF92EF92FF920F931F93CF93DF937C017F
:102930006B018A01C0E0D0E00FC0D6016D916D013E
:10294000D701ED91FC910190F081E02DC70109952F
:10295000C80FD91F015010400115110571F7CE01A4
:10296000DF91CF911F910F91FF90EF90DF90CF906B
:102970000895DC01ED91FC910190F081E02D099525
:102980000895EF92FF920F931F938C01DC01ED915C
:10299000FC910190F081E02D6DE009957C01D8015A
:1029A000ED91FC910190F081E02DC8016AE009955C
:1029B0009C012E0D3F1DC9011F910F91FF90EF90BB
:1029C0000895EF92FF920F931F937C01DC01ED912C
:1029D000FC910190F081E02D09958C01C7010E94C6
:1029E000C114080F191FC8011F910F91FF90EF909C
:1029F0000895CF93DF93EC016115710519F420E080
:102A000030E00FC0DB010D900020E9F71197A61B05
:102A1000B70BE881F9810280F381E02DAD010995C2
:102A20009C01C901DF91CF9108954F925F927F92EF
:102A30008F929F92AF92BF92CF92DF92EF92FF92CE
:102A40000F931F93DF93CF93CDB7DEB7A1970FB648
:102A5000F894DEBF0FBECDBF2C01742ECB01223007
:102A600008F42AE019A231E2C32ED12CCC0EDD1ECF
:102A7000822E9924AA24BB24672D752FA5019401C9
:102A80000E94991679018A01C801B701A501940134
:102A90000E946616472D461B0894C108D1084A308B
:102AA00014F4405D01C0495CF6014083E114F10477
:102AB0000105110521F07E2C5F2DC801DDCFC2017B
:102AC000B6010E94F914A1960FB6F894DEBF0FBEAE
:102AD000CDBFCF91DF911F910F91FF90EF90DF90CD
:102AE000CF90BF90AF909F908F907F905F904F90CE
:102AF0000895DC012115310541F4ED91FC9101901F
:102B0000F081E02D642F099508950E941515089510
:102B1000EF92FF920F931F937C010E9479158C0115
:102B2000C7010E94C1149C01200F311FC9011F91D0
:102B30000F91FF90EF900895EF92FF920F931F93E4
:102B40009A017B0100E010E0B801A7010E9479150D
:102B50001F910F91FF90EF900895CF92DF92EF9227
:102B6000FF920F931F936C017B019A0100E010E02C
:102B7000B801A7010E9479158C01C6010E94C114F9
:102B8000080F191FC8011F910F91FF90EF90DF9060
:102B9000CF900895CF92DF92EF92FF920F931F9301
:102BA000CF93DF93EC016A017B012115310541F4DC
:102BB000E881F9810190F081E02D642F09951FC013
:102BC0002A303105D1F477FF17C0E881F9810190EF
:102BD000F081E02D6DE209958C0144275527BA015B
:102BE0004C195D096E097F09CE012AE00E94151576
:102BF0009801280F391F04C02AE00E9415159C0176
:102C0000C901DF91CF911F910F91FF90EF90DF905D
:102C1000CF900895EF92FF920F931F937C010E9433
:102C2000CA158C01C7010E94C1149C01200F311FDD
:102C3000C9011F910F91FF90EF900895EF92FF92BD
:102C40000F931F937B019A010027F7FC0095102F2B
:102C5000B801A7010E94CA151F910F91FF90EF9034
:102C60000895CF92DF92EF92FF920F931F936C0122
:102C70007B019A010027F7FC0095102FB801A701EE
:102C80000E94CA158C01C6010E94C114080F191FA9
:102C9000C8011F910F91FF90EF90DF90CF900895A2
:102CA0000E94F9140895EF92FF920F931F937C01F5
:102CB0000E94F9148C01C7010E94C114080F191F4A
:102CC000C8011F910F91FF90EF900895629FD0016E
:102CD000739FF001829FE00DF11D649FE00DF11DD7
:102CE000929FF00D839FF00D749FF00D659FF00D86
:102CF0009927729FB00DE11DF91F639FB00DE11D73
:102D0000F91FBD01CF0111240895AA1BBB1B51E17E
:102D100007C0AA1FBB1FA617B70710F0A61BB70B4B
:102D2000881F991F5A95A9F780959095BC01CD01F0
:102D30000895A1E21A2EAA1BBB1BFD010DC0AA1FFC
:102D4000BB1FEE1FFF1FA217B307E407F50720F014
:102D5000A21BB30BE40BF50B661F771F881F991F8F
:102D60001A9469F760957095809590959B01AC01D8
:102D7000BD01CF010895EE0FFF1F0590F491E02DE6
:062D80000994F894FFCF56
:102D860043757272656E7420636F6E6669677572DD
:102D96006174696F6E3A0020002069002067002088
:102DA600402000204D487A2000636F6E66696720D8
:102DB60073617665206661696C65640044462045EA
:102DC60020004446205320003E2000746573742082
:102DD60000206466232000203A2000723A207061A9
:102DE60067652000444620433F20005220004446A9
:102DF60020522000444620570065726173656400C6
:102E0600203F00204700202D3E2061636B00202DCF
:102E16003E20002062000A5B5246313264656D6FC7
:102E26002E31305F52464D3250695D00444620498E
:102E36002000023B01B1016403930300000000EA95
:0C2E4600138F148013B1139113DA1300E2
:00000001FF
