:100000007BC1ACCA38C560C59CC19BC19AC199C1AE
:1000100098C197C196C1CFCA94C193C192C191C1F1
:1000200090C18EC358C37AC336C335C334C36DC3BE
:1000300032C341C330C32FC396C32DC32CC32BC3BC
:100040002AC395C328C37CC326C325C324C323C3A3
:1000500024C30A417661696C61626C6520636F6DCF
:100060006D616E64733A0A2020313233207820208B
:10007000202020202D20546F67676C6520636F6EF1
:1000800066696775726174696F6E206368616E6717
:10009000652070726F74656374696F6E2C20313DDA
:1000A000556E6C6F636B65640A20203C6E6E3E205B
:1000B0006920202020202D20736574206E6F6465D8
:1000C00020494420287374616E64617264206E6FED
:1000D0006465206964732061726520312E2E32368A
:1000E000290A20203C6E3E20622020202020202D46
:1000F00020736574204D487A2062616E6420283434
:10010000203D203433332C2038203D203836382C05
:100110002039203D20393135290A20203C6E6E6E71
:100120003E2067202020202D20736574206E65748A
:10013000776F726B2067726F7570202852464D3151
:1001400032206F6E6C7920616C6C6F777320323166
:10015000322C2030203D20616E79290A20203C6E0F
:100160003E20632020202020202D207365742063F2
:100170006F6C6C656374206D6F64652028616476B4
:10018000616E6365642C206E6F726D616C6C79209A
:1001900030290A20202E2E2E2C3C6E6E3E2061200F
:1001A0002D2073656E642064617461207061636BDF
:1001B000657420746F206E6F6465203C6E6E3E2CFB
:1001C00020776974682061636B0A20202E2E2E2C04
:1001D0003C6E6E3E2073202D2073656E642064613A
:1001E0007461207061636B657420746F206E6F643E
:1001F00065203C6E6E3E2C206E6F2061636B0A2082
:10020000203C6E3E206C2020202020202D20747564
:10021000726E206163746976697479204C4544205C
:100220006F6E2044494738206F6E206F72206F66D2
:10023000660A0000C201000100050005000300007D
:10024000E1000001000F000F000D00009600000209
:100250000019001A001700127A0000070020002180
:10026000001D00807000000B002300230020000010
:100270004B00001400370037003400403800001EE7
:10028000004B004B004800802500003200720072D5
:10029000007000C01200006E00E900E900E6006096
:1002A000090000E500D801D801D501B0040000D351
:1002B00001B403B403B1032C0100006707DD0EDDB8
:1002C0000EDA0E003A37003B380039360032400271
:1002D000020201010101010101010102048040202B
:1002E00010080402010000010203040000000000E5
:1002F0000000BE01010EB80111241FBECFE5D2E0FF
:10030000DEBFCDBF10E0A0E6B0E0EEE2FDE102C04E
:1003100005900D92A83FB107D9F711E0A8EFB0E022
:1003200001C01D92A53EB107E1F712E0C6EFD2E091
:1003300003C02297FE01CCDCC23FD107D1F784DA9B
:10034000EACC5ECE8130910551F46F5F7F4F79F436
:1003500088EF90E067E043E020E00ED60895892B17
:1003600031F46F5F7F4F19F488EF90E09DD40895CA
:1003700080E090E06FEF7FEFE5DF089581E090E0AF
:100380006FEF7FEFDFDF0895CF93DF9380E290E0A0
:1003900060910A01B2DC81E290E060910B01ADDC7A
:1003A00082E290E060910C01A8DC20910A018FEFBD
:1003B0009FEF8227282F22952827022E2695269503
:1003C0002025022E269520252770082E892F269578
:1003D00007942795902D82270694279590258227AC
:1003E00020910B018227282F22952827022E26955F
:1003F00026952025022E269520252770082E892F48
:10040000269507942795902D822706942795902569
:10041000822720910C018227282F22952827022E3F
:10042000269526952025022E269520252770082E14
:10043000892F269507942795902D82270694279536
:100440009025822790930E0180930D01C3E2D0E0A6
:10045000CE0160E052DC80910D0190910E01BC0153
:1004600080E06827862F82958627082E86958695B8
:100470008025082E869580258770062E672F869505
:1004800007948795702D68270694879570256827AF
:1004900070930E0160930D012196CE33D105C1F604
:1004A0008EE390E02ADC60910E018FE390E025DC82
:1004B00081E0DAD7882329F488EF90E060E670E0E5
:1004C00053DBDF91CF9108951F93CF93DF93C2E564
:1004D000D0E0FE0121961491112379F01A3031F405
:1004E00088EF90E06DE040E050E0FCDA88EF90E0CB
:1004F000612F40E050E0F6DAECCF88EF90E063E760
:1005000070E032DB80E290E0F0DB182F80930A018C
:1005100081E290E0EADB80930B0182E290E0E5DB90
:1005200080930C011F71612F70E0605C7F4F88EF3A
:1005300090E04AE050E0C4DA88EF90E06AE870E0CA
:10054000BED988EF90E0612F4AE050E074DA8091E4
:100550000A0185FF06C088EF90E06AE240E050E0C3
:10056000C1DA88EF90E06DE870E0A9D988EF90E0FB
:1005700060910B014AE050E05EDA88EF90E060E9BC
:1005800070E09DD9E0910A01F0E096E0F595E795DD
:100590009A95E1F7EE0FFF1FEC53FF4F60817181D9
:1005A00088EF90E04AE050E036DA88EF90E064E9C6
:1005B00070E085D988EF90E06AE970E080D988EF33
:1005C00090E060910C014AE050E0B6DA81E04CD74F
:1005D000DF91CF911F9108951F93182F88E061E05C
:1005E000A0D888E0612FC1D81F9108951F93CF93A1
:1005F000DF9388EF90E081D3892B09F4CBC088EF9B
:1006000090E05AD3182F80538A3058F480912601F5
:1006100090E06AE070E0FFDA8053810F809326015A
:10062000B9C01C3289F490912701943150F4E92F1C
:10063000F0E0E85DFE4F8091260180839F5F9093FC
:10064000270110922601A6C0812F81568A3108F019
:100650009EC088EF90E062EA70E031D96091260197
:1006600088EF90E070E04AE050E02ADA88EF90E00E
:10067000612F40E050E081DA812F992787FD909526
:10068000A92FB92FFC01E156F040E831F10518F42B
:10069000EF5EFF4F099418DF6EC0809126018B3703
:1006A00009F069C090E080910C01882309F491E081
:1006B00090930C010EC080910C01882309F45BC05B
:1006C000909126019F7180910A01807E980F9093EE
:1006D0000A015ADE50C080910C01882309F44BC0F6
:1006E00080912601883011F492E005C0893011F024
:1006F00091E001C093E0909326019295990F990F94
:10070000907C80910A018F73E1CF80910C01882346
:1007100091F18091260180930B01DBCF80910C0138
:10072000882349F180912601882321F080910A01D4
:10073000806203C080910A018F7D80930A01C9CF36
:1007400010930F01409127014093100180912601E1
:100750008093110122E131E0E8E2F1E0C901BF013B
:1007600050E0BADA08C08091260136DF04C08091DB
:10077000260180933C01109227011092260184E10A
:10078000E8E2F1E0DF011D928A95E9F703C011323A
:100790000CF09ADEF1D4209181013091820190E039
:1007A00040E050E0232B11F441E050E084239523F6
:1007B000892B09F467C081E00FDF109185018091DA
:1007C0000B01882369F488EF90E065EA70E077D840
:1007D0006091830188EF90E070E04AE050E070D9CA
:1007E00088EF90E060E240E050E07CD960918401C5
:1007F00088EF90E070E04AE050E062D9C0E0D0E0DD
:1008000011C088EF90E060E240E050E06BD9FE015B
:10081000EA57FE4F608188EF90E070E04AE050E0D8
:100820004FD92196C11768F388EF90E06ED980E028
:10083000D3DE8091810190918201892B19F581E0AD
:10084000CBDE8091840185FF1BC08091840187FDF0
:1008500017C080910A0185FD13C088EF90E068EA17
:1008600070E082D98091840186FF02C080E804C0D4
:10087000809184018F71806C60E070E040E066D50B
:1008800080E0AADE80910F01882369F103D58823D7
:1008900051F181E0A1DE88EF90E060EB70E00FD8CD
:1008A0006091100188EF90E070E04AE050E008D9D4
:1008B00088EF90E065EB70E057D980910F018136A9
:1008C00011F080E001C080E290911101992311F0B4
:1008D0009064892B62E171E04091100137D510924C
:1008E0000F0180E079DEDF91CF911F91089581E0C3
:1008F00073DE87E060E015D783E061E012D788EF10
:1009000090E040E855E260E070E007D188EF90E0C9
:1009100068EB70E0D4D760ED77E080E090E0BBD684
:1009200081E0A2D5882381F080E290E0DED9809337
:100930000A0181E290E0D9D980930B0182E290E034
:10094000D4D980930C010DC081E880930A0182ED17
:1009500080930B0181E080930C0162E042ED1DD594
:1009600013DDB2DD80E038DE0895FC0180913D01A9
:1009700090913E018E179F0711F480E008958189C0
:100980008E7F818B9FB7F89410927F0180917F01B9
:1009900080938001F0933E01E0933D019FBF81E091
:1009A00008950F931F93CF93DF93FC018189A48156
:1009B000B5819381082F027081FF05C08C91892336
:1009C00009F454C004C08C91892309F04FC081857B
:1009D000928520E001972FEF8F3F9207D9F7C385CB
:1009E000D485A481B581738160E031E040E050E0BE
:1009F00010E0CE01212F01972FEF8F3F9207D9F7FB
:100A00008C91872311F0632B03C0832F809568237B
:100A1000330F4F5F5F4F4830510559F785859685F5
:100A200020E001972FEF8F3F9207D9F701116095D2
:100A300080917F012091800190E001968F739070EA
:100A400030E08217930779F0E0917F01F0E0E15CFC
:100A5000FE4F608380917F0190E001968F739070CC
:100A600080937F0103C081898160818BDF91CF9169
:100A70001F910F9108951F920F920FB60F9211249C
:100A80002F933F934F935F936F937F938F939F9396
:100A9000AF93BF93EF93FF9380913D0190913E01FF
:100AA000009709F07EDFFF91EF91BF91AF919F9189
:100AB0008F917F916F915F914F913F912F910F9007
:100AC0000FBE0F901F9018951F920F920FB60F92A6
:100AD00011242F933F934F935F936F937F938F9343
:100AE0009F93AF93BF93EF93FF9380913D019091BC
:100AF0003E01009709F055DFFF91EF91BF91AF9153
:100B00009F918F917F916F915F914F913F912F9125
:100B10000F900FBE0F901F901895CF92DF92EF921B
:100B2000FF920F931F93CF93DF938C016A017B0198
:100B3000FC01108A1786168615861486138612867F
:100B4000118620E030E0C9016CE070E064D8EC016F
:100B5000FC01ED5CFD4F85919591A591B4918C15AB
:100B60009D05AE05BF0549F5C90163E070E053D8A6
:100B7000FC01EE0FFF1FEE0FFF1FE95CFD4F85919B
:100B80009491F80192878187FE01E75CFD4F859182
:100B90009491F80194878387FE01E55CFD4F859170
:100BA0009491F80196878587FE01E35CFD4F85915E
:100BB0009491F801908B878706C02F5F3F4F2C30B0
:100BC000310509F0C0CFF80185859685892B09F498
:100BD00037C042814B3058F59BB7433010F480E268
:100BE00001C080E1892B8BBF433028F0E2E3F0E0C5
:100BF000A2E3B0E004C0E0E4F0E0A0E4B0E05081A3
:100C0000433040F481E090E002C0880F991F4A957C
:100C1000E2F70BC02AE030E0241B310981E090E0CC
:100C200002C0880F991F2A95E2F7852B8C93F80153
:100C30008785908920E001972FEF8F3F9207D9F7A2
:100C4000C80193DEDF91CF911F910F91FF90EF903C
:100C5000DF90CF900895FC0142814B3020F5433066
:100C600028F0E2E3F0E0A2E3B0E004C0E0E4F0E06A
:100C7000A0E4B0E05081433040F481E090E002C055
:100C8000880F991F4A95E2F70BC02AE030E0241B39
:100C9000310981E090E002C0880F991F2A95E2F7A0
:100CA000809585238C930895FC0180ED90E09183DD
:100CB0008083CF01D0DF089520913D0130913E0126
:100CC0002817390731F49091800180917F0198179E
:100CD00019F42FEF3FEF0FC0E0918001F0E0E15CED
:100CE000FE4F20818091800190E001968F7390707B
:100CF0008093800130E0C901089520913D01309139
:100D00003E012817390719F020E030E00DC080912E
:100D10007F012091800190E0805C9F4F821B9109B0
:100D200060E470E09ED79C01C90108950F931F9362
:100D3000DC011F968D919C915097892B19F420E02E
:100D400030E097C00FB7F89451968C915197179651
:100D5000ED91FC91189716962C91169781FF8DC0F6
:100D60008081822B80831F968D919C915097049651
:100D700020E001972FEF8F3F9207D9F751968C9182
:100D8000519781FF35C031E040E050E070E010E065
:100D9000832F90E0862397231796ED91FC91189767
:100DA00016962C911697892B29F08081209528235F
:100DB000208303C08081822B80831F968D919C911C
:100DC0005097212F01972FEF8F3F9207D9F7330FBD
:100DD0004F5F5F4F48305105D9F61796ED91FC9162
:100DE0001897908116968C9116978095892333C019
:100DF00031E040E050E070E010E0832F90E0862387
:100E000097231796ED91FC91189716962C911697AB
:100E1000892B21F08081822B808304C080812095E2
:100E2000282320831F968D919C915097212F019705
:100E30002FEF8F3F9207D9F7330F4F5F5F4F483047
:100E40005105D9F61796ED91FC9118978081169669
:100E50009C911697892B80830FBF1F968D919C9133
:100E6000509720E001972FEF8F3F9207D9F721E0AD
:100E700030E0C9011F910F910895808120952823AA
:100E8000208371CF20913D0130913E012817390711
:100E900049F49FB7F89410927F0180917F0180936D
:100EA00080019FBF089520913D0130913E01281798
:100EB000390731F49091800180917F01981719F4DE
:100EC0002FEF3FEF0AC0E0918001F0E0E15CFE4FC0
:100ED0008081282F332727FD3095C90108951F935E
:100EE000CF93DF93EC01162F862F60E01AD4898907
:100EF00081FD03C0812F61E038D41A83212F30E0B7
:100F0000C90186529D4FFC0184918B8321533D4F33
:100F1000F9016491E62FF0E0E753FD4FE491EC8393
:100F20001D82DF91CF911F910895FF920F931F9320
:100F30008C01F62E862F61E0F4D38F2D61E015D45D
:100F40008F2D90E0FC01E652FD4FE491D8011696FA
:100F5000EC93169781539D4FFC016491E6ECF2E00F
:100F6000E60FF11DE4911796EC93179718961C92D3
:100F70001F910F91FF900895FF920F931F938C0183
:100F8000F62E80ED90E0F801918380831286118621
:100F90001486138616861586108A17868189217015
:100FA000220F8C7F822B818BC801642FBEDFC8018A
:100FB0006F2D95DF1F910F91FF900895C1989FB9F4
:100FC00090E031E123E13DB92DB99F5F9830D9F729
:100FD0003FB18FB980E021E193E12DB99DB98F5FD9
:100FE0008830D9F72FB1932F80E0C19A30E0282BB9
:100FF000392BC901089580E090E0E0DF8091D101B4
:10100000853009F052C080E090EBD8DF282F809126
:10101000D301882371F49091D201992351F08091EA
:10102000D301E82FF0E0ED57FE4F90838F5F809360
:10103000D3018091D301E82FF0E0ED57FE4F2083DC
:101040008F5F8093D30180918101909182018227EB
:10105000282F22952827022E269526952025022E18
:10106000269520252770082E892F269507942795E9
:10107000902D8227069427959025822790938201B0
:1010800080938101809185012091D30190E00496A5
:1010900030E0821793072CF08091D301873408F455
:1010A0006AC08DE092E88ADF08958091D10187FFC0
:1010B0002EC0E09185018091D1018F5F8093D10195
:1010C0008150ED5FE80FF0E0ED57FE4FE081809139
:1010D0008101909182018E27282F22952827022EA8
:1010E000269526952025022E269520252770082E48
:1010F000892F269507942795902D8227069427956A
:101100009025822790938201809381012FC0809146
:10111000D1018F5F8093D1018150833019F18430E8
:101120002CF4882399F0813001F516C0893019F02C
:101130008A30D9F402C0EDE219C0E091D201909159
:1011400085018EEF891B8093D10110C080918101B0
:1011500090918201E82F0AC08091810190918201D3
:10116000E92F04C08DE092E829DFEAEA8E2F90E0B3
:101170008050984423DF08958091D101853009F093
:1011800042C0809185012091D30190E0049630E027
:101190008217930724F08091D3018734A0F184E073
:1011A0008093D10180918501833430F081E090E01B
:1011B00090938201809381018091840186FF12C007
:1011C0008091D001282F30E0C9018F7190704F9726
:1011D00049F08091840190E0822793278F7190706D
:1011E000892B89F48091810190918201892B09F0EA
:1011F00043C0E091CE01F091CF01309709F43CC09B
:1012000080E0099545C08091D101843011F080E0E3
:10121000089510928501809185018093D3018FEF0D
:101220009FEF90938201809381012091D20122232C
:10123000D9F08227282F22952827022E2695269539
:101240002025022E269520252770082E892F2695E9
:1012500007942795902D822706942795902582271D
:10126000909382018093810185E08093D1018DED7F
:1012700092E8A4DE80E008958FEF9FEFAFEFBFEF1D
:101280008093CA019093CB01A093CC01B093CD0180
:1012900081E008958091D1018530B1F48091D3012E
:1012A000882391F41FB821E193E12DB99DB98F5F97
:1012B0008830D9F7789908C08DE092E87FDE84E025
:1012C0008093D10181E0089580E00895982F86FDF4
:1012D00005C0907E8091D0018F71980F909384010A
:1012E000E091CE01F091CF01309711F081E00995A6
:1012F0008FEF9FEF90938201809381018091810114
:10130000909182012091D2018227282F22952827AF
:10131000022E269526952025022E2695202527701B
:10132000082E892F269507942795902D82270694BD
:10133000279590258227909382018093810186E0F2
:101340008093D1018DE392E839DE08951F93182F21
:101350004093850126E831E0C90150E0BDD4812FDA
:10136000B5DF1F910895C19AB99A81E061E0FDD17E
:1013700081E061E0D6D185E061E0D3D184E060E036
:10138000D0D186E061E0CDD180E18DB982E060E02E
:10139000C8D182E061E0E9D108951F93162F8093B0
:1013A000D0014093D201DFDF80E090E007DE85E0EE
:1013B00092E804DE80E098EB02C080E090E0FEDD81
:1013C00082E00DD2892BC9F3812F90E064E0880F71
:1013D000991F6A95E1F7876C9068F0DD80E496EAE2
:1013E000EDDD86E096ECEADD82EA94E9E7DD8CEA61
:1013F00092ECE4DD1091D201112339F083E89AECEC
:10140000DDDD812F90E09E6C05C08BE89AECD6DD87
:101410008DE29EECD3DD83E894ECD0DD80E598E9A5
:10142000CDDD87E79CECCADD80E090EEC7DD80E093
:1014300098ECC4DD89E490ECC1DD84E08093D101B7
:101440008091D00190E08F719070892B39F080E00D
:101450006BEF77E040E050E066D002C080E074D0EF
:101460008091D0011F910895FF920F931F93CF9306
:10147000DF93F82E0FEF1FEFC0E2D0E0CE0135D49E
:101480000827802F82958027082E869586958025AF
:10149000082E869580258770002E012F869507944B
:1014A0008795102D082706948795102508272196E3
:1014B000C034D10519F7012B11F080E02EC010E0E7
:1014C00000E0C0E0D0E0CE0180960FD4682FCC239E
:1014D00011F4162F0DC0C13011F4062F09C0662378
:1014E00059F0FF2029F08FED91E040E050E0FAD272
:1014F0002196CE31D10539F7FF2019F08FED91E01B
:1015000004D3612F70E0E6E075956795EA95E1F701
:10151000812F402F42DF812F8F71DF91CF911F915B
:101520000F91FF900895882371F48FB7F89470930A
:10153000D5016093D4018FBF85B78C7F842B85BF85
:101540008BB780648BBF0895882339F48BB78F7B6A
:101550008BBF1092D5011092D40108951F920F9263
:101560000FB60F9211242F933F934F935F936F9376
:101570007F938F939F93AF93BF93EF93FF9380914C
:10158000D4019091D501892B29F0E091D401F091FB
:10159000D5010995FF91EF91BF91AF919F918F91E7
:1015A0007F916F915F914F913F912F910F900FBE5F
:1015B0000F901F9018951F920F920FB60F92112443
:1015C0002F933F938F939F93AF93BF938091DA01B3
:1015D0009091DB01A091DC01B091DD013091DE0141
:1015E000232F2A5F2D3728F02D570396A11DB11DFB
:1015F00003C00296A11DB11D2093DE018093DA0184
:101600009093DB01A093DC01B093DD018091D601C2
:101610009091D701A091D801B091D9010196A11D57
:10162000B11D8093D6019093D701A093D801B093B8
:10163000D901BF91AF919F918F913F912F910F90C1
:101640000FBE0F901F9018959FB7F8942091D60168
:101650003091D7014091D8015091D90182B708B695
:1016600000FE06C08F3F21F02F5F3F4F4F4F5F4F6F
:101670009FBF542F432F322F2227280F311D411D8A
:10168000511D83E0220F331F441F551F8A95D1F748
:10169000B901CA010895EF92FF920F931F93CF9360
:1016A000DF937B018C01D0DFEB010DC0CDDF6C1B24
:1016B0007D0B685E7340D0F30894E108F1080109DE
:1016C0001109C851DC4FE114F1040105110571F74E
:1016D000DF91CF911F910F91FF90EF900895789433
:1016E00080B7836080BF83B7877F83BF83B7887FDE
:1016F000836083BF89B7816089BF8EB5887F8EBDC7
:101700008FB58C7F81608FBD8EB5877E8EBD8EB587
:10171000887F83608EBD86B1887F866086B9379A60
:101720000895482F50E0CA0186529D4FFC01249134
:1017300041535D4FFA0184918823B1F0E82FF0E026
:10174000ED53FD4FE491F0E0662341F49FB7F89428
:1017500080812095822380839FBF08959FB7F8944E
:101760008081822B80839FBF0895282F482F50E0CF
:10177000CA0186529D4FFC01349141535D4FFA01DD
:101780009491992359F1223019F480B78F7304C0D2
:10179000233021F480B78F7C80BF0AC0243019F435
:1017A0008FB58F7304C0253019F48FB58F7C8FBD32
:1017B000E92FF0E0EA53FD4FE491F0E0662341F4B5
:1017C0009FB7F89480813095832380839FBF0895CD
:1017D0009FB7F8948081832B80839FBF0895282F23
:1017E000482F50E0CA0186529D4FFC01949141530D
:1017F0005D4FFA013491332319F420E030E022C028
:10180000223019F480B78F7304C0233021F480B7DD
:101810008F7C80BF0AC0243019F48FB58F7304C049
:10182000253019F48FB58F7C8FBDE32FF0E0E7539F
:10183000FD4FE491F0E0808120E030E0892311F059
:1018400021E030E0C90108954ADF51D8CFD6FECF5C
:101850000F931F93CF93DF938C01EB0109C0219667
:10186000D801ED91FC910190F081E02DC80109951E
:1018700068816623A1F7DF91CF911F910F910895A1
:10188000EF92FF920F931F93CF93DF938C017B0115
:10189000EA010CC0D7016D917D01D801ED91FC9159
:1018A0000190F081E02DC80109952197209791F7CB
:1018B000DF91CF911F910F91FF90EF900895DC0180
:1018C000ED91FC910280F381E02D099508952F920E
:1018D0003F924F925F926F927F928F929F92AF92C0
:1018E000BF92CF92DF92EF92FF920F931F93DF93FD
:1018F000CF93CDB7DEB7A0970FB6F894DEBF0FBE7B
:10190000CDBF1C016A017B014115510561057105BF
:1019100041F440E350E060E070E020E030E09CD033
:1019200053C0882499245401422E552466247724D8
:1019300001E010E00C0F1D1F080D191DC701B601B5
:10194000A3019201A1D1F80160830894811C911C2C
:10195000A11CB11CC701B601A301920195D1C90117
:10196000DA016C017D01C114D104E104F10401F735
:1019700081E0E82EF12CEC0EFD1EE80CF91C3E0176
:101980000894611C711CD501C4010197A109B1091A
:101990006C01C818D90815C0F601EE0DFF1D408175
:1019A0004A3010F4405D01C0495C552747FD509511
:1019B000652F752FC10120E030E04ED00894E1087A
:1019C000F1086E147F0441F7A0960FB6F894DEBFBD
:1019D0000FBECDBFCF91DF911F910F91FF90EF9080
:1019E000DF90CF90BF90AF909F908F907F906F903F
:1019F0005F904F903F902F900895DC0121153105A5
:101A000041F4ED91FC910190F081E02D642F099556
:101A100008955DDF0895EF92FF920F931F939A014F
:101A20007B0100E010E0B801A701E7DF1F910F91F3
:101A3000FF90EF900895EF92FF920F931F939A01FA
:101A4000E62EFF2400E010E0B801A701D6DF1F91C9
:101A50000F91FF90EF900895EF92FF920F931F93D5
:101A6000CF93DF93EC017A018B012115310541F40D
:101A7000E881F9810190F081E02D642F099519C06A
:101A80002A303105A9F477FF0FC04DE250E060E045
:101A900070E020E030E0E0DF10950095F094E094F5
:101AA000E11CF11C011D111DCE01B801A7012AE0A6
:101AB0000EDFDF91CF911F910F91FF90EF9008956E
:101AC000EF92FF920F931F937B019A010027F7FC7F
:101AD0000095102FB801A701BFDF1F910F91FF9054
:101AE000EF900895EF92FF920F931F93E62E9A01C5
:101AF000FF24E7FCF0940F2D1F2DB801A701ACDFE8
:101B00001F910F91FF90EF9008950F931F938C01F9
:101B10004DE050E060E070E020E030E09DDFC80183
:101B20004AE050E060E070E020E030E095DF82E0E5
:101B300090E01F910F910895CF92DF92EF92FF9264
:101B40000F931F938C019A01C62EDD24EE24FF24EF
:101B5000B701A60152DFC801D8DF1F910F91FF9096
:101B6000EF90DF90CF9008950F931F938C01A7DE25
:101B7000C801CBDF1F910F910895CF92DF92EF92B2
:101B8000FF920F931F938C01C62E9A01DD24C7FC90
:101B9000D094ED2CFD2CB701A6015EDFC801B5DFA6
:101BA0001F910F91FF90EF90DF90CF9008950895CF
:101BB000089580E090E008958FEF9FEF08958FEFF4
:101BC0009FEF08950895FC01A281B381ED91FC91EE
:101BD00011970280F381E02DCD01099581E090E01D
:101BE000089523EE31E0FC0133832283C901DFDF56
:101BF0000895FC018AEE90E091838083CF01F1DFAC
:101C0000089582EE90E09093E4018093E3018FEDDC
:101C100091E0EFDF08955527002480FF02C0060EF3
:101C2000571F660F771F6115710521F096958795EF
:101C3000009799F7952F802D0895AA1BBB1B51E1A2
:101C400007C0AA1FBB1FA617B70710F0A61BB70B2C
:101C5000881F991F5A95A9F780959095BC01CD01D1
:101C6000089597FB092E07260AD077FD04D0E5DFFB
:101C700006D000201AF4709561957F4F0895F6F70D
:101C8000909581959F4F0895A1E21A2EAA1BBB1B28
:101C9000FD010DC0AA1FBB1FEE1FFF1FA217B30738
:101CA000E407F50720F0A21BB30BE40BF50B661F4E
:101CB000771F881F991F1A9469F760957095809512
:101CC00090959B01AC01BD01CF010895EE0FFF1F60
:101CD0000590F491E02D0994FB01DC0102C0019014
:101CE0000D9241505040D8F70895E199FECF9FBB27
:101CF0008EBBE09A99278DB30895262FE199FECFE8
:101D00001CBA9FBB8EBB2DBB0FB6F894E29AE19A2A
:101D10000FBE0196089512E0C6EFD2E003C0FE01A7
:0E1D2000D7DF2296C83FD107D1F7F894FFCF46
:101D2E00636F6E6669672073617665206661696CA4
:101D3E0065640043757272656E7420636F6E6669BA
:101D4E006775726174696F6E3A00206900206700D2
:101D5E0020402000204D487A2000204C6F636B3AC3
:101D6E0020003E2000472000202D3E2061636B00A6
:101D7E00202D3E20002062000A5B52464D325069F3
:101D8E005D0A0D003B01B1016403930300000000E6
:101D9E009606280C400C7D065C0653074207000091
:101DAE000000D70DD80D00000000E30D280C400CEC
:081DBE00D90DDF0DDC0DE20D73
:00000001FF
