:10000000A1C1D2CA56C57EC5C2C1C1C1C0C1BFC18E
:10001000BEC1BDC1BCC1F5CABAC1B9C1B8C1B7C1C1
:10002000B6C19DC367C389C345C344C343C37CC32F
:1000300041C350C33FC33EC3A5C33CC33BC33AC344
:1000400039C3A4C337C38BC335C334C333C332C32B
:1000500033C30A417661696C61626C6520636F6DC0
:100060006D616E64733A0A2020313233207820208B
:10007000202020202D20546F67676C6520636F6EF1
:1000800066696775726174696F6E206368616E6717
:10009000652070726F74656374696F6E2C20313DDA
:1000A000556E6C6F636B65640A20203C6E6E3E205B
:1000B0006920202020202D20736574206E6F6465D8
:1000C00020494420287374616E64617264206E6FED
:1000D0006465206964732061726520312E2E32368A
:1000E000290A20203C6E3E20622020202020202D46
:1000F00020736574204D487A2062616E6420283434
:10010000203D203433332C2038203D203836382C05
:100110002039203D20393135290A20203C6E6E6E71
:100120003E2067202020202D20736574206E65748A
:10013000776F726B2067726F7570202852464D3151
:1001400032206F6E6C7920616C6C6F777320323166
:10015000322C2030203D20616E79290A20203C6E0F
:100160003E20632020202020202D207365742063F2
:100170006F6C6C656374206D6F64652028616476B4
:10018000616E6365642C206E6F726D616C6C79209A
:1001900030290A20202E2E2E2C3C6E6E3E2061200F
:1001A0002D2073656E642064617461207061636BDF
:1001B000657420746F206E6F6465203C6E6E3E2CFB
:1001C00020776974682061636B0A20202E2E2E2C04
:1001D0003C6E6E3E2073202D2073656E642064613A
:1001E0007461207061636B657420746F206E6F643E
:1001F00065203C6E6E3E2C206E6F2061636B0A2082
:10020000203C6E3E206C2020202020202D20747564
:10021000726E206163746976697479204C4544205C
:100220006F6E2044494738206F6E206F72206F66D2
:10023000660A003E2000636F6E666967206661692A
:100240006C656400204C6F636B3A2000204D487A47
:100250002000204020002067002069004375727252
:10026000656E7420636F6E66696775726174696F1D
:100270006E3A0A000A5B52464D3250695D0A000030
:10028000C20100010005000500030000E1000001BB
:10029000000F000F000D0000960000020019001A68
:1002A000001700127A00000700200021001D0080C6
:1002B0007000000B00230023002000004B000014FE
:1002C00000370037003400403800001E004B004B60
:1002D000004800802500003200720072007000C0EB
:1002E0001200006E00E900E900E60060090000E588
:1002F00000D801D801D501B0040000D301B403B483
:1003000003B1032C0100006707DD0EDD0EDA0E00DD
:100310003A37003B38003936003240020202010110
:1003200001010101010101020480402010080402C2
:100330000100000102030400000000000000E401CD
:10034000270EDE0111241FBECFE5D2E0DEBFCDBFF8
:1003500010E0A0E6B0E0EAE7FDE102C005900D92F2
:10036000AA3AB107D9F711E0AAEAB0E001C01D929C
:10037000A739B107E1F713E0C2E4D3E003C0229745
:10038000FE01CCDCCE33D107D1F784DAEACC38CE0B
:100390008130910551F46F5F7F4F79F48AEA90E0E4
:1003A00067E043E020E006D60895892B31F46F5FC3
:1003B0007F4F19F48AEA90E095D4089580E090E0A8
:1003C0006FEF7FEFE5DF089581E090E06FEF7FEF63
:1003D000DFDF08951F93CF93DF93EC01FE01219699
:1003E0001491112379F01A3031F48AEA90E06DE02B
:1003F00040E050E09DDB8AEA90E0612F40E050E071
:1004000097DBECCFDF91CF911F910895CF93DF93CE
:1004100080E290E06091BC0096DC81E290E0609127
:10042000BD0091DC82E290E06091BE008CDC209106
:10043000BC008FEF9FEF8227282F22952827022EBE
:10044000269526952025022E269520252770082EF4
:10045000892F269507942795902D82270694279516
:10046000902582272091BD008227282F22952827BA
:10047000022E269526952025022E269520252770CA
:10048000082E892F269507942795902D822706946C
:100490002795902582272091BE008227282F22951C
:1004A0002827022E269526952025022E26952025E2
:1004B0002770082E892F269507942795902D82273F
:1004C00006942795902582279093C0008093BF00C3
:1004D000C3E2D0E0CE0160E036DC8091BF009091B5
:1004E000C000BC0180E06827862F82958627082EF1
:1004F000869586958025082E869580258770062E00
:10050000672F869507948795702D682706948795A1
:10051000702568277093C0006093BF002196CE338A
:10052000D105C1F68EE390E00EDC6091C0008FE350
:1005300090E009DC81E0BED7882319F486E392E0DD
:1005400049DFDF91CF9108951F9382E590E042DF6C
:100550008CE592E03FDF80E290E0EDDB182F8093A6
:10056000BC0081E290E0E7DB8093BD0082E290E096
:10057000E2DB8093BE001F71612F70E0605C7F4FF3
:100580008AEA90E04AE050E0C1DA89E592E022DFB1
:100590008AEA90E0612F4AE050E073DA8091BC0073
:1005A00085FF05C08AEA90E060E670E0AED986E596
:1005B00092E010DF8AEA90E06091BD004AE050E0EE
:1005C00060DA82E592E006DFE091BC00F0E096E0C0
:1005D000F595E7959A95E1F7EE0FFF1FEB58FF4F62
:1005E000608171818AEA90E04AE050E03ADA8CE476
:1005F00092E0F0DE84E492E0EDDE8AEA90E0609141
:10060000BE004AE050E0BEDA81E054D71F91089561
:100610001F93182F88E061E0AAD888E0612FCBD81B
:100620001F9108951F93182F80538A3058F480919A
:10063000D80090E06AE070E014DB180F10531093BC
:10064000D800B7C01C3289F49091D900943150F48D
:10065000E92FF0E0E652FF4F8091D80080839F5F42
:100660009093D9001092D800A4C0812F81568A316E
:1006700008F09CC083E392E0ADDE6091D8008AEA86
:1006800090E070E04AE050E041DA8AEA90E0612FC1
:1006900040E050E098DA812F992787FD9095A92FA7
:1006A000B92FFC01E156F040E831F10518F4EF5E96
:1006B000FF4F099449DF6EC08091D8008B3709F055
:1006C00069C090E08091BE00882309F491E0909386
:1006D000BE000EC08091BE00882309F45BC09091DB
:1006E000D8009F718091BC00807E980F9093BC00D1
:1006F0008DDE50C08091BE00882309F44BC08091EC
:10070000D800883011F492E005C0893011F091E0F2
:1007100001C093E09093D8009295990F990F907C27
:100720008091BC008F73E1CF8091BE00882391F14E
:100730008091D8008093BD00DBCF8091BE008823DC
:1007400049F18091D800882321F08091BC0080621B
:1007500003C08091BC008F7D8093BC00C9CF1093F3
:10076000C1004091D9004093C2008091D80080938D
:10077000C30024EC30E0EAEDF0E0C901BF0150E035
:10078000D1DA08C08091D80043DF04C08091D8003E
:100790008093EE001092D9001092D80084E1EAED27
:1007A000F0E0DF011D928A95E9F703C011320CF0E9
:1007B000CBDE1F9108950F931F93CF93DF938AEAA7
:1007C00090E0B9D2892B21F08AEA90E093D22ADF17
:1007D000F9D4882309F46BC08091330190913401DE
:1007E000892B09F064C00091370181E011DF80910D
:1007F000360185FF20C08091360187FD1CC08091A5
:10080000BC0085FD18C010E06BD5882309F081C0BD
:100810001A3009F47EC0D6D41F5FF6CF809136011E
:100820008F71806C60E070E040E0B6D58AEA90E0BD
:1008300062E670E0BFD98091BD00882369F48AEA3E
:1008400090E06AE670E061D8609135018AEA90E054
:1008500070E04AE050E05AD98AEA90E060E240E075
:1008600050E066D96091360170E06F7170708AEA6D
:1008700090E04AE050E04AD9C0E0D0E011C08AEAF6
:1008800090E060E240E050E053D9FE01E85CFE4FAA
:1008900060818AEA90E070E04AE050E037D9219622
:1008A000C01768F38AEA90E056D980E0B1DE809103
:1008B000C1008823A1F114D5882389F181E0A8DE45
:1008C0008AEA90E06DE670E020D86091C2008AEA82
:1008D00090E070E04AE050E019D98AEA90E062E7DF
:1008E00070E068D98091C100813611F080E001C0CC
:1008F00080E29091C300992311F09064892B64ECFD
:1009000070E04091C20048D51092C10080E080DEC6
:1009100006C08091360186FF81CF80E883CFDF91CA
:10092000CF911F910F91089581E072DE87E060E022
:100930001ED783E061E01BD78AEA90E040E855E2E9
:1009400060E070E008D184E792E044DD81E0B2D558
:10095000882381F080E290E0EED98093BC0081E2B0
:1009600090E0E9D98093BD0082E290E0E4D98093E1
:10097000BE000DC081E88093BC0082ED8093BD0075
:1009800081E08093BE0062E042ED2DD53FDDDCDDED
:1009900060ED77E080E090E0A4D689E490EC49D364
:1009A00080E036DE0895FC018091EF009091F00028
:1009B0008E179F0711F480E0089581898E7F818BC7
:1009C0009FB7F894109231018091310180933201E8
:1009D000F093F000E093EF009FBF81E008950F9344
:1009E0001F93CF93DF93FC018189A481B58193810B
:1009F000082F027081FF05C08C91892309F454C02F
:100A000004C08C91892309F04FC08185928520E034
:100A100001972FEF8F3F9207D9F7C385D485A48123
:100A2000B581738160E031E040E050E010E0CE013C
:100A3000212F01972FEF8F3F9207D9F78C918723B2
:100A400011F0632B03C0832F80956823330F4F5F12
:100A50005F4F4830510559F78585968520E001970D
:100A60002FEF8F3F9207D9F70111609580913101E7
:100A70002091320190E001968F73907030E08217E0
:100A8000930779F0E0913101F0E0EF50FF4F608380
:100A90008091310190E001968F73907080933101C5
:100AA00003C081898160818BDF91CF911F910F916C
:100AB00008951F920F920FB60F9211242F933F9318
:100AC0004F935F936F937F938F939F93AF93BF9356
:100AD000EF93FF938091EF009091F000009709F061
:100AE0007EDFFF91EF91BF91AF919F918F917F91A9
:100AF0006F915F914F913F912F910F900FBE0F908B
:100B00001F9018951F920F920FB60F9211242F93DA
:100B10003F934F935F936F937F938F939F93AF9385
:100B2000BF93EF93FF938091EF009091F0000097B7
:100B300009F055DFFF91EF91BF91AF919F918F9198
:100B40007F916F915F914F913F912F910F900FBEC9
:100B50000F901F901895CF92DF92EF92FF920F9314
:100B60001F93CF93DF938C016A017B01FC01108AF4
:100B7000178616861586148613861286118620E03F
:100B800030E0C9016CE070E06CD8EC01FC01E15888
:100B9000FD4F85919591A591B4918C159D05AE055C
:100BA000BF0549F5C90163E070E05BD8FC01EE0FB9
:100BB000FF1FEE0FFF1FED57FD4F85919491F80138
:100BC00092878187FE01EB57FD4F85919491F80143
:100BD00094878387FE01E957FD4F85919491F80131
:100BE00096878587FE01E757FD4F85919491F8011F
:100BF000908B878706C02F5F3F4F2C30310509F05F
:100C0000C0CFF80185859685892B09F437C04281CC
:100C10004B3058F59BB7433010F480E201C080E1BF
:100C2000892B8BBF433028F0E2E3F0E0A2E3B0E091
:100C300004C0E0E4F0E0A0E4B0E05081433040F4D0
:100C400081E090E002C0880F991F4A95E2F70BC03F
:100C50002AE030E0241B310981E090E002C0880FD7
:100C6000991F2A95E2F7852B8C93F8018785908947
:100C700020E001972FEF8F3F9207D9F7C80193DE4D
:100C8000DF91CF911F910F91FF90EF90DF90CF9068
:100C90000895FC0142814B3020F5433028F0E2E317
:100CA000F0E0A2E3B0E004C0E0E4F0E0A0E4B0E0F3
:100CB0005081433040F481E090E002C0880F991FDA
:100CC0004A95E2F70BC02AE030E0241B310981E0AD
:100CD00090E002C0880F991F2A95E2F7809585233E
:100CE0008C930895FC0181E890E091838083CF018B
:100CF000D0DF08952091EF003091F00028173907D8
:100D000031F49091320180913101981719F42FEF4D
:100D10003FEF0FC0E0913201F0E0EF50FF4F208134
:100D20008091320190E001968F7390708093320130
:100D300030E0C90108952091EF003091F0002817AC
:100D4000390719F020E030E00DC080913101209189
:100D5000320190E0805C9F4F821B910960E470E05B
:100D6000A6D79C01C90108950F931F93DC011F961C
:100D70008D919C915097892B19F420E030E097C019
:100D80000FB7F89451968C9151971796ED91FC916D
:100D9000189716962C91169781FF8DC08081822B13
:100DA00080831F968D919C915097049620E0019727
:100DB0002FEF8F3F9207D9F751968C91519781FF72
:100DC00035C031E040E050E070E010E0832F90E06B
:100DD000862397231796ED91FC91189716962C91E0
:100DE0001697892B29F0808120952823208303C022
:100DF0008081822B80831F968D919C915097212F0B
:100E000001972FEF8F3F9207D9F7330F4F5F5F4F57
:100E100048305105D9F61796ED91FC9118979081BD
:100E200016968C9116978095892333C031E040E067
:100E300050E070E010E0832F90E086239723179610
:100E4000ED91FC91189716962C911697892B21F00D
:100E50008081822B808304C0808120952823208379
:100E60001F968D919C915097212F01972FEF8F3FC7
:100E70009207D9F7330F4F5F5F4F48305105D9F6CE
:100E80001796ED91FC911897808116969C91169774
:100E9000892B80830FBF1F968D919C91509720E0E6
:100EA00001972FEF8F3F9207D9F721E030E0C9017A
:100EB0001F910F910895808120952823208371CF61
:100EC0002091EF003091F0002817390749F49FB7BF
:100ED000F8941092310180913101809332019FBFCB
:100EE00008952091EF003091F0002817390731F470
:100EF0009091320180913101981719F42FEF3FEF53
:100F00000AC0E0913201F0E0EF50FF4F8081282FBE
:100F1000332727FD3095C90108951F93CF93DF93A1
:100F2000EC01162F862F60E022D4898981FD03C051
:100F3000812F61E040D41A83212F30E0C9018A5DFE
:100F40009C4FFC0184918B83255E3C4FF901649199
:100F5000E62FF0E0EB5EFC4FE491EC831D82DF9125
:100F6000CF911F910895FF920F931F938C01F62E3E
:100F7000862F61E0FCD38F2D61E01DD48F2D90E092
:100F8000FC01EA5DFC4FE491D8011696EC931697AC
:100F9000855E9C4FFC016491E2E1F3E0E60FF11DF8
:100FA000E4911796EC93179718961C921F910F9146
:100FB000FF900895FF920F931F938C01F62E81E806
:100FC00090E0F8019183808312861186148613863F
:100FD00016861586108A178681892170220F8C7FCC
:100FE000822B818BC801642FBEDFC8016F2D95DF76
:100FF0001F910F91FF900895C1989FB990E031E142
:1010000023E13DB92DB99F5F9830D9F73FB18FB932
:1010100080E021E193E12DB99DB98F5F8830D9F748
:101020002FB1932F80E0C19A30E0282B392BC901D2
:1010300008952BB72F7B2BBFDFDF2BB720642BBF8F
:10104000089580E090E0D8DF80918301853009F039
:1010500052C080E090EBD0DF282F8091850188235B
:1010600071F490918401992351F080918501E82FCA
:10107000F0E0EB5CFE4F90838F5F80938501809161
:101080008501E82FF0E0EB5CFE4F20838F5F8093BB
:10109000850180913301909134018227282F229578
:1010A0002827022E269526952025022E26952025D6
:1010B0002770082E892F269507942795902D822733
:1010C00006942795902582279093340180933301CD
:1010D000809137012091850190E0049630E08217DD
:1010E00093072CF080918501873408F46AC08DE065
:1010F00092E882DF08958091830187FF2EC0E091FE
:101100003701809183018F5F809383018150ED5F70
:10111000E80FF0E0EB5CFE4FE081809133019091AD
:1011200034018E27282F22952827022E26952695D2
:101130002025022E269520252770082E892F2695FA
:1011400007942795902D822706942795902582272E
:1011500090933401809333012FC0809183018F5F7E
:10116000809383018150833019F184302CF48823DB
:1011700099F0813001F516C0893019F08A30D9F420
:1011800002C0EDE219C0E0918401909137018EEF29
:10119000891B8093830110C08091330190913401A9
:1011A000E82F0AC08091330190913401E92F04C0E7
:1011B0008DE092E821DFEAEA8E2F90E0805098449B
:1011C0001BDF089580918301853009F042C0809132
:1011D00037012091850190E0049630E08217930753
:1011E00024F0809185018734A0F184E0809383010D
:1011F00080913701833430F081E090E090933401A6
:10120000809333018091360186FF12C08091820164
:10121000282F30E0C9018F7190704F9749F080916D
:10122000360190E0822793278F719070892B89F483
:101230008091330190913401892B09F043C0E091F2
:101240008001F0918101309709F43CC080E009955C
:1012500045C080918301843011F080E008951092A0
:10126000370180913701809385018FEF9FEF909335
:10127000340180933301209184012223D9F0822705
:10128000282F22952827022E269526952025022EE6
:10129000269520252770082E892F269507942795B7
:1012A000902D8227069427959025822790933401CC
:1012B0008093330185E0809383018DED92E89CDE7D
:1012C00080E008958FEF9FEFAFEFBFEF80937C0139
:1012D00090937D01A0937E01B0937F0181E00895FA
:1012E000809183018530B1F480918501882391F448
:1012F0001FB821E193E12DB99DB98F5F8830D9F7EF
:10130000789908C08DE092E877DE84E080938301CD
:1013100081E0089580E00895982F86FD05C0907EB5
:10132000809182018F71980F90933601E091800136
:10133000F0918101309711F081E009958FEF9FEFD7
:101340009093340180933301809133019091340163
:10135000209184018227282F22952827022E269566
:1013600026952025022E269520252770082E892FC8
:10137000269507942795902D8227069427959025EA
:101380008227909334018093330186E08093830118
:101390008DE392E831DE08951F93182F40933701B3
:1013A00028E331E0C90150E0BDD4812FB5DF1F91A2
:1013B0000895C19AB99A81E061E0FDD181E061E0D0
:1013C000D6D185E061E0D3D184E060E0D0D186E081
:1013D00061E0CDD180E18DB982E060E0C8D182E0EA
:1013E00061E0E9D108951F93162F80938201409305
:1013F0008401DFDF80E090E0FFDD85E092E8FCDD46
:1014000080E098EB02C080E090E0F6DD82E00DD253
:10141000892BC9F3812F90E064E0880F991F6A95AA
:10142000E1F7876C9068E8DD80E496EAE5DD86E028
:1014300096ECE2DD82EA94E9DFDD8CEA92ECDCDD19
:1014400010918401112339F083E89AECD5DD812FC6
:1014500090E09E6C05C08BE89AECCEDD8DE29EECB0
:10146000CBDD83E894ECC8DD80E598E9C5DD87E74E
:101470009CECC2DD80E090EEBFDD80E098ECBCDD4E
:1014800089E490ECB9DD84E080938301809182014E
:1014900090E08F719070892B39F080E061E278E004
:1014A00040E050E066D002C080E074D080918201BC
:1014B0001F910895FF920F931F93CF93DF93F82E00
:1014C0000FEF1FEFC0E2D0E0CE0135D40827802F08
:1014D00082958027082E869586958025082E8695EC
:1014E00080258770002E012F869507948795102DF3
:1014F000082706948795102508272196C034D10522
:1015000019F7012B11F080E02EC010E000E0C0E0E0
:10151000D0E0CE0180960FD4682FCC2311F4162F83
:101520000DC0C13011F4062F09C0662359F0FF2009
:1015300029F081E991E040E050E0FAD22196CE31E5
:10154000D10539F7FF2019F081E991E004D3612F2B
:1015500070E0E6E075956795EA95E1F7812F402FF9
:1015600042DF812F8F71DF91CF911F910F91FF90FB
:101570000895882371F48FB7F8947093870160936E
:1015800086018FBF85B78C7F842B85BF8BB7806426
:101590008BBF0895882339F48BB78F7B8BBF109254
:1015A00087011092860108951F920F920FB60F9235
:1015B00011242F933F934F935F936F937F938F9358
:1015C0009F93AF93BF93EF93FF9380918601909188
:1015D0008701892B29F0E0918601F0918701099517
:1015E000FF91EF91BF91AF919F918F917F916F91FB
:1015F0005F914F913F912F910F900FBE0F901F90D1
:1016000018951F920F920FB60F9211242F933F93AC
:101610008F939F93AF93BF9380918C0190918D0195
:10162000A0918E01B0918F0130919001232F2A5FFC
:101630002D3728F02D570396A11DB11D03C002962A
:10164000A11DB11D2093900180938C0190938D0179
:10165000A0938E01B0938F018091880190918901B0
:10166000A0918A01B0918B010196A11DB11D8093BB
:10167000880190938901A0938A01B0938B01BF9157
:10168000AF919F918F913F912F910F900FBE0F902F
:101690001F9018959FB7F894209188013091890187
:1016A00040918A0150918B0182B708B600FE06C0B6
:1016B0008F3F21F02F5F3F4F4F4F5F4F9FBF542F02
:1016C000432F322F2227280F311D411D511D83E04A
:1016D000220F331F441F551F8A95D1F7B901CA0144
:1016E0000895EF92FF920F931F93CF93DF937B01A7
:1016F0008C01D0DFEB010DC0CDDF6C1B7D0B685E74
:101700007340D0F30894E108F10801091109C851A8
:10171000DC4FE114F1040105110571F7DF91CF9160
:101720001F910F91FF90EF900895789480B7836098
:1017300080BF83B7877F83BF83B7887F836083BF82
:1017400089B7816089BF8EB5887F8EBD8FB58C7F4C
:1017500081608FBD8EB5877E8EBD8EB5887F83609C
:101760008EBD86B1887F866086B9379A0895482FE6
:1017700050E0CA018A5D9C4FFC012491455E5C4F9C
:10178000FA0184918823B1F0E82FF0E0E15FFC4F8B
:10179000E491F0E0662341F49FB7F89480812095AE
:1017A000822380839FBF08959FB7F8948081822B06
:1017B00080839FBF0895282F482F50E0CA018A5D7B
:1017C0009C4FFC013491455E5C4FFA019491992342
:1017D00059F1223019F480B78F7304C0233021F4FB
:1017E00080B78F7C80BF0AC0243019F48FB58F7307
:1017F00004C0253019F48FB58F7C8FBDE92FF0E040
:10180000EE5EFC4FE491F0E0662341F49FB7F8945C
:1018100080813095832380839FBF08959FB7F8947C
:101820008081832B80839FBF0895282F482F50E00D
:10183000CA018A5D9C4FFC019491455E5C4FFA01A0
:101840003491332319F420E030E022C0223019F41F
:1018500080B78F7304C0233021F480B78F7C80BFA2
:101860000AC0243019F48FB58F7304C0253019F4E1
:101870008FB58F7C8FBDE32FF0E0EB5EFC4FE491E2
:10188000F0E0808120E030E0892311F021E030E0B9
:10189000C90108954ADF48D88ED7FECF0F931F9312
:1018A000CF93DF938C01EB0109C02196D801ED9114
:1018B000FC910190F081E02DC801099568816623B3
:1018C000A1F7DF91CF911F910F910895EF92FF92B1
:1018D0000F931F93CF93DF938C017B01EA010CC020
:1018E000D7016D917D01D801ED91FC910190F081BE
:1018F000E02DC80109952197209791F7DF91CF91AD
:101900001F910F91FF90EF900895DC01ED91FC91F4
:101910000280F381E02D099508952F923F924F9216
:101920005F926F927F928F929F92AF92BF92CF926F
:10193000DF92EF92FF920F931F93DF93CF93CDB778
:10194000DEB7A0970FB6F894DEBF0FBECDBF1C0167
:101950006A017B01411551056105710541F440E3C0
:1019600050E060E070E020E030E09CD053C088247C
:1019700099245401422E55246624772401E010E076
:101980000C0F1D1F080D191DC701B601A3019201FF
:10199000A1D1F80160830894811C911CA11CB11C89
:1019A000C701B601A301920195D1C901DA016C0109
:1019B0007D01C114D104E104F10401F781E0E82EB6
:1019C000F12CEC0EFD1EE80CF91C3E010894611C84
:1019D000711CD501C4010197A109B1096C01C81896
:1019E000D90815C0F601EE0DFF1D40814A3010F4F4
:1019F000405D01C0495C552747FD5095652F752F07
:101A0000C10120E030E04ED00894E108F1086E14E6
:101A10007F0441F7A0960FB6F894DEBF0FBECDBF8E
:101A2000CF91DF911F910F91FF90EF90DF90CF90BA
:101A3000BF90AF909F908F907F906F905F904F90EE
:101A40003F902F900895DC012115310541F4ED916F
:101A5000FC910190F081E02D642F099508955DDFE0
:101A60000895EF92FF920F931F939A017B0100E07C
:101A700010E0B801A701E7DF1F910F91FF90EF90F1
:101A80000895EF92FF920F931F939A01E62EFF2481
:101A900000E010E0B801A701D6DF1F910F91FF9081
:101AA000EF900895EF92FF920F931F93CF93DF93E0
:101AB000EC017A018B012115310541F4E881F981AE
:101AC0000190F081E02D642F099519C02A3031056D
:101AD000A9F477FF0FC04DE250E060E070E020E035
:101AE00030E0E0DF10950095F094E094E11CF11CEB
:101AF000011D111DCE01B801A7012AE00EDFDF9103
:101B0000CF911F910F91FF90EF900895EF92FF9268
:101B10000F931F937B019A010027F7FC0095102F6C
:101B2000B801A701BFDF1F910F91FF90EF900895BB
:101B3000EF92FF920F931F93E62E9A01FF24E7FC8A
:101B4000F0940F2D1F2DB801A701ACDF1F910F914D
:101B5000FF90EF9008950F931F938C014DE050E09C
:101B600060E070E020E030E09DDFC8014AE050E036
:101B700060E070E020E030E095DF82E090E01F91CF
:101B80000F910895CF92DF92EF92FF920F931F93E0
:101B90008C019A01C62EDD24EE24FF24B701A60194
:101BA00052DFC801D8DF1F910F91FF90EF90DF90B7
:101BB000CF9008950F931F938C01A7DEC801CBDF50
:101BC0001F910F910895CF92DF92EF92FF920F93A2
:101BD0001F938C01C62E9A01DD24C7FCD094ED2CF6
:101BE000FD2CB701A6015EDFC801B5DF1F910F9183
:101BF000FF90EF90DF90CF9008950895089580E0D2
:101C000090E008958FEF9FEF08958FEF9FEF089575
:101C10000895FC01A281B381ED91FC91119702809E
:101C2000F381E02DCD01099581E090E0089525E94B
:101C300031E0FC0133832283C901DFDF0895FC0119
:101C40008BE990E091838083CF01F1DF089583E9F0
:101C500090E0909396018093950181E991E0EFDF08
:101C600008955527002480FF02C0060E571F660FF7
:101C7000771F6115710521F096958795009799F763
:101C8000952F802D0895AA1BBB1B51E107C0AA1FE9
:101C9000BB1FA617B70710F0A61BB70B881F991F0D
:101CA0005A95A9F780959095BC01CD01089597FBB1
:101CB000092E07260AD077FD04D0E5DF06D00020E4
:101CC0001AF4709561957F4F0895F6F79095819578
:101CD0009F4F0895A1E21A2EAA1BBB1BFD010DC048
:101CE000AA1FBB1FEE1FFF1FA217B307E407F507CC
:101CF00020F0A21BB30BE40BF50B661F771F881FA8
:101D0000991F1A9469F760957095809590959B013D
:101D1000AC01BD01CF010895EE0FFF1F0590F491B6
:101D2000E02D0994FB01DC0102C001900D924150AD
:101D30005040D8F70895E199FECF9FBB8EBBE09A43
:101D400099278DB30895262FE199FECF1CBA9FBB2A
:101D50008EBB2DBB0FB6F894E29AE19A0FBE0196A6
:101D6000089513E0C2E4D3E003C0FE01D7DF22965A
:0A1D7000C434D107D1F7F894FFCF77
:101D7A002A00202D3E2061636B00472000202D3E63
:101D8A0020002062003B01B10164039303000000BC
:101D9A0000B4064E0C660C9B067A067107600700B3
:101DAA00000000FD0DFE0D00000000090E4E0C663D
:0A1DBA000CFF0D050E020E080E00CE
:00000001FF
