:100000001FC2D7C642C241C240C23FC23EC23DC269
:100010003CC23BC23AC2FAC638C237C236C235C247
:1000200034C20A417661696C61626C6520636F6DF0
:100030006D616E64733A0A20203C6E6E3E2069202A
:10004000202020202D20736574206E6F6465204968
:100050004420287374616E64617264206E6F6465FD
:10006000206964732061726520312E2E3236290A90
:100070002020202020202020202020202020202878
:100080006F7220656E74657220616E207570706588
:100090007263617365202741272E2E275A2720740B
:1000A0006F20736574206964290A20203C6E3E200D
:1000B000622020202020202D20736574204D487A56
:1000C0002062616E64202834203D203433332C209C
:1000D00038203D203836382C2039203D2039313524
:1000E000290A20203C6E6E6E3E2067202020202DA5
:1000F00020736574206E6574776F726B2067726F02
:100100007570202852464D3132206F6E6C79206117
:100110006C6C6F7773203231322C2030203D20619F
:100120006E79290A20203C6E3E206320202020206A
:10013000202D2073657420636F6C6C656374206D73
:100140006F64652028616476616E6365642C206E3F
:100150006F726D616C6C792030290A202074202028
:1001600020202020202020202D2062726F616463D7
:10017000617374206D61782D73697A65207465737D
:1001800074207061636B65742C20776974682061DA
:10019000636B0A20202E2E2E2C3C6E6E3E2061209A
:1001A0002D2073656E642064617461207061636BDF
:1001B000657420746F206E6F6465203C6E6E3E2CFB
:1001C00020776974682061636B0A20202E2E2E2C04
:1001D0003C6E6E3E2073202D2073656E642064613A
:1001E0007461207061636B657420746F206E6F643E
:1001F00065203C6E6E3E2C206E6F2061636B0A2082
:10020000203C6E3E206C2020202020202D20747564
:10021000726E206163746976697479204C4544205C
:100220006F6E20504231206F6E206F72206F6666B5
:100230000A20203C6E3E20712020202020202D20EE
:10024000736574207175696574206D6F646520280D
:1002500031203D20646F6E2774207265706F727458
:1002600020626164207061636B657473290A526552
:100270006D6F746520636F6E74726F6C20636F6D49
:100280006D616E64733A0A20203C686368693E2C95
:100290003C68636C6F3E2C3C616464723E2C3C6332
:1002A0006D643E206620202020202D2046533230D1
:1002B00020636F6D6D616E642028383638204D489C
:1002C0007A290A20203C616464723E2C3C64657685
:1002D0003E2C3C6F6E3E206B2020202020202020D2
:1002E0002020202020202D204B414B5520636F6D76
:1002F0006D616E642028343333204D487A290A001A
:10030000466C6173682073746F7261676520284A58
:1003100065654C696E6B206F6E6C79293A0A2020F6
:100320006420202020202020202020202020202089
:1003300020202020202020202020202020202020BD
:10034000202D2064756D7020616C6C206C6F6720AF
:100350006D61726B6572730A20203C73683E2C3CA1
:10036000736C3E2C3C74333E2C3C74323E2C3C74FB
:10037000313E2C3C74303E207220202D207265705E
:100380006C61792066726F6D207370656369666950
:100390006564206D61726B65720A20203132332CE6
:1003A0003C6268693E2C3C626C6F3E2065202020D8
:1003B000202020202020202020202020202D2065EB
:1003C0007261736520344B20626C6F636B0A20206E
:1003D00031322C3334207720202020202020202070
:1003E000202020202020202020202020202020200D
:1003F000202D207769706520656E746972652066AE
:100400006C617368206D656D6F72790A00003A3710
:10041000003B38003936003240020202010101017E
:1004200001010101010204804020100804020100C2
:10043000000102030400000000000000CB09050ACF
:1004400011241FBECFE5D2E0DEBFCDBF10E0A0E695
:10045000B0E0E6EFF4E102C005900D92AE3EB107C8
:10046000D9F711E0AEEEB0E001C01D92AA3BB10792
:10047000E1F714E0C0E4D4E003C02297FE0104D801
:10048000CC33D107D1F70BD634C8BACD1F93CF9355
:10049000DF939DD2882309F478C010915801809190
:1004A000540190915501892B31F482EB91E060E683
:1004B00070E030D60DC08091EE00882309F092C024
:1004C00082EB91E063E670E025D6153108F014E187
:1004D0008091F000882369F482EB91E066E670E099
:1004E00019D66091560182EB91E070E04AE050E04D
:1004F000E3D682EB91E060E240E050E0EFD660911D
:10050000570182EB91E070E04AE050E0D5D6C0E0C0
:10051000D0E011C082EB91E060E240E050E0DED636
:10052000FE01E75AFE4F608182EB91E070E04AE005
:1005300050E0C2D62196C11768F382EB91E0E1D674
:100540008091540190915501892BF9F480915701C4
:1005500085FF1BC08091570187FD17C08091EF0078
:1005600085FD13C082EB91E069E670E0E1D68091F1
:10057000570186FF02C080E804C0809157018F7147
:10058000806C60E070E040E00CD380910F01882324
:1005900049F1ABD2882331F182EB91E061E770E061
:1005A000B9D51091100182EB91E0612F70E04AE023
:1005B00050E082D682EB91E066E770E0B9D6809198
:1005C0000F01813611F080E001C080E290911101AD
:1005D000992311F09064892B62E171E0412FE1D2FF
:1005E00010920F01DF91CF911F9108950F931F93E8
:1005F000CF93DF93EC018B016A30710530F0CB01B2
:100600006AE070E009D7CE01F1DFDE010D90002035
:10061000E9F71197AC1BCA0FD11DC8016AE070E061
:10062000FBD6805D8883DF91CF911F910F91089554
:100630001F93CF93DF93C1EFD0E08CE1FE011192C5
:100640008A95E9F7CE0169E770E036D71091EF009F
:100650001F71FE0101900020E9F7E25FF040F0E039
:10066000EC0FFD1F105C10831054CE016BE770E09F
:1006700018D7CE01612F70E0B9DF8091EF0085FFC0
:100680000BC0FE0101900020E9F7E25FF040F0E0CE
:10069000EC0FFD1F8AE2808381EF90E06EE770E04F
:1006A00000D76091F00081EF90E070E09FDF81EF74
:1006B00090E061E870E0F5D6E091EF00F0E096E0C0
:1006C000F595E7959A95E1F7EE0FFF1FED53FF4F74
:1006D0006081718181EF90E089DF81EF90E065E8D2
:1006E00070E0DFD68FEF9FEF90930E0180930D01A6
:1006F000EFEEF0E0219180910D0190910E018227A3
:10070000282F22952827022E269526952025022E71
:10071000269520252770082E892F26950794279542
:10072000902D8227069427959025822790930E017D
:1007300080930D0181E0ED30F807E1F6C0E2D0E0F2
:10074000FE01E153FF4FCE016081C5D62196C03432
:10075000D105B1F781E0B3D2882329F482EB91E08F
:100760006BE870E0E5D5DF91CF911F9108951F935D
:10077000CF93DF9368EE73E080E090E0B7D388EB2F
:1007800091E09093B5018093B401E091B801F091AC
:10079000B9010190F081E02D099582EB91E06EE9BD
:1007A00070E0B8D481E08BD2882359F080E290E0E9
:1007B0008AD68093EF0081E290E085D68093F000A6
:1007C00007C081E88093EF0084ED8093F00030DF74
:1007D000C2E2D0E0FE0121961491112379F01A3083
:1007E00031F482EB91E06DE040E050E077D582EBB0
:1007F00091E0612F40E050E071D5ECCF82EB91E0C9
:100800006CEA70E095D581E05AD2DF91CF911F91CB
:100810000895C1989FB990E031E123E13DB92DB928
:100820009F5F9830D9F73FB18FB980E021E193E124
:100830002DB99DB98F5F8830D9F72FB1932F80E004
:10084000C19A30E0282B392BC901089580E090E04F
:10085000E0DF8091A401853009F052C080E090EB88
:10086000D8DF282F8091A601882371F49091A501EB
:10087000992351F08091A601E82FF0E0EA5AFE4F4B
:1008800090838F5F8093A6018091A601E82FF0E00E
:10089000EA5AFE4F20838F5F8093A6018091540116
:1008A000909155018227282F22952827022E2695E0
:1008B00026952025022E269520252770082E892F83
:1008C000269507942795902D8227069427959025A5
:1008D0008227909355018093540180915801209173
:1008E000A60190E0049630E0821793072CF08091E7
:1008F000A601873408F46AC08DE092E88ADF089583
:100900008091A40187FF2EC0E09158018091A4013D
:100910008F5F8093A4018150ED5FE80FF0E0EA5A09
:10092000FE4FE08180915401909155018E27282F30
:1009300022952827022E269526952025022E2695DB
:1009400020252770082E892F269507942795902D0E
:1009500082270694279590258227909355018093AE
:1009600054012FC08091A4018F5F8093A401815016
:10097000833019F184302CF4882399F0813001F50B
:1009800016C0893019F08A30D9F402C0EDE219C0DE
:10099000E091A501909158018EEF891B8093A401ED
:1009A00010C08091540190915501E82F0AC08091A8
:1009B000540190915501E92F04C08DE092E829DFA0
:1009C000EAEA8E2F90E08050984423DF08958091CA
:1009D000A401853009F042C0809158012091A60100
:1009E00090E0049630E08217930724F08091A601EE
:1009F0008734A0F184E08093A4018091580183346E
:100A000030F081E090E09093550180935401809103
:100A1000570186FF12C08091A301282F30E0C90141
:100A20008F7190704F9749F08091570190E0822725
:100A300093278F719070892B89F480915401909144
:100A40005501892B09F043C0E091A101F091A20169
:100A5000309709F43CC080E0099545C08091A4011D
:100A6000843011F080E0089510925801809158016F
:100A70008093A6018FEF9FEF9093550180935401CF
:100A80002091A5012223D9F08227282F22952827FB
:100A9000022E269526952025022E269520252770A4
:100AA000082E892F269507942795902D8227069446
:100AB000279590258227909355018093540185E0D6
:100AC0008093A4018DED92E8A4DE80E008958FEF7D
:100AD0009FEFAFEFBFEF80939D0190939E01A09396
:100AE0009F01B093A00181E008958091A401853019
:100AF000B1F48091A601882391F41FB821E193E11C
:100B00002DB99DB98F5F8830D9F7789908C08DE0ED
:100B100092E87FDE84E08093A40181E0089580E084
:100B20000895982F86FD05C0907E8091A3018F7156
:100B3000980F90935701E091A101F091A201309795
:100B400011F081E009958FEF9FEF9093550180930D
:100B5000540180915401909155012091A501822763
:100B6000282F22952827022E269526952025022E0D
:100B7000269520252770082E892F269507942795DE
:100B8000902D8227069427959025822790935501D2
:100B90008093540186E08093A4018DE392E839DECE
:100BA00008951F93182F4093580129E531E0C9019A
:100BB00050E06ED4812FB5DF1F910895C19AB99A84
:100BC00081E061E0FDD181E061E0D6D185E061E0C6
:100BD000D3D184E060E0D0D186E061E0CDD180E186
:100BE0008DB982E060E0C8D182E061E0E9D108958A
:100BF0001F93162F8093A3014093A501DFDF80E0B0
:100C000090E007DE85E092E804DE80E098EB02C029
:100C100080E090E0FEDD82E00DD2892BC9F3812FC8
:100C200090E064E0880F991F6A95E1F7876C9068FF
:100C3000F0DD80E496EAEDDD86E096ECEADD82EA1E
:100C400094E9E7DD8CEA92ECE4DD1091A501112333
:100C500039F083E89AECDDDD812F90E09E6C05C0D1
:100C60008BE89AECD6DD8DE29EECD3DD83E894EC44
:100C7000D0DD80E598E9CDDD87E79CECCADD80E03A
:100C800090EEC7DD80E098ECC4DD89E490ECC1DD36
:100C900084E08093A4018091A30190E08F71907013
:100CA000892B39F080E066E274E040E050E066D0E5
:100CB00002C080E074D08091A3011F910895FF923B
:100CC0000F931F93CF93DF93F82E0FEF1FEFC0E228
:100CD000D0E0CE01F8D30827802F82958027082EF8
:100CE000869586958025082E869580258770002E0E
:100CF000012F869507948795102D082706948795D0
:100D0000102508272196C034D10519F7012B11F0C1
:100D100080E02EC010E000E0C0E0D0E0CE01809680
:100D2000D2D3682FCC2311F4162F0DC0C13011F48B
:100D3000062F09C0662359F0FF2029F082EB91E0CD
:100D400040E050E0CBD22196CE31D10539F7FF20DB
:100D500019F082EB91E0D5D2612F70E0E6E0759555
:100D60006795EA95E1F7812F402F42DF812F8F7140
:100D7000DF91CF911F910F91FF900895882371F417
:100D80008FB7F8947093A8016093A7018FBF85B7C0
:100D90008C7F842B85BF8BB780648BBF089588239D
:100DA00039F48BB78F7B8BBF1092A8011092A701EB
:100DB00008951F920F920FB60F9211242F933F9315
:100DC0004F935F936F937F938F939F93AF93BF9353
:100DD000EF93FF938091A7019091A801892B29F0AF
:100DE000E091A701F091A8010995FF91EF91BF91C2
:100DF000AF919F918F917F916F915F914F913F91B3
:100E00002F910F900FBE0F901F9018951F920F9269
:100E10000FB60F9211242F933F938F939F93AF930D
:100E2000BF938091AD019091AE01A091AF01B091BF
:100E3000B0013091B101232F2A5F2D3728F02D57B3
:100E40000396A11DB11D03C00296A11DB11D2093E3
:100E5000B1018093AD019093AE01A093AF01B09327
:100E6000B0018091A9019091AA01A091AB01B0912C
:100E7000AC010196A11DB11D8093A9019093AA0117
:100E8000A093AB01B093AC01BF91AF919F918F91B3
:100E90003F912F910F900FBE0F901F9018959FB705
:100EA000F8942091A9013091AA014091AB01509191
:100EB000AC0182B708B600FE06C08F3F21F02F5F5D
:100EC0003F4F4F4F5F4F9FBF542F432F322F22274B
:100ED000280F311D411D511D83E0220F331F441F78
:100EE000551F8A95D1F7B901CA010895EF92FF9273
:100EF0000F931F93CF93DF937B018C01D0DFEB0126
:100F00000DC0CDDF6C1B7D0B685E7340D0F3089481
:100F1000E108F10801091109C851DC4FE114F1049D
:100F20000105110571F7DF91CF911F910F91FF908E
:100F3000EF900895789480B7836080BF83B7877FF0
:100F400083BF83B7887F836083BF89B7816089BF90
:100F50008EB5887F8EBD8FB58C7F81608FBD8EB53D
:100F6000877E8EBD8EB5887F83608EBD86B1887F7B
:100F7000866086B9379A0895482F50E0CA018C5D83
:100F80009B4FFC012491475E5B4FFA0184918823BB
:100F9000B1F0E82FF0E0E35FFB4FE491F0E066236F
:100FA00041F49FB7F89480812095822380839FBF6E
:100FB00008959FB7F8948081822B80839FBF089506
:100FC000282F482F50E0CA018C5D9B4FFC013491C3
:100FD000475E5B4FFA019491992359F1223019F43D
:100FE00080B78F7304C0233021F480B78F7C80BF1B
:100FF0000AC0243019F48FB58F7304C0253019F45A
:101000008FB58F7C8FBDE92FF0E0E05FFB4FE4915F
:10101000F0E0662341F49FB7F894808130958323F4
:1010200080839FBF08959FB7F8948081832B80832E
:101030009FBF0895282F482F50E0CA018C5D9B4F19
:10104000FC019491475E5B4FFA013491332319F40C
:1010500020E030E022C0223019F480B78F7304C042
:10106000233021F480B78F7C80BF0AC0243019F46C
:101070008FB58F7304C0253019F48FB58F7C8FBD69
:10108000E32FF0E0ED5EFB4FE491F0E0808120E0A3
:1010900030E0892311F021E030E0C90108954ADFF2
:1010A00066DBF4D9FECF0F931F93CF93DF938C01B0
:1010B000EB0109C02196D801ED91FC910190F081DE
:1010C000E02DC801099568816623A1F7DF91CF91D2
:1010D0001F910F910895EF92FF920F931F93CF935B
:1010E000DF938C017B01EA010CC0D7016D917D017A
:1010F000D801ED91FC910190F081E02DC801099596
:101100002197209791F7DF91CF911F910F91FF9039
:10111000EF900895DC01ED91FC910280F381E02DC8
:10112000099508952F923F924F925F926F927F920E
:101130008F929F92AF92BF92CF92DF92EF92FF92E7
:101140000F931F93DF93CF93CDB7DEB7A0970FB662
:10115000F894DEBF0FBECDBF1C016A017B014115B3
:1011600051056105710541F440E350E060E070E035
:1011700020E030E06DD053C0882499245401422EE1
:1011800055246624772401E010E00C0F1D1F080D84
:10119000191DC701B601A301920152D1F801608364
:1011A0000894811C911CA11CB11CC701B601A301AC
:1011B000920146D1C901DA016C017D01C114D1044B
:1011C000E104F10401F781E0E82EF12CEC0EFD1EA4
:1011D000E80CF91C3E010894611C711CD501C40186
:1011E0000197A109B1096C01C818D90815C0F60109
:1011F000EE0DFF1D40814A3010F4405D01C0495C96
:10120000552747FD5095652F752FC10120E030E02F
:101210001FD00894E108F1086E147F0441F7A096EE
:101220000FB6F894DEBF0FBECDBFCF91DF911F91F7
:101230000F91FF90EF90DF90CF90BF90AF909F9075
:101240008F907F906F905F904F903F902F90089578
:10125000EF92FF920F931F93CF93DF93EC017A01EC
:101260008B012115310541F4E881F9810190F0816C
:10127000E02D642F099519C02A303105A9F477FFB4
:101280000FC04DE250E060E070E020E030E0E0DFD1
:1012900010950095F094E094E11CF11C011D111DC6
:1012A000CE01B801A7012AE03DDFDF91CF911F9168
:1012B0000F91FF90EF900895EF92FF920F931F937D
:1012C0007B019A010027F7FC0095102FB801A701B8
:1012D000BFDF1F910F91FF90EF900895EF92FF9263
:1012E0000F931F93E62E9A01FF24E7FCF0940F2D35
:1012F0001F2DB801A701ACDF1F910F91FF90EF9058
:1013000008950F931F938C014DE050E060E070E072
:1013100020E030E09DDFC8014AE050E060E070E08E
:1013200020E030E095DF82E090E01F910F9108957A
:101330000F931F938C01EEDEC801E3DF1F910F9125
:1013400008950895089580E090E008958FEF9FEF4D
:1013500008958FEF9FEF08950895FC01A281B38156
:10136000ED91FC9111970280F381E02DCD0109955B
:1013700081E090E0089526EB31E0FC013383228385
:10138000C901DFDF0895FC0187ED90E09183808340
:10139000CF01F1DF08958FEC90E09093B701809337
:1013A000B60182EB91E0EFDF0895B89AC09A0895F4
:1013B000862F880F8E7162956F70606122E095E0D4
:1013C00059E0F89407C00000000000000000000091
:1013D00000000000879510F0C09802C0C09A00007D
:1013E000579510F4000000004EE34A95F1F7000015
:1013F000000000009A9539F700002A9521F095E049
:10140000862F54E0E7CF7894089589EE90E090938A
:10141000B9018093B8010895AA1BBB1B51E107C015
:10142000AA1FBB1FA617B70710F0A61BB70B881F74
:10143000991F5A95A9F780959095BC01CD01089503
:10144000A1E21A2EAA1BBB1BFD010DC0AA1FBB1FC8
:10145000EE1FFF1FA217B307E407F50720F0A21B3A
:10146000B30BE40BF50B661F771F881F991F1A94A7
:1014700069F760957095809590959B01AC01BD01D1
:10148000CF010895EE0FFF1F0590F491E02D099410
:10149000FB01DC0102C001900D9241505040D8F791
:1014A0000895FB01DC010D900020E9F711970190F0
:1014B0000D920020E1F70895FB01DC0101900D92EF
:1014C0000020E1F70895E199FECF9FBB8EBBE09A23
:1014D00099278DB30895262FE199FECF1CBA9FBBA3
:1014E0008EBB2DBB0FB6F894E29AE19A0FBE01961F
:0614F0000895F894FFCFFF
:1014F6004F4B00203F00472000202D3E2061636BAC
:1015060000202D3E20002062002000206900206778
:101516000020402000204D487A2000636F6E6669E7
:10152600672073617665206661696C6564000A5B95
:101536005246313264656D6F2E385D0043757272A6
:10154600656E7420636F6E66696775726174696F24
:101556006E3A003B01B1016403930300000000A151
:1015660009A20900000000AD0953086B08A309A9E8
:0E15760009A609AC0900000000D509D809003B
:00000001FF
