:1000000090C178CA04C52CC5B1C1B0C1AFC1AEC1E1
:10001000ADC1ACC1ABC19BCAA9C1A8C1A7C1A6C192
:10002000A5C154C327C344C31CC31BC31AC33BC3CA
:1000300018C319C316C315C35CC313C312C311C3BA
:1000400010C35BC30EC342C30A417661696C61622F
:100050006C6520636F6D6D616E64733A0A20203C9D
:100060006E6E3E206920202020202D207365742094
:100070006E6F646520494420287374616E646172F8
:1000800064206E6F6465206964732061726520313D
:100090002E2E3236290A2020202020202020202029
:1000A0002020202020286F7220656E7465722061E8
:1000B0006E20757070657263617365202741272E0D
:1000C0002E275A2720746F20736574206964290ACB
:1000D00020203C6E3E20622020202020202D2073F6
:1000E0006574204D487A2062616E64202834203D7A
:1000F000203433332C2038203D203836382C20391A
:10010000203D20393135290A20203C6E6E6E3E207C
:1001100067202020202D20736574206E6574776F12
:10012000726B2067726F7570202852464D313220F5
:100130006F6E6C7920616C6C6F7773203231322C6A
:100140002030203D20616E79290A20203C6E3E201F
:10015000632020202020202D2073657420636F6C85
:100160006C656374206D6F64652028616476616ED0
:100170006365642C206E6F726D616C6C7920302920
:100180000A20202E2E2E2C3C6E6E3E2061202D202B
:1001900073656E642064617461207061636B657463
:1001A00020746F206E6F6465203C6E6E3E2C20774D
:1001B0006974682061636B0A20202E2E2E2C3C6E01
:1001C0006E3E2073202D2073656E6420646174611F
:1001D000207061636B657420746F206E6F6465209E
:1001E0003C6E6E3E2C206E6F2061636B0A20203CBB
:1001F0006E3E206C2020202020202D207475726EF1
:10020000206163746976697479204C4544206F6E6F
:100210002044494738206F6E206F72206F66660A4F
:1002200020203C6E3E20712020202020202D207395
:100230006574207175696574206D6F64652028315F
:10024000203D20646F6E2774207265706F72742079
:10025000626164207061636B657473290A0000C277
:100260000100010005000500030000E1000001009D
:100270000F000F000D0000960000020019001A0088
:100280001700127A00000700200021001D00807076
:1002900000000B00230023002000004B000014008E
:1002A000370037003400403800001E004B004B0080
:1002B0004800802500003200720072007000C012F9
:1002C00000006E00E900E900E60060090000E500BA
:1002D000D801D801D501B0040000D301B403B403A0
:1002E000B1032C0100006707DD0EDD0EDA0E003AC7
:1002F00037003B380039360032400202020101016A
:1003000001010101010102048040201008040201E2
:10031000000001020304000000000000D301B50D3D
:10032000CD0111241FBECFE5D2E0DEBFCDBF10E06E
:10033000A0E6B0E0E6E9FCE102C005900D92AC3F1A
:10034000B107D9F711E0ACEFB0E001C01D92A83EB3
:10035000B107E1F713E0C0E2D3E003C02297FE014A
:100360006BDCCC31D107D1F73BDA89CC49CE813077
:10037000910551F46F5F7F4F79F48CEF90E067E067
:1003800043E020E0C5D50895892B31F46F5F7F4F9E
:1003900019F48CEF90E054D4089580E090E06FEF72
:1003A0007FEFE5DF089581E090E06FEF7FEFDFDF23
:1003B0000895CF93DF9380E290E060910E0151DCCD
:1003C00081E290E060910F014CDC80910E012FEFF3
:1003D0003FEF2827822F82958227082E86958695C3
:1003E0008025082E869580258770022E232F8695DE
:1003F00007948795302D2827069487953025282740
:1004000080910F012827822F82958227082E8695BA
:1004100086958025082E869580258770022E232FAD
:10042000869507948795302D282706948795302543
:1004300028273093110120931001C2E2D0E0CE01B1
:1004400060E00FDC8091100190911101BC0180E00F
:100450006827862F82958627082E86958695802583
:10046000082E869580258770062E672F869507941F
:100470008795702D68270694879570256827709357
:100480001101609310012196CE33D105C1F68EE3A0
:1004900090E0E7DB609111018FE390E0E2DB81E027
:1004A000AFD7882329F48CEF90E060E670E010DB92
:1004B000DF91CF9108951F93CF93DF93C8E4D0E0ED
:1004C000FE0121961491112379F01A3031F48CEF4A
:1004D00090E06DE040E050E0D1DA8CEF90E0612FE9
:1004E00040E050E0CBDAECCF8CEF90E063E770E0D7
:1004F000EFDA80E290E0ADDB182F80930E0181E20D
:1005000090E0A7DB80930F011F71612F70E0605CAA
:100510007F4F8CEF90E04AE050E09EDA8CEF90E065
:100520006AE870E098D98CEF90E0612F4AE050E0E3
:100530004EDA80910E0185FF06C08CEF90E06AE2F2
:1005400040E050E09BDA8CEF90E06DE870E083D9FA
:100550008CEF90E060910F014AE050E038DA8CEFC8
:1005600090E060E970E077D9E0910E01F0E096E06C
:10057000F595E7959A95E1F7EE0FFF1FE953FF4FC9
:10058000608171818CEF90E04AE050E010DA8CEFEE
:1005900090E064E970E09CDA81E032D7DF91CF919E
:1005A0001F9108951F93182F88E061E086D888E096
:1005B000612FA7D81F9108951F93CF93DF938CEFDE
:1005C00090E067D3892B09F4B8C08CEF90E040D35A
:1005D000182F80538A3058F48091290190E06AE006
:1005E00070E0CDDA8053810F80932901A6C01C32C0
:1005F00089F490912A01943150F4E92FF0E0E55DFF
:10060000FE4F8091290180839F5F90932A01109271
:10061000290193C0812F81568A3108F07EC08CEF6A
:1006200090E06AE970E017D9609129018CEF90E0C1
:1006300070E04AE050E010DA8CEF90E0612F40E08B
:1006400050E04FDA812F992787FD9095A92FB92F78
:10065000FC01E156F040E331F10518F4EF5EFF4F85
:10066000099429DF4EC0909129019F7180910E015C
:10067000807E14C080912901883011F492E005C079
:10068000893011F091E001C093E090932901929597
:10069000990F990F907C80910E018F73980F909312
:1006A0000E0187DE2EC08091290180930F01F9CFC2
:1006B00080912901882321F080910E01806203C07E
:1006C00080910E018F7D80930E01EBCF109312016C
:1006D00040912A01409313018091290180931401D4
:1006E00025E131E0EBE2F1E0C901BF0150E0A8DA19
:1006F00008C08091290156DF04C0809129018093B0
:100700003F0110922A011092290184E1EBE2F1E00D
:10071000DF011D928A95E9F710C0812F81548A313B
:1007200048F41F7180910E01807E810F80930E012D
:1007300040DE03C011320CF0BEDEEAD42091840109
:100740003091850190E040E050E0232B11F441E02E
:1007500050E084239523892B09F467C081E022DFD0
:100760001091880180910F01882369F48CEF90E04B
:100770006DE970E070D8609186018CEF90E070E0D8
:100780004AE050E069D98CEF90E060E240E050E050
:1007900075D9609187018CEF90E070E04AE050E0FD
:1007A0005BD9C0E0D0E011C08CEF90E060E240E0A7
:1007B00050E064D9FE01E757FE4F60818CEF90E076
:1007C00070E04AE050E048D92196C11768F38CEFF9
:1007D00090E067D980E0E6DE809184019091850108
:1007E000892B19F581E0DEDE8091870185FF1BC032
:1007F0008091870187FD17C080910E0185FD13C090
:100800008CEF90E060EA70E063D98091870186FF09
:1008100002C080E804C0809187018F71806C60E025
:1008200070E040E05FD580E0BDDE8091120188235A
:1008300069F1FCD4882351F181E0B4DE8CEF90E0C3
:1008400068EA70E008D8609113018CEF90E070E0E6
:100850004AE050E001D98CEF90E06DEA70E038D9C1
:1008600080911201813611F080E001C080E2909108
:100870001401992311F09064892B65E171E0409196
:10088000130130D51092120180E08CDEDF91CF9100
:100890001F91089581E086DE87E060E00ED783E057
:1008A00061E00BD78CEF90E040E855E260E070E04B
:1008B00000D18CEF90E060EB70E0CDD760ED77E099
:1008C00080E090E0B4D681E09BD5882359F080E2A7
:1008D00090E0BFD980930E0181E290E0BAD9809375
:1008E0000F010BC081E880930E0182ED80930F0110
:1008F00081E062E042ED1DD55CDDDDDD80E052DEB1
:100900000895FC0180914001909141018E179F074D
:1009100011F480E0089581898E7F818B9FB7F894D0
:10092000109282018091820180938301F0934101B2
:10093000E09340019FBF81E008950F931F93CF93F1
:10094000DF93FC018189A481B5819381082F027016
:1009500081FF05C08C91892309F454C004C08C9197
:10096000892309F04FC08185928520E001972FEF00
:100970008F3F9207D9F7C385D485A481B581738150
:1009800060E031E040E050E010E0CE01212F01971F
:100990002FEF8F3F9207D9F78C91872311F0632BAC
:1009A00003C0832F80956823330F4F5F5F4F48301C
:1009B000510559F78585968520E001972FEF8F3FE8
:1009C0009207D9F7011160958091820120918301EE
:1009D00090E001968F73907030E08217930779F062
:1009E000E0918201F0E0EE5BFE4F60838091820136
:1009F00090E001968F7390708093820103C081898B
:100A00008160818BDF91CF911F910F9108951F928B
:100A10000F920FB60F9211242F933F934F935F9332
:100A20006F937F938F939F93AF93BF93EF93FF93B6
:100A30008091400190914101009709F07EDFFF9184
:100A4000EF91BF91AF919F918F917F916F915F9146
:100A50004F913F912F910F900FBE0F901F901895BF
:100A60001F920F920FB60F9211242F933F934F9323
:100A70005F936F937F938F939F93AF93BF93EF9306
:100A8000FF938091400190914101009709F055DF5B
:100A9000FF91EF91BF91AF919F918F917F916F9156
:100AA0005F914F913F912F910F900FBE0F901F902C
:100AB0001895CF92DF92EF92FF920F931F93CF93EF
:100AC000DF938C016A017B01FC01108A1786168670
:100AD0001586148613861286118620E030E0C9013F
:100AE0006CE070E04CD8EC01FC01E25AFD4F8591BE
:100AF0009591A591B4918C159D05AE05BF0549F55D
:100B0000C90163E070E03BD8FC01EE0FFF1FEE0F60
:100B1000FF1FEE59FD4F85919491F80192878187CF
:100B2000FE01EC59FD4F85919491F80194878387DC
:100B3000FE01EA59FD4F85919491F80196878587CA
:100B4000FE01E859FD4F85919491F801908B8787BC
:100B500006C02F5F3F4F2C30310509F0C0CFF801A0
:100B600085859685892B09F437C042814B3058F52D
:100B70009BB7433010F480E201C080E1892B8BBF2A
:100B8000433028F0E2E3F0E0A2E3B0E004C0E0E4A8
:100B9000F0E0A0E4B0E05081433040F481E090E028
:100BA00002C0880F991F4A95E2F70BC02AE030E097
:100BB000241B310981E090E002C0880F991F2A951B
:100BC000E2F7852B8C93F8018785908920E00197C7
:100BD0002FEF8F3F9207D9F7C80193DEDF91CF91B6
:100BE0001F910F91FF90EF90DF90CF900895FC013F
:100BF00042814B3020F5433028F0E2E3F0E0A2E3FD
:100C0000B0E004C0E0E4F0E0A0E4B0E050814330A4
:100C100040F481E090E002C0880F991F4A95E2F706
:100C20000BC02AE030E0241B310981E090E002C0D3
:100C3000880F991F2A95E2F7809585238C93089554
:100C4000FC0183ED90E091838083CF01D0DF089594
:100C500020914001309141012817390731F49091DA
:100C6000830180918201981719F42FEF3FEF0FC095
:100C7000E0918301F0E0EE5BFE4F208180918301E3
:100C800090E001968F7390708093830130E0C901EA
:100C9000089520914001309141012817390719F03A
:100CA00020E030E00DC0809182012091830190E02E
:100CB000805C9F4F821B910960E470E086D79C01A5
:100CC000C90108950F931F93DC011F968D919C918C
:100CD0005097892B19F420E030E097C00FB7F894B3
:100CE00051968C9151971796ED91FC911897169605
:100CF0002C91169781FF8DC08081822B80831F9657
:100D00008D919C915097049620E001972FEF8F3F93
:100D10009207D9F751968C91519781FF35C031E0F8
:100D200040E050E070E010E0832F90E086239723AE
:100D30001796ED91FC91189716962C911697892B82
:100D400029F0808120952823208303C08081822B75
:100D500080831F968D919C915097212F01972FEFA3
:100D60008F3F9207D9F7330F4F5F5F4F48305105E0
:100D7000D9F61796ED91FC911897908116968C9163
:100D800016978095892333C031E040E050E070E051
:100D900010E0832F90E0862397231796ED91FC9126
:100DA000189716962C911697892B21F08081822B0B
:100DB000808304C080812095282320831F968D91F5
:100DC0009C915097212F01972FEF8F3F9207D9F7D2
:100DD000330F4F5F5F4F48305105D9F61796ED91AD
:100DE000FC911897808116969C911697892B808389
:100DF0000FBF1F968D919C91509720E001972FEF88
:100E00008F3F9207D9F721E030E0C9011F910F9180
:100E10000895808120952823208371CF209140015F
:100E2000309141012817390749F49FB7F89410927F
:100E3000820180918201809383019FBF0895209158
:100E40004001309141012817390731F49091830115
:100E500080918201981719F42FEF3FEF0AC0E091BB
:100E60008301F0E0EE5BFE4F8081282F332727FDC2
:100E70003095C90108951F93CF93DF93EC01162F8E
:100E8000862F60E01AD4898981FD03C0812F61E03B
:100E900038D41A83212F30E0C9018B5F9C4FFC01AD
:100EA00084918B8326503D4FF9016491E62FF0E049
:100EB000EC50FD4FE491EC831D82DF91CF911F91A7
:100EC0000895FF920F931F938C01F62E862F61E0F9
:100ED000F4D38F2D61E015D48F2D90E0FC01EB5FF2
:100EE000FC4FE491D8011696EC93169786509D4FCF
:100EF000FC016491E1EFF2E0E60FF11DE491179639
:100F0000EC93179718961C921F910F91FF900895DC
:100F1000FF920F931F938C01F62E83ED90E0F80162
:100F20009183808312861186148613861686158611
:100F3000108A178681892170220F8C7F822B818BEA
:100F4000C801642FBEDFC8016F2D95DF1F910F917F
:100F5000FF900895C1989FB990E031E123E13DB938
:100F60002DB99F5F9830D9F73FB18FB980E021E16B
:100F700093E12DB99DB98F5F8830D9F72FB1932FA9
:100F800080E0C19A30E0282B392BC901089580E018
:100F900090E0E0DF8091D401853009F052C080E01C
:100FA00090EBD8DF282F8091D601882371F490919F
:100FB000D501992351F08091D601E82FF0E0EA574E
:100FC000FE4F90838F5F8093D6018091D601E82FEA
:100FD000F0E0EA57FE4F20838F5F8093D601809127
:100FE0008401909185018227282F22952827022E9F
:100FF000269526952025022E269520252770082E39
:10100000892F269507942795902D8227069427955A
:101010009025822790938501809384018091880197
:101020002091D60190E0049630E0821793072CF0CF
:101030008091D601873408F46AC08CE092E88ADF98
:1010400008958091D40187FF2EC0E091880180919E
:10105000D4018F5F8093D4018150ED5FE80FF0E001
:10106000EA57FE4FE08180918401909185018E279F
:10107000282F22952827022E269526952025022EF8
:10108000269520252770082E892F269507942795C9
:10109000902D82270694279590258227909385018D
:1010A000809384012FC08091D4018F5F8093D401FD
:1010B0008150833019F184302CF4882399F08130E9
:1010C00001F516C0893019F08A30D9F402C0EDE27A
:1010D00019C0E091D501909188018EEF891B809312
:1010E000D40110C08091840190918501E82F0AC03D
:1010F0008091840190918501E92F04C08CE092E8F1
:1011000029DFEAEA8E2F90E08050984423DF08958B
:101110008091D401853009F042C0809188012091EE
:10112000D60190E0049630E08217930724F0809176
:10113000D6018734A0F184E08093D40180918801A6
:10114000833430F081E090E09093850180938401B6
:101150008091870186FF12C08091D301282F30E053
:10116000C9018F7190704F9749F08091870190E08D
:10117000822793278F719070892B89F48091840145
:1011800090918501892B09F043C0E091D101F09144
:10119000D201309709F43CC080E0099545C08091A8
:1011A000D401843011F080E008951092880180917C
:1011B00088018093D6018FEF9FEF909385018093F4
:1011C00084012091D5012223D9F08227282F22954E
:1011D0002827022E269526952025022E26952025A5
:1011E0002770082E892F269507942795902D822702
:1011F00006942795902582279093850180938401FA
:1012000085E08093D4018CED92E8A4DE80E008951F
:101210008FEF9FEFAFEFBFEF8093CD019093CE01A3
:10122000A093CF01B093D00181E008958091D401C3
:101230008530B1F48091D601882391F41FB821E163
:1012400093E12DB99DB98F5F8830D9F7789908C09F
:101250008CE092E87FDE84E08093D40181E0089501
:1012600080E00895982F86FD05C0907E8091D3017F
:101270008F71980F90938701E091D101F091D20185
:10128000309711F081E009958FEF9FEF90938501E2
:101290008093840180918401909185012091D501F2
:1012A0008227282F22952827022E2695269520254D
:1012B000022E269520252770082E892F2695079423
:1012C0002795902D82270694279590258227909325
:1012D00085018093840186E08093D4018CE392E8B9
:1012E00039DE08951F93182F4093880129E831E0D3
:1012F000C90150E0A5D4812FB5DF1F910895C19A8F
:10130000B99A81E061E0FDD181E061E0D6D185E06C
:1013100061E0D3D184E060E0D0D186E061E0CDD15E
:1013200080E18DB982E060E0C8D182E061E0E9D17E
:1013300008951F93162F8093D3014093D501DFDFCB
:1013400080E090E007DE8CE092E804DE80E098EB3D
:1013500002C080E090E0FEDD82E00DD2892BC9F36F
:10136000812F90E064E0880F991F6A95E1F7876C00
:101370009068F0DD80E496EAEDDD86E096ECEADD4B
:1013800082EA94E9E7DD8CEA92ECE4DD1091D50184
:10139000112339F083E89AECDDDD812F90E09E6C1B
:1013A00005C08BE89AECD6DD8DE29EECD3DD83E8B8
:1013B00094ECD0DD80E598E9CDDD87E79CECCADDD3
:1013C00080E090EEC7DD80E098ECC4DD89E490EC2D
:1013D000C1DD84E08093D4018091D30190E08F71CE
:1013E0009070892B39F080E067EC77E040E050E0C6
:1013F00066D002C080E074D08091D3011F9108951F
:10140000FF920F931F93CF93DF93F82E0FEF1FEFF1
:10141000C0E2D0E0CE011DD40827802F829580271E
:10142000082E869586958025082E869580258770BE
:10143000002E012F869507948795102D0827069476
:101440008795102508272196C034D10519F7012B5F
:1014500011F080E02EC010E000E0C0E0D0E0CE014E
:101460008096F7D3682FCC2311F4162F0DC0C1300E
:1014700011F4062F09C0662359F0FF2029F082EEEF
:1014800091E040E050E0FAD22196CE31D10539F713
:10149000FF2019F082EE91E004D3612F70E0E6E0C6
:1014A00075956795EA95E1F7812F402F42DF812FEF
:1014B0008F71DF91CF911F910F91FF900895882335
:1014C00071F48FB7F8947093D8016093D7018FBFF0
:1014D00085B78C7F842B85BF8BB780648BBF0895C5
:1014E000882339F48BB78F7B8BBF1092D801109271
:1014F000D70108951F920F920FB60F9211242F93C8
:101500003F934F935F936F937F938F939F93AF938B
:10151000BF93EF93FF938091D7019091D801892BCE
:1015200029F0E091D701F091D8010995FF91EF9151
:10153000BF91AF919F918F917F916F915F914F91EB
:101540003F912F910F900FBE0F901F9018951F92F3
:101550000F920FB60F9211242F933F938F939F9367
:10156000AF93BF938091DD019091DE01A091DF01E7
:10157000B091E0013091E101232F2A5F2D3728F04F
:101580002D570396A11DB11D03C00296A11DB11DCB
:101590002093E1018093DD019093DE01A093DF01B0
:1015A000B093E0018091D9019091DA01A091DB0123
:1015B000B091DC010196A11DB11D8093D9019093DA
:1015C000DA01A093DB01B093DC01BF91AF919F9151
:1015D0008F913F912F910F900FBE0F901F901895F4
:1015E0009FB7F8942091D9013091DA014091DB0145
:1015F0005091DC0182B708B600FE06C08F3F21F093
:101600002F5F3F4F4F4F5F4F9FBF542F432F322FBE
:101610002227280F311D411D511D83E0220F331F4A
:10162000441F551F8A95D1F7B901CA010895EF9259
:10163000FF920F931F93CF93DF937B018C01D0DF39
:10164000EB010DC0CDDF6C1B7D0B685E7340D0F3EA
:101650000894E108F10801091109C851DC4FE114AF
:10166000F1040105110571F7DF91CF911F910F91E1
:10167000FF90EF900895789480B7836080BF83B720
:10168000877F83BF83B7887F836083BF89B781608B
:1016900089BF8EB5887F8EBD8FB58C7F81608FBDF1
:1016A0008EB5877E8EBD8EB5887F83608EBD86B1F8
:1016B000887F866086B9379A0895482F50E0CA011E
:1016C0008B5F9C4FFC01249146505D4FFA01849141
:1016D0008823B1F0E82FF0E0E251FD4FE491F0E013
:1016E000662341F49FB7F8948081209582238083FC
:1016F0009FBF08959FB7F8948081822B80839FBFFE
:101700000895282F482F50E0CA018B5F9C4FFC01A1
:10171000349146505D4FFA019491992359F122304A
:1017200019F480B78F7304C0233021F480B78F7C05
:1017300080BF0AC0243019F48FB58F7304C02530E0
:1017400019F48FB58F7C8FBDE92FF0E0EF50FD4F7E
:10175000E491F0E0662341F49FB7F89480813095DE
:10176000832380839FBF08959FB7F8948081832B44
:1017700080839FBF0895282F482F50E0CA018B5FB8
:101780009C4FFC01949146505D4FFA0134913323F4
:1017900019F420E030E022C0223019F480B78F73B2
:1017A00004C0233021F480B78F7C80BF0AC024306E
:1017B00019F48FB58F7304C0253019F48FB58F7C61
:1017C0008FBDE32FF0E0EC50FD4FE491F0E080811D
:1017D00020E030E0892311F021E030E0C9010895D4
:1017E0004ADF58D8E9D6FECF0F931F93CF93DF93EC
:1017F0008C01EB0109C02196D801ED91FC9101907B
:10180000F081E02DC801099568816623A1F7DF9179
:10181000CF911F910F910895EF92FF920F931F9315
:10182000CF93DF938C017B01EA010CC0D7016D914E
:101830007D01D801ED91FC910190F081E02DC8016E
:1018400009952197209791F7DF91CF911F910F91E3
:10185000FF90EF900895DC01ED91FC910280F381FF
:10186000E02D099508952F923F924F925F926F92CB
:101870007F928F929F92AF92BF92CF92DF92EF9220
:10188000FF920F931F93DF93CF93CDB7DEB7A0974F
:101890000FB6F894DEBF0FBECDBF1C016A017B01FD
:1018A000411551056105710541F440E350E060E0E8
:1018B00070E020E030E09CD053C08824992454018B
:1018C000422E55246624772401E010E00C0F1D1FE2
:1018D000080D191DC701B601A301920189D1F801B4
:1018E00060830894811C911CA11CB11CC701B60126
:1018F000A30192017DD1C901DA016C017D01C114FE
:10190000D104E104F10401F781E0E82EF12CEC0EA2
:10191000FD1EE80CF91C3E010894611C711CD501E8
:10192000C4010197A109B1096C01C818D90815C0F3
:10193000F601EE0DFF1D40814A3010F4405D01C0FC
:10194000495C552747FD5095652F752FC10120E053
:1019500030E04ED00894E108F1086E147F0441F79E
:10196000A0960FB6F894DEBF0FBECDBFCF91DF912A
:101970001F910F91FF90EF90DF90CF90BF90AF90AD
:101980009F908F907F906F905F904F903F902F909F
:101990000895DC012115310541F4ED91FC91019090
:1019A000F081E02D642F099508955DDF0895EF9291
:1019B000FF920F931F939A017B0100E010E0B801A2
:1019C000A701E7DF1F910F91FF90EF900895EF922D
:1019D000FF920F931F939A01E62EFF2400E010E080
:1019E000B801A701D6DF1F910F91FF90EF900895E6
:1019F000EF92FF920F931F93CF93DF93EC017A0145
:101A00008B012115310541F4E881F9810190F081C4
:101A1000E02D642F099519C02A303105A9F477FF0C
:101A20000FC04DE250E060E070E020E030E0E0DF29
:101A300010950095F094E094E11CF11C011D111D1E
:101A4000CE01B801A7012AE00EDFDF91CF911F91EF
:101A50000F91FF90EF900895EF92FF920F931F93D5
:101A60007B019A010027F7FC0095102FB801A70110
:101A7000BFDF1F910F91FF90EF900895EF92FF92BB
:101A80000F931F93E62E9A01FF24E7FCF0940F2D8D
:101A90001F2DB801A701ACDF1F910F91FF90EF90B0
:101AA00008950F931F938C014DE050E060E070E0CB
:101AB00020E030E09DDFC8014AE050E060E070E0E7
:101AC00020E030E095DF82E090E01F910F910895D3
:101AD0000F931F938C01BFDEC801E3DF1F910F91AD
:101AE0000895CF92DF92EF92FF920F931F938C0194
:101AF000C62E9A01DD24C7FCD094ED2CFD2CB70135
:101B0000A60176DFC801CDDF1F910F91FF90EF9006
:101B1000DF90CF9008950895089580E090E00895B3
:101B20008FEF9FEF08958FEF9FEF08950895FC01C9
:101B3000A281B381ED91FC9111970280F381E02D98
:101B4000CD01099581E090E0089526EE31E0FC0199
:101B500033832283C901DFDF0895FC018DEE90E01D
:101B600091838083CF01F1DF089585EE90E090931B
:101B7000E7018093E60182EE91E0EFDF08955527BB
:101B8000002480FF02C0060E571F660F771F6115E5
:101B9000710521F096958795009799F7952F802DDF
:101BA0000895AA1BBB1B51E107C0AA1FBB1FA617A4
:101BB000B70710F0A61BB70B881F991F5A95A9F7F6
:101BC00080959095BC01CD01089597FB092E0726BD
:101BD0000AD077FD04D0E5DF06D000201AF4709516
:101BE00061957F4F0895F6F7909581959F4F0895E1
:101BF000A1E21A2EAA1BBB1BFD010DC0AA1FBB1F11
:101C0000EE1FFF1FA217B307E407F50720F0A21B82
:101C1000B30BE40BF50B661F771F881F991F1A94EF
:101C200069F760957095809590959B01AC01BD0119
:101C3000CF010895EE0FFF1F0590F491E02D099458
:101C4000FB01DC0102C001900D9241505040D8F7D9
:101C50000895E199FECF9FBB8EBBE09A99278DB383
:101C60000895262FE199FECF1CBA9FBB8EBB2DBBDA
:101C70000FB6F894E29AE19A0FBE0196089513E028
:101C8000C0E2D3E003C0FE01D7DF2296C232D10703
:061C9000D1F7F894FFCF2C
:101C9600636F6E6669672073617665206661696C3D
:101CA60065640043757272656E7420636F6E666953
:101CB6006775726174696F6E3A002069002067006B
:101CC60020402000204D487A20003E20004720007A
:101CD600202D3E2061636B00202D3E2000206200F7
:101CE6000A5B5246313264656D6F2E417474696EBB
:101CF6007938345D0A0D003B01B10164039303009A
:101D06000000006206F40B0C0C490628061F070E9D
:101D160007000000008B0D8C0D00000000970DF4ED
:0C1D26000B0C0C8D0D930D900D960D0014
:00000001FF
