:100000000C9480010C945F090C948C090C94A80149
:100010000C94A8010C94A8010C94A8010C94A801BC
:100020000C94A8010C94A8010C94A8010C94A801AC
:100030000C94A8010C94A8010C94A8010C94A8019C
:100040000C94B9090C94A8010C94A20A0C94F00A1F
:100050000C94A8010C94A8010C94A8010C94A8017C
:100060000C94A8010C94A8010A417661696C616244
:100070006C6520636F6D6D616E64733A0A20203188
:10008000323320782020202020202D20546F6767D5
:100090006C6520636F6E66696775726174696F6EF7
:1000A000206368616E67652070726F746563746940
:1000B0006F6E2C20313D556E6C6F636B65640A204A
:1000C000203C6E6E3E206920202020202D2073656C
:1000D00074206E6F646520494420287374616E64D7
:1000E000617264206E6F646520696473206172655B
:1000F00020312E2E3236290A20203C6E3E206220EE
:1001000020202020202D20736574204D487A206205
:10011000616E64202834203D203433332C20382075
:100120003D203836382C2039203D20393135290AF8
:1001300020203C6E6E6E3E2067202020202D2073F4
:100140006574206E6574776F726B2067726F75705F
:10015000202852464D3132206F6E6C7920616C6CD4
:100160006F7773203231322C2030203D20616E7940
:10017000290A20203C6E3E20632020202020202DB4
:100180002073657420636F6C6C656374206D6F649D
:10019000652028616476616E6365642C206E6F72E1
:1001A0006D616C6C792030290A20202E2E2E2C3C7B
:1001B0006E6E3E2061202D2073656E642064617434
:1001C00061207061636B657420746F206E6F64656D
:1001D000203C6E6E3E2C20776974682061636B0A48
:1001E00020202E2E2E2C3C6E6E3E2073202D207350
:1001F000656E642064617461207061636B65742056
:10020000746F206E6F6465203C6E6E3E2C206E6FA6
:100210002061636B0A20203C6E3E206C2020202051
:1002200020202D207475726E206163746976697464
:1002300079204C4544206F6E2044494738206F6E2A
:10024000206F72206F66660A00202D3E2000202D50
:100250003E2061636B0A003E2000636F6E66696733
:10026000206661696C656400204C6F636B3A200006
:10027000204D487A2000204020002067002069009F
:1002800043757272656E7420636F6E66696775720E
:100290006174696F6E3A0A000A5B52464D325069CA
:1002A0005D0A0000000000240027002A0000000072
:1002B00000250028002B0000000000230026002954
:1002C00000040404040404040402020202020203FF
:1002D0000303030303010204081020408001020409
:1002E000081020010204081020000000070002018D
:1002F0000000030406000000000000000000530C92
:1003000011241FBECFEFD8E0DEBFCDBF11E0A0E0CB
:10031000B1E0E8E4FDE102C005900D92A232B10720
:10032000D9F712E0A2E2B1E001C01D92AF35B107EA
:10033000E1F712E0C0E0D3E004C02297FE010E9482
:100340009E0ECE3FD107C9F70E94A90C0C94A20EB5
:100350000C940000FB01DC0102C001900D924150A1
:100360005040D8F708951F93CF93DF93EC01FE011F
:1003700021961491112369F01A3029F48DE392E04B
:100380006DE00E94E20C8DE392E0612F0E94E20C8E
:10039000EECFDF91CF911F91089540912201F999FD
:1003A000FECF1FBA80E290E092BD81BD40BD0FB686
:1003B000F894FA9AF99A0FBE30912301F999FECF79
:1003C0001FBA81E290E092BD81BD30BD0FB6F894B6
:1003D000FA9AF99A0FBE20912401F999FECF1FBA1B
:1003E00082E290E092BD81BD20BD0FB6F894FA9AEA
:1003F000F99A0FBE8FEF9FEF8427482F4295482729
:10040000042E469546954025042E46954025477076
:10041000082E892F469507944795902D842706949A
:100420004795902584278327382F32953827032E28
:10043000369536953025032E369530253770082EA3
:10044000892F369507943795902D832706943795F5
:10045000902583278227282F22952827022E26954C
:1004600026952025022E269520252770082E892FD7
:10047000269507942795902D8227069427959025F9
:10048000822723E230E040E0F999FECF1FBA32BD67
:1004900021BD10BC0FB6F894FA9AF99A0FBE8427C2
:1004A000582F52955827052E569556955025052EAE
:1004B000569550255770082E892F569507945795B5
:1004C000902D852706945795902585272F5F3F4FC0
:1004D0002E33310509F0D8CF9C01909326018093EB
:1004E0002501F999FECF1FBA8EE390E092BD81BD40
:1004F00020BD0FB6F894FA9AF99A0FBEF999FECF7B
:100500001FBA8FE390E092BD81BD30BD0FB6F89465
:10051000FA9AF99A0FBE81E00E94D807882321F445
:100520008AE592E00E94B30108951F9388E690E067
:100530000E94B30180E892E00E94B301F999FECFD6
:1005400080E290E092BD81BDF89A10B5109322012F
:10055000F999FECF81E290E092BD81BDF89A80B515
:1005600080932301F999FECF82E290E092BD81BD94
:10057000F89A80B5809324011F71612F70E0605C50
:100580007F4F8DE392E04AE050E00E94320E8DE70B
:1005900092E00E94B3018DE392E0612F4AE050E0C7
:1005A0000E94C20D8091220185FF06C08DE392E07A
:1005B00060E071E00E94450E8AE792E00E94B3017C
:1005C0008DE392E0609123014AE050E00E94C20D69
:1005D00086E792E00E94B301E0912201F0E096E00C
:1005E000F595E7959A95E1F7EE0FFF1FE75FFE4F50
:1005F000608171818DE392E04AE050E00E94B10D8C
:1006000080E792E00E94B30188E692E00E94B30185
:100610008DE392E0609124014AE050E00E94D40D05
:1006200081E00E94D8071F9108951F93182F89E039
:1006300061E00E94430889E0612F0E9482081F91B7
:1006400008951F93182F80538A3058F480913E01EB
:100650002AE0829FC0011124180F105310933E010D
:10066000CCC01C3289F490913F01943150F4E92FB1
:10067000F0E0E05CFE4F80913E0180839F5F9093AD
:100680003F0110923E01B9C0812F81568A3108F096
:10069000B0C087E592E00E94B30160913E018DE316
:1006A00092E070E04AE050E00E94320E8DE392E06A
:1006B000612F0E940A0D193669F11A366CF4123650
:1006C000D1F113361CF41136A1F46AC0133609F4C3
:1006D00055C0173671F449C0113709F47AC0123782
:1006E0001CF41C3631F470C0133709F459C01837A4
:1006F00019F00E94950271C080913E018B3709F07C
:100700006CC090E080912401882309F491E09093DB
:1007100024010EC080912401882309F45EC09091C9
:100720003E019F7180912201807E980F909322015B
:100730000E94CD0152C080912401882309F44DC04C
:1007400080913E01883011F492E005C0893011F0AB
:1007500091E001C093E090933E019295990F990F1B
:10076000907C809122018F73E0CF809124018823B7
:10077000A1F180913E0180932301DACF8091240181
:10078000882359F180913E01882321F08091220134
:10079000806203C0809122018F7D80932201C8CFA7
:1007A0001093270140913F014093280180913E0121
:1007B000809329012AE231E0E0E4F1E0C901BF01C0
:1007C00050E00E94AA0109C080913E010E941503D9
:1007D00004C080913E018093540110923F01109219
:1007E0003E0184E1E0E4F1E0DF011D928A95E9F742
:1007F00004C0113214F00E9495021F9108950F93C6
:100800001F93CF93DF938DE392E00E94A90B892B76
:1008100031F08DE392E00E94DA0B0E9421030E94E6
:100820001506882309F47AC08091550190915601EC
:10083000892B09F073C00091590181E00E941503D2
:100840008091580185FF23C08091580187FD1FC00A
:100850008091220185FD1BC010E00E94A406882320
:1008600009F093C01A3009F490C00E9415061F5F6A
:10087000F4CF809158018F71806C60E070E040E0AF
:100880000E941B0782E00E94FE0611E001C010E0FA
:1008900080912301882379F48DE392E062E071E096
:1008A0000E94450E609157018DE392E070E04AE0AE
:1008B00050E00E94320E8DE392E060E20E94E20C72
:1008C0006091580170E06F7170708DE392E04AE0C2
:1008D00050E00E94320EC0E0D0E011C08DE392E003
:1008E00060E20E94E20CFE01E65AFE4F60818DE359
:1008F00092E070E04AE050E00E94320E2196C0176C
:1009000068F38DE392E00E94EA0C112321F08EE45B
:1009100092E00E94B30180E00E94150380912701BC
:100920008823C9F10E94A4068823A9F181E00E94CE
:10093000150389E492E00E94B301609128018DE3E0
:1009400092E070E04AE050E00E94320E8DE392E0C7
:1009500065E071E00E94480E80912701813611F018
:1009600080E001C080E290912901992311F0906408
:10097000892B6AE271E0409128010E941B071092C6
:10098000270180E00E94150306C08091580186FF70
:1009900070CF80E872CFDF91CF911F910F910895B2
:1009A00081E00E9415038DE392E040E855E260E0AB
:1009B00070E00E942B0B88E992E00E94B30181E075
:1009C0000E94D8078823F9F0F999FECF80E290E0E1
:1009D00092BD81BDF89A80B580932201F999FECF2E
:1009E00081E290E092BD81BDF89A80B580932301A9
:1009F000F999FECF82E290E092BD81BDF89A80B570
:100A0000809324010FC081E88093220182ED8093BE
:100A1000230181E08093240162E042ED0E945C07A3
:100A20000E94CD010E94950260ED77E080E090E0A9
:100A30000E940D0A89E490EC0E944A0580E00E9421
:100A400015030895782F65B121E030E040E050E0D3
:100A50000090080104C0220F331F441F551F0A9441
:100A6000D2F7322F822F8095862385B99EBD0DB493
:100A700007FEFDCF4EB57EBD0DB407FEFDCF2EB5F2
:100A8000942F80E045B1342B35B930E0282B392B39
:100A9000C9010895E8980E942205E89A089580E027
:100AA00090E00E9422058091A501853009F054C094
:100AB00080E090EB0E942205282F8091A7018823D7
:100AC00071F49091A601992351F08091A701E82F2C
:100AD000F0E0E95AFE4F90838F5F8093A7018091E9
:100AE000A701E82FF0E0E95AFE4F20838F5F809343
:100AF000A70180915501909156018227282F2295B8
:100B00002827022E269526952025022E269520257B
:100B10002770082E892F269507942795902D8227D8
:100B2000069427959025822790935601809355012E
:100B3000809159012091A70190E0049630E082173E
:100B400093072CF08091A701873408F46DC08DE0E5
:100B500092E80E94220508958091A50187FF2EC08A
:100B6000E09159018091A5018F5F8093A50181508B
:100B7000ED5FE80FF0E0E95AFE4FE081809155010A
:100B8000909156018E27282F22952827022E2695F0
:100B900026952025022E269520252770082E892FA0
:100BA000269507942795902D8227069427959025C2
:100BB0008227909356018093550130C08091A50102
:100BC0008F5F8093A5018150833019F184302CF41C
:100BD000882399F0813009F516C0893019F08A30E0
:100BE000E1F402C0EDE21AC0E091A6019091590132
:100BF0008EEF891B8093A50111C0809155019091C2
:100C00005601E82F0BC08091550190915601E92FB4
:100C100005C08DE092E80E942205EAEA8E2F90E05E
:100C2000805098440E94220508958091A501853046
:100C300009F042C0809159012091A70190E00496EB
:100C400030E08217930724F08091A7018734A0F148
:100C500084E08093A50180915901833430F081E0D4
:100C600090E090935601809355018091580186FF42
:100C700012C08091A401282F30E0C9018F719070BB
:100C80004F9749F08091580190E0822793278F7108
:100C90009070892B89F48091550190915601892B90
:100CA00009F044C0E091A201F091A301309709F44A
:100CB0003DC080E0099546C08091A501843011F0C7
:100CC00080E0089510925901809159018093A70105
:100CD0008FEF9FEF90935601809355012091A601CD
:100CE0002223D9F08227282F22952827022E269505
:100CF00026952025022E269520252770082E892F3F
:100D0000269507942795902D822706942795902560
:100D10008227909356018093550185E08093A50129
:100D20008DED92E80E94220580E008958FEF9FEFFD
:100D3000AFEFBFEF80939E0190939F01A093A0011E
:100D4000B093A10181E008958091A501853099F4C7
:100D50008091A701882379F480E090E00E944A0501
:100D600090FD09C08DE092E80E944A0584E08093DE
:100D7000A50181E0089580E00895982F86FD05C0C3
:100D8000907E8091A4018F71980F90935801E0910B
:100D9000A201F091A301309711F081E009958FEF46
:100DA0009FEF90935601809355018091550190914A
:100DB00056012091A6018227282F22952827022E4E
:100DC000269526952025022E269520252770082E6B
:100DD000892F269507942795902D8227069427958D
:100DE00090258227909356018093550186E0809349
:100DF000A5018DE392E80E9422050895282F16C0D0
:100E00002223A1F093B7233011F484E005C02230EF
:100E100011F080E001C08CE0917F892B83BF83B704
:100E2000816083BF889583B78E7F83BF8091A50142
:100E3000843031F708951F93182F409359012AE504
:100E400031E0C90150E00E94AA01812F0E94BD0635
:100E50001F91089525B181E090E0A0E0B0E00090FE
:100E6000080104C0880F991FAA1FBB1F0A94D2F75C
:100E7000282B25B924B1822B84B98AE061E00E9435
:100E800082088AE061E00E9443088BE061E00E94F2
:100E900043088CE060E00E9443088DE061E00E941E
:100EA000430880E58CBD82E060E00E94430882E058
:100EB00061E00E94820808951F93162F8093A40179
:100EC0004093A6010E942A0780E090E00E9422053C
:100ED00085E092E80E94220580E098EB02C080E065
:100EE00090E00E94220582E00E94D608892BB9F387
:100EF000812F90E074E0880F991F7A95E1F7876C55
:100F000090680E94220580E496EA0E94220586E00D
:100F100096EC0E94220582EA94E90E9422058CEA5E
:100F200092EC0E9422051091A601112341F083E862
:100F30009AEC0E942205812F90E09E6C06C08BE8FF
:100F40009AEC0E9422058DE29EEC0E94220583E825
:100F500094EC0E94220580E598E90E94220587E72B
:100F60009CEC0E94220580E090EE0E94220580E029
:100F700098EC0E94220589E490EC0E94220584E00E
:100F80008093A5018091A40190E08F719070892BCE
:100F900041F080E06FE475E040E050E00E942909F4
:100FA00003C080E00E944C098091A4011F91089524
:100FB000EF92FF920F931F93CF93DF93E82E4FEFA3
:100FC0005FEF20E230E0F999FECF32BD21BDF89A03
:100FD00080B54827842F82958427082E869586958C
:100FE0008025082E869580258770042E452F8695AE
:100FF00007948795502D48270694879550254827B4
:101000002F5F3F4F2034310509F0DDCF452B11F024
:1010100080E032C000E0FF2410E0C0E2D0E0F999A7
:10102000FECFD2BDC1BDF89A60B5112311F4062FD1
:101030000CC0113011F4F62E08C0662351F0EE20DA
:1010400021F08DE392E00E94E20C1F5F21961E3199
:1010500031F7EE2021F08DE392E00E94EA0C602F40
:1010600070E0E6E075956795EA95E1F7802F4F2DE2
:101070000E945C07802F8F71DF91CF911F910F919C
:10108000FF90EF900895CF93DF93482F50E0CA016F
:101090008B529D4FFC0134914F535D4FFA01849167
:1010A000882369F190E0880F991FFC01ED55FD4FF1
:1010B000A591B491FC01E355FD4FC591D4916623F0
:1010C00051F42FB7F8948C91932F909589238C939A
:1010D000888189230BC0623061F42FB7F8948C911A
:1010E000932F909589238C938881832B88832FBF9E
:1010F00006C09FB7F8948C91832B8C939FBFDF9190
:10110000CF910895482F50E0CA0187519D4FFC01AF
:101110002491CA018B529D4FFC0194914F535D4F16
:10112000FA013491332309F440C0222351F12330D2
:1011300071F0243028F42130A1F0223011F514C0D0
:101140002630B1F02730C1F02430D9F404C08091AA
:1011500080008F7703C0809180008F7D8093800016
:1011600010C084B58F7702C084B58F7D84BD09C05F
:101170008091B0008F7703C08091B0008F7D809305
:10118000B000E32FF0E0EE0FFF1FE355FD4FA591F8
:10119000B4912FB7F894662321F48C91909589230C
:1011A00002C08C91892B8C932FBF0895682F70E01B
:1011B000CB0187519D4FFC012491CB018B529D4F58
:1011C000FC0144916F537D4FFB019491992319F4D5
:1011D00020E030E03CC0222351F1233071F0243074
:1011E00028F42130A1F0223011F514C02630B1F0DE
:1011F0002730C1F02430D9F404C0809180008F776B
:1012000003C0809180008F7D8093800010C084B5E2
:101210008F7702C084B58F7D84BD09C08091B000F6
:101220008F7703C08091B0008F7D8093B000892FAD
:1012300090E0880F991F89549D4FFC01A591B491AE
:101240008C9120E030E0842311F021E030E0C901EE
:101250000895823000F5E82FF0E0EE0FFF1FE8550B
:10126000FE4F71836083882319F08130A1F408C098
:10127000809169008C7F842B80936900E89A08959F
:1012800080916900440F551F440F551F837F842BA5
:1012900080936900E99A0895823080F4882319F0D8
:1012A000813021F402C0E89801C0E998E82FF0E00D
:1012B000EE0FFF1FE855FE4F1182108208951F9216
:1012C0000F920FB60F9211242F933F934F935F937A
:1012D0006F937F938F939F93AF93BF93EF93FF93FE
:1012E0008091A8019091A901892B29F0E091A80192
:1012F000F091A9010995FF91EF91BF91AF919F9155
:101300008F917F916F915F914F913F912F910F90AE
:101310000FBE0F901F9018951F920F920FB60F924D
:1013200011242F933F934F935F936F937F938F93EA
:101330009F93AF93BF93EF93FF938091AA019091F6
:10134000AB01892B29F0E091AA01F091AB0109953D
:10135000FF91EF91BF91AF919F918F917F916F918D
:101360005F914F913F912F910F900FBE0F901F9063
:1013700018951F920F920FB60F9211242F933F933F
:101380004F935F936F937F938F939F93AF93BF938D
:101390002091B0013091B1014091B2015091B3015F
:1013A0007091B401DA01C9010296A11DB11D672F28
:1013B0006A5F6D3730F06D57DA01C9010396A11DE0
:1013C000B11D6093B4018093B0019093B101A093DB
:1013D000B201B093B3018091AC019091AD01A091A5
:1013E000AE01B091AF010196A11DB11D8093AC017A
:1013F0009093AD01A093AE01B093AF01BF91AF91B7
:101400009F918F917F916F915F914F913F912F911C
:101410000F900FBE0F901F9018959B01AC017FB7E6
:10142000F8948091AC019091AD01A091AE01B09182
:10143000AF0166B5A89B05C06F3F19F00196A11DCD
:10144000B11D7FBFBA2FA92F982F8827860F911D16
:10145000A11DB11D63E0880F991FAA1FBB1F6A95CC
:10146000D1F7BC012DC0FFB7F8948091AC019091E9
:10147000AD01A091AE01B091AF01E6B5A89B05C04A
:10148000EF3F19F00196A11DB11DFFBFBA2FA92F83
:10149000982F88278E0F911DA11DB11DE3E0880FA5
:1014A000991FAA1FBB1FEA95D1F7861B970B885E71
:1014B0009340C8F2215030404040504068517C4F2A
:1014C000211531054105510571F60895789484B5CB
:1014D000826084BD84B5816084BD85B5826085BD30
:1014E00085B5816085BDEEE6F0E080818160808316
:1014F000E1E8F0E0108280818260808380818160F9
:101500008083E0E8F0E0808181608083E1EBF0E0BF
:10151000808184608083E0EBF0E080818160808363
:10152000EAE7F0E08081846080838081826080834C
:101530008081816080838081806880831092C10077
:10154000089508951F920F920FB60F9211242F93B2
:101550003F934F938F939F93EF93FF938091C0009E
:1015600082FD1DC04091C6002091F5013091F60129
:101570002F5F3F4F2F7330708091F7019091F801EA
:101580002817390771F0E091F501F091F601EB545D
:10159000FE4F40833093F6012093F50102C0809105
:1015A000C600FF91EF919F918F914F913F912F91A5
:1015B0000F900FBE0F901F901895E0914902F09187
:1015C0004A02E05CFF4F8191919120813181821B21
:1015D000930B8F739070892B11F00E94A10A0895CC
:1015E0001F920F920FB60F9211242F933F938F9358
:1015F0009F93EF93FF932091390230913A028091AB
:101600003B0290913C022817390731F48091C100C8
:101610008F7D8093C10014C0E0913B02F0913C02A9
:10162000E750FE4F208180913B0290913C02019651
:101630008F73907090933C0280933B022093C6007E
:10164000FF91EF919F918F913F912F910F900FBE3E
:101650000F901F901895AF92BF92DF92EF92FF927A
:101660000F931F93CF93DF93EC017A018B01DD245D
:10167000D39491E0A92EB12CEC89FD89DD2069F08D
:10168000C50108A002C0880F991F0A94E2F7808361
:1016900060E874E88EE190E005C0108260E472E4D6
:1016A0008FE090E0A80197010E947A0E215030400F
:1016B00040405040569547953795279580E120301A
:1016C000380720F0DD2011F0DD24D6CFE889F98934
:1016D0003083EA89FB89208319A2EE89FF89408142
:1016E00021E030E0C9010C8C02C0880F991F0A94D8
:1016F000E2F7482B4083EE89FF894081C9010D8CB8
:1017000002C0880F991F0A94E2F7482B4083EE89A4
:10171000FF894081C9010E8C02C0880F991F0A946D
:10172000E2F7482B4083EE89FF8980810F8C02C04D
:10173000220F331F0A94E2F7209528232083DF919C
:10174000CF911F910F91FF90EF90DF90BF90AF90DE
:101750000895DC011C96ED91FC911D97E05CFF4F14
:101760002191319180819181281B390B2F73307029
:10177000C9010895DC011C96ED91FC911D97E05C78
:10178000FF4F20813181E054F040DF01AE5BBF4F5D
:101790008D919C9111972817390719F42FEF3FEF7E
:1017A00007C08D919C91E80FF91F8081282F30E0B0
:1017B000C9010895DC011C96ED91FC911D97E05C38
:1017C000FF4F20813181E054F040DF01AE5BBF4F1D
:1017D0008D919C9111972817390719F42FEF3FEF3E
:1017E00010C08D919C911197E80FF91F20818D9168
:1017F0009C91119701968F73907011969C938E9384
:1018000030E0C9010895DC0191968C91919788236D
:1018100039F05496ED91FC915597808186FFF9CF70
:1018200091961C920895CF93DF93EC01EE85FF858E
:10183000E05CFF4F20813181E054F0402F5F3F4F4B
:101840002F733070DF01AE5BBF4F8D919C9111976C
:1018500028173907D1F3E05CFF4F80819181E05474
:10186000F040E80FF91F6083EE85FF85E05CFF4FD5
:1018700031832083EE89FF89208181E090E00F8C05
:1018800002C0880F991F0A94E2F7282B208381E079
:1018900089A3EC89FD8980818064808381E090E068
:1018A000DF91CF9108951092400210923F0288EE8E
:1018B00093E0A0E0B0E08093410290934202A093B5
:1018C0004302B093440285E191E090933E028093FD
:1018D0003D0285EB91E090934A028093490289EFA3
:1018E00091E090934C0280934B0285EC90E09093B2
:1018F0004E0280934D0284EC90E0909350028093CE
:101900004F0280EC90E0909352028093510281EC60
:1019100090E0909354028093530282EC90E0909375
:1019200056028093550286EC90E090935802809383
:10193000570284E08093590283E080935A0287E043
:1019400080935B0285E080935C0281E080935D027E
:101950000895CF93DF930E94660A0E94D004CDEDD4
:10196000DAE00E94FF032097E1F30E94DD0AF9CF3D
:10197000CF92DF92EF92FF920F931F93CF93DF935B
:101980007C016B018A01C0E0D0E00FC0D6016D91EF
:101990006D01D701ED91FC910190F081E02DC7011F
:1019A0000995C80FD91F015010400115110571F795
:1019B000CE01DF91CF911F910F91FF90EF90DF90BB
:1019C000CF900895DC01ED91FC910190F081E02D24
:1019D00009950895EF92FF920F931F938C01DC01FC
:1019E000ED91FC910190F081E02D6DE009957C0175
:1019F000D801ED91FC910190F081E02DC8016AE0E1
:101A000009959C012E0D3F1DC9011F910F91FF905B
:101A1000EF900895EF92FF920F931F937C01DC01EA
:101A2000ED91FC910190F081E02D09958C01C701A9
:101A30000E94EA0C080F191FC8011F910F91FF9017
:101A4000EF900895CF93DF93EC016115710519F4C0
:101A500020E030E00FC0DB010D900020E9F7119786
:101A6000A61BB70BE881F9810280F381E02DAD015F
:101A700009959C01C901DF91CF9108954F925F9222
:101A80007F928F929F92AF92BF92CF92DF92EF920E
:101A9000FF920F931F93DF93CF93CDB7DEB7A1973C
:101AA0000FB6F894DEBF0FBECDBF2C01742ECB0154
:101AB000223008F42AE019A231E2C32ED12CCC0E38
:101AC000DD1E822E9924AA24BB24672D752FA50123
:101AD00094010E947A0E79018A01C801B701A5011B
:101AE00094010E945B0E472D461B0894C108D10843
:101AF0004A3014F4405D01C0495CF6014083E114B2
:101B0000F1040105110521F07E2C5F2DC801DDCF08
:101B1000C201B6010E94220DA1960FB6F894DEBF55
:101B20000FBECDBFCF91DF911F910F91FF90EF902E
:101B3000DF90CF90BF90AF909F908F907F905F90FD
:101B40004F900895DC012115310541F4ED91FC9190
:101B50000190F081E02D642F099508950E943E0DBB
:101B60000895EF92FF920F931F939A017B0100E07B
:101B700010E0B801A7010E94A20D1F910F91FF90E4
:101B8000EF900895EF92FF920F931F939A01E62E24
:101B9000FF2400E010E0B801A7010E94A20D1F91F0
:101BA0000F91FF90EF900895CF92DF92EF92FF9206
:101BB0000F931F936C01E62E9A01FF2400E010E0C2
:101BC000B801A7010E94A20D8C01C6010E94EA0C77
:101BD000080F191FC8011F910F91FF90EF90DF9020
:101BE000CF900895CF92DF92EF92FF920F931F93C1
:101BF000CF93DF93EC016A017B012115310541F49C
:101C0000E881F9810190F081E02D642F09951FC0D2
:101C10002A303105D1F477FF17C0E881F9810190AE
:101C2000F081E02D6DE209958C0144275527BA011A
:101C30004C195D096E097F09CE012AE00E943E0D14
:101C40009801280F391F04C02AE00E943E0D9C0114
:101C5000C901DF91CF911F910F91FF90EF90DF901D
:101C6000CF900895EF92FF920F931F937B019A01FB
:101C70000027F7FC0095102FB801A7010E94F20D74
:101C80001F910F91FF90EF9008950E94220D0895EB
:101C9000EF92FF920F931F937C010E94220D8C0103
:101CA000C7010E94EA0C080F191FC8011F910F916C
:101CB000FF90EF900895629FD001739FF001829F83
:101CC000E00DF11D649FE00DF11D929FF00D839FCB
:101CD000F00D749FF00D659FF00D9927729FB00D68
:101CE000E11DF91F639FB00DE11DF91FBD01CF017B
:101CF00011240895A1E21A2EAA1BBB1BFD010DC0E1
:101D0000AA1FBB1FEE1FFF1FA217B307E407F507AB
:101D100020F0A21BB30BE40BF50B661F771F881F87
:101D2000991F1A9469F760957095809590959B011D
:101D3000AC01BD01CF010895EE0FFF1F0590F49196
:081D4000E02D0994F894FFCF97
:101D48002A00472000206200023B01B1016403938E
:101D58000300000000130CB80CA90BDA0BBA0B0334
:021D68000C006D
:00000001FF
