:100000000C9480010C9430080C945D080C94A801A9
:100010000C94A8010C94A8010C94A8010C94A801BC
:100020000C94A8010C94A8010C94A8010C94A801AC
:100030000C94A8010C94A8010C94A8010C94A8019C
:100040000C948A080C94A8010C94350A0C947C0A30
:100050000C94A8010C94A8010C94A8010C94A8017C
:100060000C94A8010C94A8010A417661696C616244
:100070006C6520636F6D6D616E64733A0A20203188
:10008000323320782020202020202D20546F6767D5
:100090006C6520636F6E66696775726174696F6EF7
:1000A000206368616E67652070726F746563746940
:1000B0006F6E2C20313D556E6C6F636B65640A204A
:1000C000203C6E6E3E206920202020202D2073656C
:1000D00074206E6F646520494420287374616E64D7
:1000E000617264206E6F646520696473206172655B
:1000F00020312E2E3236290A20203C6E3E206220EE
:1001000020202020202D20736574204D487A206205
:10011000616E64202834203D203433332C20382075
:100120003D203836382C2039203D20393135290AF8
:1001300020203C6E6E6E3E2067202020202D2073F4
:100140006574206E6574776F726B2067726F75705F
:10015000202852464D3132206F6E6C7920616C6CD4
:100160006F7773203231322C2030203D20616E7940
:10017000290A20203C6E3E20632020202020202DB4
:100180002073657420636F6C6C656374206D6F649D
:10019000652028616476616E6365642C206E6F72E1
:1001A0006D616C6C792030290A20202E2E2E2C3C7B
:1001B0006E6E3E2061202D2073656E642064617434
:1001C00061207061636B657420746F206E6F64656D
:1001D000203C6E6E3E2C20776974682061636B0A48
:1001E00020202E2E2E2C3C6E6E3E2073202D207350
:1001F000656E642064617461207061636B65742056
:10020000746F206E6F6465203C6E6E3E2C206E6FA6
:100210002061636B0A20203C6E3E206C2020202051
:1002200020202D207475726E206163746976697464
:1002300079204C4544206F6E2044494738206F6E2A
:10024000206F72206F66660A00202D3E2000202D50
:100250003E2061636B0A003E2000636F6E66696733
:10026000206661696C656400204C6F636B3A200006
:10027000204D487A2000204020002067002069009F
:1002800043757272656E7420636F6E66696775720E
:100290006174696F6E3A0A000A5B52464D325069CA
:1002A0005D0A0000000000240027002A0000000072
:1002B00000250028002B0000000000230026002954
:1002C00000040404040404040402020202020203FF
:1002D0000303030303010204081020408001020409
:1002E000081020010204081020000000070002018D
:1002F0000000030406000000000000000000D90B0D
:1003000011241FBECFEFD8E0DEBFCDBF11E0A0E0CB
:10031000B1E0E6E7FCE102C005900D92A232B10720
:10032000D9F712E0A2E2B1E001C01D92AC35B107ED
:10033000E1F712E0C0E0D3E004C02297FE010E9482
:10034000160ECE3FD107C9F70E94290C0C94390E26
:100350000C9400001F93CF93DF93EC01FE012196D4
:100360001491112369F01A3029F48DE392E06DE0C5
:100370000E94620C8DE392E0612F0E94620CEECF2E
:10038000DF91CF911F910895CF93DF9380E290E0AA
:10039000609122010E942B0E81E290E06091230186
:1003A0000E942B0E82E290E0609124010E942B0EAD
:1003B000209122018FEF9FEF8227282F2295282757
:1003C000022E269526952025022E2695202527707B
:1003D000082E892F269507942795902D822706941D
:1003E000279590258227209123018227282F229567
:1003F0002827022E269526952025022E2695202593
:100400002770082E892F269507942795902D8227EF
:100410000694279590258227209124018227282F52
:1004200022952827022E269526952025022E2695F0
:1004300020252770082E892F269507942795902D23
:1004400082270694279590258227909326018093F2
:100450002501C3E2D0E0CE0160E00E942B0E809126
:10046000250190912601BC0180E06827862F8295A6
:100470008627082E869586958025082E86958025C8
:100480008770062E672F869507948795702D6827AD
:10049000069487957025682770932601609325013F
:1004A0002196CE33D10509F0D6CF8EE390E00E949D
:1004B0002B0E609126018FE390E00E942B0E81E0CD
:1004C0000E949807882321F48AE592E00E94AA01FD
:1004D000DF91CF9108951F9388E690E00E94AA01D2
:1004E00080E892E00E94AA0180E290E00E94230E40
:1004F000182F8093220181E290E00E94230E8093C6
:10050000230182E290E00E94230E809324011F7158
:10051000612F70E0605C7F4F8DE392E04AE050E035
:100520000E94AA0D8DE792E00E94AA018DE392E05D
:10053000612F4AE050E00E943A0D8091220185FF30
:1005400006C08DE392E060E071E00E94BD0D8AE795
:1005500092E00E94AA018DE392E0609123014AE0BB
:1005600050E00E943A0D86E792E00E94AA01E091D5
:100570002201F0E096E0F595E7959A95E1F7EE0F08
:10058000FF1FE75FFE4F608171818DE392E04AE0DB
:1005900050E00E94290D80E792E00E94AA0188E6BF
:1005A00092E00E94AA018DE392E0609124014AE06A
:1005B00050E00E944C0D81E00E9498071F91089521
:1005C0001F93182F89E061E00E94650989E0612F7F
:1005D0000E94D1091F9108951F93182F80538A30CC
:1005E00058F480913E012AE0829FC0011124180F27
:1005F000105310933E01CCC01C3289F490913F01FE
:10060000943150F4E92FF0E0E05CFE4F80913E0120
:1006100080839F5F90933F0110923E01B9C0812F6C
:1006200081568A3108F0B0C087E592E00E94AA01A5
:1006300060913E018DE392E070E04AE050E00E945C
:10064000AA0D8DE392E0612F0E948A0C193669F1A0
:100650001A366CF41236D1F113361CF41136A1F4AB
:100660006AC0133609F455C0173671F449C0113702
:1006700009F47AC012371CF41C3631F470C01337F9
:1006800009F459C0183719F00E946B0271C08091AB
:100690003E018B3709F06CC090E0809124018823E3
:1006A00009F491E0909324010EC0809124018823E5
:1006B00009F45EC090913E019F7180912201807E7D
:1006C000980F909322010E94C40152C0809124018E
:1006D000882309F44DC080913E01883011F492E0E6
:1006E00005C0893011F091E001C093E090933E0184
:1006F0009295990F990F907C809122018F73E0CF92
:10070000809124018823A1F180913E0180932301EF
:10071000DACF80912401882359F180913E0188230A
:1007200021F080912201806203C0809122018F7D9F
:1007300080932201C8CF1093270140913F0140933D
:10074000280180913E01809329012AE231E0E0E412
:10075000F1E0C901BF0150E00E941A0E09C080916A
:100760003E010E94E00204C080913E01809354014A
:1007700010923F0110923E0184E1E0E4F1E0DF01DC
:100780001D928A95E9F704C0113214F00E946B02A1
:100790001F9108950F931F93CF93DF938DE392E002
:1007A0000E94340B892B31F08DE392E00E94650B9F
:1007B0000E94EC020E94D405882309F47AC080913B
:1007C000550190915601892B09F073C00091590190
:1007D00081E00E94E0028091580185FF23C0809152
:1007E000580187FD1FC08091220185FD1BC010E0CC
:1007F0000E946306882309F093C01A3009F490C060
:100800000E94D4051F5FF4CF809158018F71806CD6
:1008100060E070E040E00E94DB0682E00E94BE06DD
:1008200011E001C010E080912301882379F48DE369
:1008300092E062E071E00E94BD0D609157018DE38E
:1008400092E070E04AE050E00E94AA0D8DE392E051
:1008500060E20E94620C6091580170E06F717070EC
:100860008DE392E04AE050E00E94AA0DC0E0D0E0A3
:1008700011C08DE392E060E20E94620CFE01E65A34
:10088000FE4F60818DE392E070E04AE050E00E940C
:10089000AA0D2196C01768F38DE392E00E946A0CBE
:1008A000112321F08EE492E00E94AA0180E00E94D0
:1008B000E002809127018823C9F10E946306882302
:1008C000A9F181E00E94E00289E492E00E94AA017D
:1008D000609128018DE392E070E04AE050E00E94D0
:1008E000AA0D8DE392E065E071E00E94C00D809159
:1008F0002701813611F080E001C080E2909129014A
:10090000992311F09064892B6AE271E040912801EB
:100910000E94DB061092270180E00E94E00206C0E0
:100920008091580186FF70CF80E872CFDF91CF9120
:100930001F910F91089581E00E94E0028DE392E003
:1009400040E855E260E070E00E94B70A88E992E072
:100950000E94AA0181E00E949807882399F080E212
:1009600090E00E94230E8093220181E290E00E9499
:10097000230E8093230182E290E00E94230E809355
:1009800024010FC081E88093220182ED809323012E
:1009900081E08093240162E042ED0E941C070E94E6
:1009A000C4010E946B0260ED77E080E090E00E945D
:1009B000040989E490EC0E94090580E00E94E002AD
:1009C0000895782F65B121E030E040E050E00090DC
:1009D000080104C0220F331F441F551F0A94D2F789
:1009E000322F822F8095862385B99EBD0DB407FED8
:1009F000FDCF4EB57EBD0DB407FEFDCF2EB5942FB5
:100A000080E045B1342B35B930E0282B392BC901B2
:100A10000895E8980E94E104E89A089580E090E043
:100A20000E94E1048091A501853009F054C080E066
:100A300090EB0E94E104282F8091A701882371F494
:100A40009091A601992351F08091A701E82FF0E041
:100A5000E95AFE4F90838F5F8093A7018091A70191
:100A6000E82FF0E0E95AFE4F20838F5F8093A701C3
:100A700080915501909156018227282F2295282791
:100A8000022E269526952025022E269520252770B4
:100A9000082E892F269507942795902D8227069456
:100AA0002795902582279093560180935501809138
:100AB00059012091A70190E0049630E08217930736
:100AC0002CF08091A701873408F46DC08DE092E886
:100AD0000E94E10408958091A50187FF2EC0E09156
:100AE00059018091A5018F5F8093A5018150ED5F31
:100AF000E80FF0E0E95AFE4FE081809155019091B6
:100B000056018E27282F22952827022E26952695D6
:100B10002025022E269520252770082E892F269520
:100B200007942795902D8227069427959025822754
:100B3000909356018093550130C08091A5018F5F3D
:100B40008093A5018150833019F184302CF48823DF
:100B500099F0813009F516C0893019F08A30E1F436
:100B600002C0EDE21AC0E091A601909159018EEF0A
:100B7000891B8093A50111C0809155019091560168
:100B8000E82F0BC08091550190915601E92F05C0C7
:100B90008DE092E80E94E104EAEA8E2F90E0805016
:100BA00098440E94E10408958091A501853009F0E0
:100BB00042C0809159012091A70190E0049630E055
:100BC0008217930724F08091A7018734A0F184E075
:100BD0008093A50180915901833430F081E090E049
:100BE00090935601809355018091580186FF12C061
:100BF0008091A401282F30E0C9018F7190704F9728
:100C000049F08091580190E0822793278F7190706E
:100C1000892B89F48091550190915601892B09F017
:100C200044C0E091A201F091A301309709F43DC0C6
:100C300080E0099546C08091A501843011F080E0E4
:100C4000089510925901809159018093A7018FEF67
:100C50009FEF90935601809355012091A601222386
:100C6000D9F08227282F22952827022E269526950F
:100C70002025022E269520252770082E892F2695BF
:100C800007942795902D82270694279590258227F3
:100C9000909356018093550185E08093A5018DEDD9
:100CA00092E80E94E10480E008958FEF9FEFAFEF9C
:100CB000BFEF80939E0190939F01A093A001B093FA
:100CC000A10181E008958091A5018530A1F4809172
:100CD000A701882381F41EBC0DB407FEFDCF0EB41E
:100CE00000FC09C08DE092E80E94E10484E080935A
:100CF000A50181E0089580E00895982F86FD05C044
:100D0000907E8091A4018F71980F90935801E0918B
:100D1000A201F091A301309711F081E009958FEFC6
:100D20009FEF9093560180935501809155019091CA
:100D300056012091A6018227282F22952827022ECE
:100D4000269526952025022E269520252770082EEB
:100D5000892F269507942795902D8227069427950D
:100D600090258227909356018093550186E08093C9
:100D7000A5018DE392E80E94E1040895282F16C092
:100D80002223A1F093B7233011F484E005C0223070
:100D900011F080E001C08CE0917F892B83BF83B785
:100DA000816083BF889583B78E7F83BF8091A501C3
:100DB000843031F708951F93182F409359012AE585
:100DC00031E0C90150E00E941A0E812F0E947D0679
:100DD0001F91089525B181E090E0A0E0B0E000907F
:100DE000080104C0880F991FAA1FBB1F0A94D2F7DD
:100DF000282B25B924B1822B84B98AE061E00E94B6
:100E0000D1098AE061E00E9465098BE061E00E94FF
:100E100065098CE060E00E9465098DE061E00E9458
:100E2000650980E58CBD82E060E00E94650982E092
:100E300061E00E94D10908951F93162F8093A401A9
:100E40004093A6010E94EA0680E090E00E94E1043F
:100E500085E092E80E94E10480E098EB02C080E027
:100E600090E00E94E10482E00E94040A892BB9F319
:100E7000812F90E074E0880F991F7A95E1F7876CD5
:100E800090680E94E10480E496EA0E94E10486E012
:100E900096EC0E94E10482EA94E90E94E1048CEA63
:100EA00092EC0E94E1041091A601112341F083E825
:100EB0009AEC0E94E104812F90E09E6C06C08BE8C2
:100EC0009AEC0E94E1048DE29EEC0E94E10483E82A
:100ED00094EC0E94E10480E598E90E94E10487E730
:100EE0009CEC0E94E10480E090EE0E94E10480E02E
:100EF00098EC0E94E10489E490EC0E94E10484E013
:100F00008093A5018091A40190E08F719070892B4E
:100F100041F080E06EE075E040E050E00E94FA07AA
:100F200003C080E00E941D088091A4011F910895D4
:100F3000FF920F931F93CF93DF93F82E0FEF1FEFC6
:100F4000C0E2D0E0CE010E94230E0827802F8295B8
:100F50008027082E869586958025082E86958025E3
:100F60008770002E012F869507948795102D0827EE
:100F700006948795102508272196C034D10511F7CE
:100F8000012B11F080E030C010E000E0C0E0D0E0C4
:100F9000CE0180960E94230E682FCC2311F4162FC9
:100FA0000CC0C13011F4062F08C0662351F0FF2099
:100FB00021F08DE392E00E94620C2196CE31D105A2
:100FC00039F7FF2021F08DE392E00E946A0C612F37
:100FD00070E0E6E075956795EA95E1F7812F402F7F
:100FE0000E941C07812F8F71DF91CF911F910F916C
:100FF000FF900895823000F5E82FF0E0EE0FFF1F1C
:10100000E855FE4F71836083882319F08130A1F485
:1010100008C0809169008C7F842B80936900E89AD6
:10102000089580916900440F551F440F551F837F19
:10103000842B80936900E99A0895823080F4882394
:1010400019F0813021F402C0E89801C0E998E82F36
:10105000F0E0EE0FFF1FE855FE4F11821082089559
:101060001F920F920FB60F9211242F933F934F931D
:101070005F936F937F938F939F93AF93BF93EF9300
:10108000FF938091A8019091A901892B29F0E0910B
:10109000A801F091A9010995FF91EF91BF91AF913E
:1010A0009F918F917F916F915F914F913F912F9180
:1010B0000F900FBE0F901F9018951F920F920FB6B2
:1010C0000F9211242F933F934F935F936F937F93CE
:1010D0008F939F93AF93BF93EF93FF938091AA0158
:1010E0009091AB01892B29F0E091AA01F091AB011D
:1010F0000995FF91EF91BF91AF919F918F917F9152
:101100006F915F914F913F912F910F900FBE0F9074
:101110001F9018951F920F920FB60F9211242F93C4
:101120003F934F935F936F937F938F939F93AF936F
:10113000BF932091B0013091B1014091B201509123
:10114000B3017091B401DA01C9010296A11DB11D6C
:10115000672F6A5F6D3730F06D57DA01C90103966A
:10116000A11DB11D6093B4018093B0019093B101B2
:10117000A093B201B093B3018091AC019091AD0105
:10118000A091AE01B091AF010196A11DB11D809358
:10119000AC019093AD01A093AE01B093AF01BF91AC
:1011A000AF919F918F917F916F915F914F913F91FF
:1011B0002F910F900FBE0F901F9018959FB7F89426
:1011C0002091AC013091AD014091AE015091AF0141
:1011D00086B5A89B06C08F3F21F02F5F3F4F4F4F32
:1011E0005F4F9FBF542F432F322F2227280F311DCF
:1011F000411D511D83E0220F331F441F551F8A9547
:10120000D1F7B901CA010895EF92FF920F931F938E
:10121000CF93DF937B018C010E94DE08EB010EC0AF
:101220000E94DE086C1B7D0B685E7340C8F3089457
:10123000E108F10801091109C851DC4FE114F1047A
:101240000105110569F7DF91CF911F910F91FF9073
:10125000EF900895789484B5826084BD84B58160F0
:1012600084BD85B5826085BD85B5816085BDEEE6AE
:10127000F0E0808181608083E1E8F0E0108280818D
:1012800082608083808181608083E0E8F0E08081FB
:1012900081608083E1EBF0E0808184608083E0EB1B
:1012A000F0E0808181608083EAE7F0E08081846003
:1012B000808380818260808380818160808380815F
:1012C000806880831092C1000895CF93DF93482FE8
:1012D00050E0CA018B529D4FFC0134914F535D4F3A
:1012E000FA018491882369F190E0880F991FFC012D
:1012F000ED55FD4FA591B491FC01E355FD4FC5910E
:10130000D491662351F42FB7F8948C91932F909534
:1013100089238C93888189230BC0623061F42FB7B5
:10132000F8948C91932F909589238C938881832BAB
:1013300088832FBF06C09FB7F8948C91832B8C9322
:101340009FBFDF91CF910895833071F0843028F4EE
:101350008130A1F0823021F514C08630B1F08730A1
:10136000D1F08430E9F404C0809180008F7703C00D
:10137000809180008F7D80938000089584B58F7761
:1013800002C084B58F7D84BD08958091B0008F77B1
:101390008093B00008958091B0008F7D8093B0005D
:1013A0000895FF920F931F93F62E482F50E0CA0125
:1013B00087519D4FFC012491CA018B529D4FFC0126
:1013C00014914F535D4FFA0104910023C9F0222379
:1013D00019F0822F0E94A409E02FF0E0EE0FFF1F0A
:1013E000E355FD4FA591B4919FB7F894FF2021F4E8
:1013F0008C911095812302C08C91812B8C939FBF7F
:101400001F910F91FF9008950F931F93482F50E065
:10141000CA0187519D4FFC012491CA018B529D4FF7
:10142000FC0104914F535D4FFA011491112319F4FB
:1014300020E030E015C0222319F0822F0E94A40979
:10144000812F90E0880F991F89549D4FFC01A59131
:10145000B4918C9120E030E0802311F021E030E065
:10146000C9011F910F91089508951F920F920FB611
:101470000F9211242F933F934F938F939F93EF934A
:10148000FF934091C6002091F5013091F6012F5F46
:101490003F4F2F7330708091F7019091F80128171A
:1014A000390759F0E091F501F091F601EB54FE4F48
:1014B00040833093F6012093F501FF91EF919F91C6
:1014C0008F914F913F912F910F900FBE0F901F90D2
:1014D0001895E0914902F0914A02E05CFF4F81913A
:1014E000919120813181821B930B8F739070892B96
:1014F00011F00E94340A08951F920F920FB60F92B6
:1015000011242F933F938F939F93EF93FF932091F9
:10151000390230913A0280913B0290913C022817A7
:10152000390731F48091C1008F7D8093C10014C0D0
:10153000E0913B02F0913C02E750FE4F2081809108
:101540003B0290913C0201968F73907090933C0205
:1015500080933B022093C600FF91EF919F918F9162
:101560003F912F910F900FBE0F901F901895AF9243
:10157000BF92DF92EF92FF920F931F93CF93DF936F
:10158000EC017A018B01DD24D39491E0A92EB12CDA
:10159000EC89FD89DD2069F0C5010E8C02C0880F41
:1015A000991F0A94E2F7808360E874E88EE190E086
:1015B00005C0108260E472E48FE090E0A80197011A
:1015C0000E94F20D215030404040504056954795C2
:1015D0003795279580E12030380720F0DD2011F085
:1015E000DD24D6CFE889F9893083EA89FB89208315
:1015F000EE89FF89408121E030E0C9010A8C02C0F8
:10160000880F991F0A94E2F7482B4083EE89FF89DF
:101610004081C9010B8C02C0880F991F0A94E2F720
:10162000482B4083EE89FF894081C9010C8C02C0A0
:10163000880F991F0A94E2F7482B4083EE89FF89AF
:1016400080810D8C02C0220F331F0A94E2F720958F
:1016500028232083DF91CF911F910F91FF90EF906E
:10166000DF90BF90AF900895DC011C96ED91FC9146
:101670001D97E05CFF4F2191319180819181281B62
:10168000390B2F733070C9010895DC011C96ED9160
:10169000FC911D97E05CFF4F20813181E054F040C8
:1016A000DF01AE5BBF4F8D919C91119728173907D1
:1016B00019F42FEF3FEF07C08D919C91E80FF91FB0
:1016C0008081282F30E0C9010895DC011C96ED913E
:1016D000FC911D97E05CFF4F20813181E054F04088
:1016E000DF01AE5BBF4F8D919C9111972817390791
:1016F00019F42FEF3FEF10C08D919C911197E80FD7
:10170000F91F20818D919C91119701968F73907094
:1017100011969C938E9330E0C9010895FC01868553
:101720009785DC01A05CBF4FFC01EE5BFF4F2D9164
:101730003C9111978081918128173907C1F708954D
:10174000CF93DF93EC01EE85FF85E05CFF4F2081B6
:101750003181E054F0402F5F3F4F2F733070DF0135
:10176000AE5BBF4F8D919C91119728173907D1F32C
:10177000E05CFF4F80819181E054F040E80FF91F59
:101780006083EE85FF85E05CFF4F31832083EE8927
:10179000FF89208181E090E00D8C02C0880F991FA5
:1017A0000A94E2F7282B208381E090E0DF91CF912B
:1017B00008951092400210923F0288EE93E0A0E05C
:1017C000B0E08093410290934202A0934302B09311
:1017D000440285E191E090933E0280933D0285EBC7
:1017E00091E090934A028093490289EF91E09093AF
:1017F0004C0280934B0285EC90E090934E028093D4
:101800004D0284EC90E09093500280934F0280EC64
:1018100090E0909352028093510281EC90E090937B
:1018200054028093530286EC90E09093560280938A
:10183000550284E08093570283E08093580287E04A
:101840008093590285E080935A0281E080935B0285
:101850000895CF93DF930E942A090E949B04C9E652
:10186000DAE00E94CA032097E1F30E94690AF9CFE7
:10187000CF92DF92EF92FF920F931F93CF93DF935C
:101880007C016B018A01C0E0D0E00FC0D6016D91F0
:101890006D01D701ED91FC910190F081E02DC70120
:1018A0000995C80FD91F015010400115110571F796
:1018B000CE01DF91CF911F910F91FF90EF90DF90BC
:1018C000CF900895DC01ED91FC910190F081E02D25
:1018D00009950895EF92FF920F931F938C01DC01FD
:1018E000ED91FC910190F081E02D6DE009957C0176
:1018F000D801ED91FC910190F081E02DC8016AE0E2
:1019000009959C012E0D3F1DC9011F910F91FF905C
:10191000EF900895EF92FF920F931F937C01DC01EB
:10192000ED91FC910190F081E02D09958C01C701AA
:101930000E946A0C080F191FC8011F910F91FF9098
:10194000EF900895CF93DF93DB010D900020E9F72E
:101950001197A61BB70BEC01E881F9810280F38196
:10196000E02DAD010995DF91CF9108954F925F92DF
:101970007F928F929F92AF92BF92CF92DF92EF921F
:10198000FF920F931F93DF93CF93CDB7DEB7A1974D
:101990000FB6F894DEBF0FBECDBF2C01742ECB0165
:1019A000223008F42AE019A231E2C32ED12CCC0E49
:1019B000DD1E822E9924AA24BB24672D752FA50134
:1019C00094010E94F20D79018A01C801B701A501B5
:1019D00094010E94D30D472D461B0894C108D108DD
:1019E0004A3014F4405D01C0495CF6014083E114C3
:1019F000F1040105110521F07E2C5F2DC801DDCF1A
:101A0000C201B6010E94A20CA1960FB6F894DEBFE7
:101A10000FBECDBFCF91DF911F910F91FF90EF903F
:101A2000DF90CF90BF90AF909F908F907F905F900E
:101A30004F900895DC012115310541F4ED91FC91A1
:101A40000190F081E02D642F099508950E94B60C55
:101A50000895EF92FF920F931F939A017B0100E08C
:101A600010E0B801A7010E941A0D1F910F91FF907D
:101A7000EF900895EF92FF920F931F939A01E62E35
:101A8000FF2400E010E0B801A7010E941A0D1F9189
:101A90000F91FF90EF900895CF92DF92EF92FF9217
:101AA0000F931F936C01E62E9A01FF2400E010E0D3
:101AB000B801A7010E941A0D8C01C6010E946A0C90
:101AC000080F191FC8011F910F91FF90EF90DF9031
:101AD000CF900895CF92DF92EF92FF920F931F93D2
:101AE000CF93DF93EC016A017B012115310541F4AD
:101AF000E881F9810190F081E02D642F09951FC0E4
:101B00002A303105D1F477FF17C0E881F9810190BF
:101B1000F081E02D6DE209958C0144275527BA012B
:101B20004C195D096E097F09CE012AE00E94B60CAE
:101B30009801280F391F04C02AE00E94B60C9C01AE
:101B4000C901DF91CF911F910F91FF90EF90DF902E
:101B5000CF900895EF92FF920F931F937B019A010C
:101B60000027F7FC0095102FB801A7010E946A0D0D
:101B70001F910F91FF90EF9008950E94A20C08957D
:101B8000EF92FF920F931F937C010E94A20C8C0195
:101B9000C7010E946A0C080F191FC8011F910F91FD
:101BA000FF90EF900895629FD001739FF001829F94
:101BB000E00DF11D649FE00DF11D929FF00D839FDC
:101BC000F00D749FF00D659FF00D9927729FB00D79
:101BD000E11DF91F639FB00DE11DF91FBD01CF018C
:101BE00011240895A1E21A2EAA1BBB1BFD010DC0F2
:101BF000AA1FBB1FEE1FFF1FA217B307E407F507BD
:101C000020F0A21BB30BE40BF50B661F771F881F98
:101C1000991F1A9469F760957095809590959B012E
:101C2000AC01BD01CF010895EE0FFF1F0590F491A7
:101C3000E02D0994FB01DC0102C001900D9241509E
:101C40005040D8F70895F999FECF92BD81BDF89A1A
:101C5000992780B50895262FF999FECF1FBA92BD16
:101C600081BD20BD0FB6F894FA9AF99A0FBE01967D
:061C70000895F894FFCF77
:101C76002A00472000206200023B01B10164039361
:101C86000300000000A00B380C340B650B450B8ECF
:021C96000B0041
:00000001FF
