:100000000C9480010C94460B0C94730B0C94A80177
:100010000C94A8010C94A8010C94A8010C94A801BC
:100020000C94A8010C94A8010C94A8010C94A801AC
:100030000C94A8010C94A8010C94A8010C94A8019C
:100040000C94280A0C94A8010C94530D0C94A10D47
:100050000C94A8010C94A8010C94A8010C94A8017C
:100060000C94A8010C94A8010A417661696C616244
:100070006C6520636F6D6D616E64733A0A20203188
:10008000323320782020202020202D20546F6767D5
:100090006C6520636F6E66696775726174696F6EF7
:1000A000206368616E67652070726F746563746940
:1000B0006F6E2C20313D556E6C6F636B65640A204A
:1000C000203C6E6E3E206920202020202D2073656C
:1000D00074206E6F646520494420287374616E64D7
:1000E000617264206E6F646520696473206172655B
:1000F00020312E2E3236290A20203C6E3E206220EE
:1001000020202020202D20736574204D487A206205
:10011000616E64202834203D203433332C20382075
:100120003D203836382C2039203D20393135290AF8
:1001300020203C6E6E6E3E2067202020202D2073F4
:100140006574206E6574776F726B2067726F75705F
:10015000202852464D3132206F6E6C7920616C6CD4
:100160006F7773203231322C2030203D20616E7940
:10017000290A20203C6E3E20632020202020202DB4
:100180002073657420636F6C6C656374206D6F649D
:10019000652028616476616E6365642C206E6F72E1
:1001A0006D616C6C792030290A20202E2E2E2C3C7B
:1001B0006E6E3E2061202D2073656E642064617434
:1001C00061207061636B657420746F206E6F64656D
:1001D000203C6E6E3E2C20776974682061636B0A48
:1001E00020202E2E2E2C3C6E6E3E2073202D207350
:1001F000656E642064617461207061636B65742056
:10020000746F206E6F6465203C6E6E3E2C206E6FA6
:100210002061636B0A20203C6E3E206C2020202051
:1002200020202D207475726E206163746976697464
:1002300079204C4544206F6E2044494738206F6E2A
:10024000206F72206F66660A00202D3E2000202D50
:100250003E2061636B0A003E2000636F6E66696733
:10026000206661696C656400204C6F636B3A200006
:10027000204D487A2000204020002067002069009F
:1002800043757272656E7420636F6E66696775720E
:100290006174696F6E3A0A000A5B52464D325069CA
:1002A0005D0A0000000000240027002A0000000072
:1002B00000250028002B0000000000230026002954
:1002C00000040404040404040402020202020203FF
:1002D0000303030303010204081020408001020409
:1002E000081020010204081020000000070002018D
:1002F0000000030406000000000000000000040FDE
:1003000011241FBECFEFD8E0DEBFCDBF11E0A0E0CB
:10031000B1E0E6E4FFE102C005900D92AE33B10713
:10032000D9F712E0AEE3B1E001C01D92AA3DB107DA
:10033000E1F712E0C0E0D3E004C02297FE010E9482
:100340009D0FCE3FD107C9F70E94A00B0C94A10FBF
:100350000C940000FB01DC0102C001900D924150A1
:100360005040D8F70895DF92EF92FF920F931F93BA
:100370007B018C01FB010995D82EC8010196F7017C
:100380000995982F8D2D1F910F91FF90EF90DF9081
:1003900008951F93CF93DF93EC01FE0121961491F2
:1003A000112369F01A3029F488EB92E06DE00E9485
:1003B000D90B88EB92E0612F0E94D90BEECFDF9131
:1003C000CF911F91089540913E01F999FECF1FBA38
:1003D00080E290E092BD81BD40BD0FB6F894FA9ADC
:1003E000F99A0FBE30913F01F999FECF1FBA81E211
:1003F00090E092BD81BD30BD0FB6F894FA9AF99A9B
:100400000FBE20914001F999FECF1FBA82E290E021
:1004100092BD81BD20BD0FB6F894FA9AF99A0FBE2D
:100420008FEF9FEF8427482F42954827042E46954B
:1004300046954025042E469540254770082E892F65
:10044000469507944795902D8427069447959025C7
:1004500084278327382F32953827032E36953695F3
:100460003025032E369530253770082E892F369586
:1004700007943795902D83270694379590258327E9
:100480008227282F22952827022E2695269520257B
:10049000022E269520252770082E892F2695079451
:1004A0002795902D8227069427959025822723E271
:1004B00030E040E0F999FECF1FBA32BD21BD10BC3B
:1004C0000FB6F894FA9AF99A0FBE8427582F5295CE
:1004D0005827052E569556955025052E569550258C
:1004E0005770082E892F569507945795902D85277C
:1004F00006945795902585272F5F3F4F2E32310563
:1005000009F0D8CF9C019093420180934101F99961
:10051000FECF1FBA8EE290E092BD81BD20BD0FB626
:10052000F894FA9AF99A0FBEF999FECF1FBA8FE2A2
:1005300090E092BD81BD30BD0FB6F894FA9AF99A59
:100540000FBE81E00E943409882321F48AE592E0FD
:100550000E94C90108951F9388E690E00E94C90196
:1005600080E892E00E94C901F999FECF80E290E014
:1005700092BD81BDF89A10B510933E01F999FECF56
:1005800081E290E092BD81BDF89A80B580933F01F1
:10059000F999FECF82E290E092BD81BDF89A80B5D4
:1005A000809340011F71612F70E0605C7F4F88EB8A
:1005B00092E04AE050E00E94290D8DE792E00E940F
:1005C000C90188EB92E0612F4AE050E00E94B90C2B
:1005D00080913E0185FF06C088EB92E060E071E00B
:1005E0000E943C0D8AE792E00E94C90188EB92E0EC
:1005F00060913F014AE050E00E94B90C86E792E02A
:100600000E94C901E0913E01F0E096E0F595E79582
:100610009A95E1F7EE0FFF1FEA5DFE4F6081718151
:1006200088EB92E04AE050E00E94A80C80E792E05C
:100630000E94C90188E692E00E94C90188EB92E01D
:10064000609140014AE050E00E94CB0C81E00E94A2
:1006500034091F9108951F93182F89E061E00E94CB
:10066000420989E0612F0E9481091F9108951F931B
:10067000182F80538A3058F4809188012AE0829F95
:10068000C0011124180F105310938801CCC01C32E4
:1006900089F490918901923450F4E92FF0E0E65703
:1006A000FE4F8091880180839F5F90938901109213
:1006B0008801B9C0812F81568A3108F0B0C087E522
:1006C00092E00E94C9016091880188EB92E070E09D
:1006D0004AE050E00E94290D88EB92E0612F0E94D1
:1006E000010C193669F11A366CF41236D1F1133651
:1006F0001CF41136A1F46AC0133609F455C017363C
:1007000071F449C0113709F47AC012371CF41C3651
:1007100031F470C0133709F459C0183719F00E942A
:10072000AB0271C0809188018B3709F06CC090E0FA
:1007300080914001882309F491E0909340010EC01C
:1007400080914001882309F45EC0909188019F71D7
:1007500080913E01807E980F90933E010E94E301BC
:1007600052C080914001882309F44DC080918801D6
:10077000883011F492E005C0893011F091E001C099
:1007800093E0909388019295990F990F907C8091B6
:100790003E018F73E0CF809140018823A1F18091C9
:1007A000880180933F01DACF80914001882359F17D
:1007B00080918801882321F080913E01806203C0EE
:1007C00080913E018F7D80933E01C8CF10934301FD
:1007D00040918901409344018091880180934501B3
:1007E00026E431E0EAE8F1E0C901BF0150E00E94EF
:1007F000AA0109C0809188010E942B0304C0809146
:1008000088018093CC01109289011092880182E4C2
:10081000EAE8F1E0DF011D928A95E9F704C01132A0
:1008200014F00E94AB021F9108950F931F93CF9372
:10083000DF9388EB92E00E945A0E892B31F088EB0F
:1008400092E00E948B0E0E9437030E943506882397
:1008500009F47AC08091CD019091CE01892B09F0E5
:1008600073C00091D10181E00E942B038091D001DF
:1008700085FF23C08091D00187FD1FC080913E017C
:1008800085FD1BC010E00E94D206882309F093C0AA
:100890001A3009F490C00E9435061F5FF4CF809192
:1008A000D0018F71806C60E070E040E00E944907E9
:1008B00082E00E942C0711E001C010E080913F010E
:1008C000882379F488EB92E062E071E00E943C0DAD
:1008D0006091CF0188EB92E070E04AE050E00E9426
:1008E000290D88EB92E060E20E94D90B6091D00163
:1008F00070E06F71707088EB92E04AE050E00E9407
:10090000290DC0E0D0E011C088EB92E060E20E94C7
:10091000D90BFE01EE52FE4F608188EB92E070E051
:100920004AE050E00E94290D2196C01768F388EB39
:1009300092E00E94E10B112321F08EE492E00E94EC
:10094000C90180E00E942B03809143018823C9F1F3
:100950000E94D2068823A9F181E00E942B0389E43A
:1009600092E00E94C9016091440188EB92E070E03E
:100970004AE050E00E94290D88EB92E065E071E0CA
:100980000E943F0D80914301813611F080E001C04B
:1009900080E290914501992311F09064892B66E4DF
:1009A00071E0409144010E9449071092430180E0A8
:1009B0000E942B0306C08091D00186FF70CF80E893
:1009C00072CFDF91CF911F910F91089581E00E9426
:1009D0002B0388EB92E040E855E260E070E00E9473
:1009E000DC0D88E992E00E94C90181E00E9434098F
:1009F0008823F9F0F999FECF80E290E092BD81BDA5
:100A0000F89A80B580933E01F999FECF81E290E09B
:100A100092BD81BDF89A80B580933F01F999FECFD0
:100A200082E290E092BD81BDF89A80B5809340014A
:100A300011C081E880933E0182ED80933F0181E007
:100A40008093400162E042ED20E436E00E945108CC
:100A50000E94E3010E94AB0260ED77E080E090E04D
:100A60000E947C0A89E490EC0E946A0580E00E9462
:100A70002B0308959C01F999FECF32BD21BDF89A50
:100A800080B50895782F65B121E030E040E050E076
:100A90000090250104C0220F331F441F551F0A94E4
:100AA000D2F7322F822F8095862385B99EBD0DB453
:100AB00007FEFDCF4EB57EBD0DB407FEFDCF2EB5B2
:100AC000942F80E045B1342B35B930E0282B392BF9
:100AD000C9010895E8980E944205E89A089580E0C7
:100AE00090E00E94420580911E02853009F054C0BA
:100AF00080E090EB0E944205282F809122028823FB
:100B000071F490911F02992351F080912202E82FF5
:100B1000F0E0E153FE4F90838F5F8093220280913B
:100B20002202E82FF0E0E153FE4F20838F5F809395
:100B300022028091CD019091CE018227282F22950B
:100B40002827022E269526952025022E269520253B
:100B50002770082E892F269507942795902D822798
:100B600006942795902582279093CE018093CD01FE
:100B70008091D1012091220290E0049630E082170A
:100B800093072CF080912202873408F46DC08DE029
:100B900092E80E944205089580911E0287FF2EC0B0
:100BA000E091D10180911E028F5F80931E028150DF
:100BB000ED5FE80FF0E0E153FE4FE0818091CD0161
:100BC0009091CE018E27282F22952827022E269538
:100BD00026952025022E269520252770082E892F60
:100BE000269507942795902D822706942795902582
:100BF00082279093CE018093CD0130C080911E0258
:100C00008F5F80931E028150833019F184302CF461
:100C1000882399F0813009F516C0893019F08A309F
:100C2000E1F402C0EDE21AC0E0911F029091D101FF
:100C30008EEF891B80931E0211C08091CD0190918F
:100C4000CE01E82F0BC08091CD019091CE01E92F0C
:100C500005C08DE092E80E944205EAEA8E2F90E0FE
:100C6000805098440E944205089580911E0285306C
:100C700009F042C08091D1012091220290E00496B7
:100C800030E08217930724F0809122028734A0F18C
:100C900084E080931E028091D101833430F081E0A2
:100CA00090E09093CE018093CD018091D00186FF9A
:100CB00012C080911D02282F30E0C9018F71907001
:100CC0004F9749F08091D00190E0822793278F7150
:100CD0009070892B89F48091CD019091CE01892B60
:100CE00009F052C0E0911A02F0911B02309709F40A
:100CF0004BC080E0099554C080911E02843011F0F1
:100D000080E0089580911C02882351F08093D101E6
:100D10001092D0018091D0018093CF0183E004C074
:100D20001092D1018091D101809322028FEF9FEF29
:100D30009093CE018093CD0120911F022223D9F000
:100D40008227282F22952827022E269526952025B2
:100D5000022E269520252770082E892F2695079488
:100D60002795902D8227069427959025822790938A
:100D7000CE018093CD0185E080931E028DED92E837
:100D80000E94420580E008958FEF9FEFAFEFBFEF25
:100D90008093160290931702A0931802B093190241
:100DA00081E0089580911E02853099F4809122029D
:100DB000882379F480E090E00E946A0590FD09C0E4
:100DC0008DE092E80E946A0584E080931E0281E033
:100DD000089580E00895982F86FD05C0907E80914B
:100DE0001D028F71980F9093D001E0911A02F0913B
:100DF0001B02309711F081E009958FEF9FEF9093E0
:100E0000CE018093CD018091CD019091CE012091B2
:100E10001F028227282F22952827022E2695269505
:100E20002025022E269520252770082E892F26950D
:100E300007942795902D8227069427959025822741
:100E40009093CE018093CD0186E080931E028DE3C6
:100E500092E80E9442050895282F16C02223A1F08F
:100E600093B7233011F484E005C0223011F080E004
:100E700001C08CE0917F892B83BF83B7816083BFE2
:100E8000889583B78E7F83BF80911E02843031F7AF
:100E900008951F93182F4093D10122ED31E0C9012D
:100EA00050E00E94AA01812F0E94EB061F91089535
:100EB000CF92DF92EF92FF920F931F93CF93DF9326
:100EC000F999FECF80E290E092BD81BDF89A00B51D
:100ED000F999FECF83E290E092BD81BDF89A10B5FA
:100EE00084E290E06AE375E00E94B3016C0188EB54
:100EF00092E060E20E94D90B602F6F71605C88EB1A
:100F000092E00E94D90B88EB92E068E071E00E94C9
:100F10003C0DC02FD0E0BE016F71707088EB92E085
:100F20004AE050E00E94290D012F10E0E4E0EE2E8F
:100F3000F12CE022F12202FF05C088EB92E06AE288
:100F40000E94D90B88EB92E06BE071E00E943C0DAF
:100F5000F999FECF81E290E092BD81BDF89A60B52B
:100F600088EB92E04AE050E00E94B90C88EB92E0F6
:100F70006EE071E00E943C0D76E0D595C7957A95BC
:100F8000E1F7C13019F461EB71E00CC0C23019F423
:100F900064E673E007C0C33019F060E070E002C09F
:100FA00063E973E088EB92E04AE050E00E94290D8B
:100FB00088EB92E062E171E00E943C0DEF2831F095
:100FC00088EB92E067E171E00E943C0D80E4C81676
:100FD00086E0D80669F088EB92E06BE171E00E9450
:100FE0003C0D88EB92E0B6014AE050E00E94A80C6C
:100FF00003FF06C088EB92E06EE171E00E943C0DB9
:10100000E801C370D070209769F088EB92E062E24B
:1010100071E00E943C0D88EB92E0BE014AE050E096
:101020000E94290D88EB92E00E94E10BDF91CF91A5
:101030001F910F91FF90EF90DF90CF90089525B111
:1010400081E090E0A0E0B0E00090250104C0880FAE
:10105000991FAA1FBB1F0A94D2F7282B25B924B1C8
:10106000822B84B98AE061E00E9481098AE061E014
:101070000E9442098BE061E00E9442098CE060E03E
:101080000E9442098DE061E00E94420980E58CBD2A
:1010900082E060E00E94420982E061E00E948109F2
:1010A00008951F93162F80931D0240931F023093C3
:1010B0002102209320020E941F0880E090E00E94FD
:1010C000420585E092E80E94420580E098EB02C06C
:1010D00080E090E00E94420582E00E94D509892BC1
:1010E000B9F3812F90E0F4E0880F991FFA95E1F7AA
:1010F000876C90680E9442058091200290912102A5
:10110000805090460E94420586E096EC0E9442057F
:1011100082EA94E90E9442058CEA92EC0E94420520
:1011200010911F02112341F083E89AEC0E944205BE
:10113000812F90E09E6C06C08BE89AEC0E944205DD
:101140008DE29EEC0E94420583E894EC0E944205E9
:1011500080E598E90E94420587E79CEC0E944205E1
:1011600080E090EE0E94420580E098EC0E944205EB
:1011700089E490EC0E94420584E080931E028091F5
:101180001D0290E08F719070892B41F080E06FE636
:1011900075E040E050E00E94100B03C080E00E9428
:1011A000330B80911D021F9108950F931F934FEFF2
:1011B0005FEF20E230E0F999FECF32BD21BDF89A11
:1011C00080B54827842F82958427082E869586959A
:1011D0008025082E869580258770042E452F8695BC
:1011E00007948795502D48270694879550254827C2
:1011F0002F5F3F4F2033310509F0DDCF452B09F03C
:101200002FC0F999FECF82E290E092BD81BDF89A9D
:1012100080B5813029F5F999FECF80E290E092BD4A
:1012200081BDF89A00B5F999FECF81E290E092BDB8
:1012300081BDF89A10B584E290E06AE375E00E94FF
:10124000B3019C01602F70E0A6E075956795AA95A3
:10125000E1F7802F412F0E945108802F8F7101C02C
:1012600080E01F910F9108950F931F93182F0E94F4
:10127000D508082F112311F00E945807802F1F91C5
:101280000F910895CF93DF93482F50E0CA018B52FE
:101290009D4FFC0134914F535D4FFA018491882397
:1012A00069F190E0880F991FFC01ED55FD4FA59164
:1012B000B491FC01E355FD4FC591D491662351F4DF
:1012C0002FB7F8948C91932F909589238C938881D4
:1012D00089230BC0623061F42FB7F8948C91932F5F
:1012E000909589238C938881832B88832FBF06C098
:1012F0009FB7F8948C91832B8C939FBFDF91CF91F4
:101300000895482F50E0CA0187519D4FFC01249158
:10131000CA018B529D4FFC0194914F535D4FFA01CE
:101320003491332309F440C0222351F1233071F06A
:10133000243028F42130A1F0223011F514C02630D9
:10134000B1F02730C1F02430D9F404C0809180007E
:101350008F7703C0809180008F7D8093800010C0C4
:1013600084B58F7702C084B58F7D84BD09C080911C
:10137000B0008F7703C08091B0008F7D8093B00064
:10138000E32FF0E0EE0FFF1FE355FD4FA591B49161
:101390002FB7F894662321F48C919095892302C08D
:1013A0008C91892B8C932FBF0895682F70E0CB010F
:1013B00087519D4FFC012491CB018B529D4FFC0125
:1013C00044916F537D4FFB019491992319F420E0D0
:1013D00030E03CC0222351F1233071F0243028F456
:1013E0002130A1F0223011F514C02630B1F02730A1
:1013F000C1F02430D9F404C0809180008F7703C0FD
:10140000809180008F7D8093800010C084B58F779D
:1014100002C084B58F7D84BD09C08091B0008F77F4
:1014200003C08091B0008F7D8093B000892F90E041
:10143000880F991F89549D4FFC01A591B4918C91FF
:1014400020E030E0842311F021E030E0C90108956C
:101450001F920F920FB60F9211242F933F934F9329
:101460005F936F937F938F939F93AF93BF932091DD
:101470002702309128024091290250912A0270914E
:101480002B02DA01C9010296A11DB11D672F6A5F07
:101490006D3730F06D57DA01C9010396A11DB11DFA
:1014A00060932B028093270290932802A093290235
:1014B000B0932A028091230290912402A0912502E8
:1014C000B09126020196A11DB11D80932302909335
:1014D0002402A0932502B0932602BF91AF919F9161
:1014E0008F917F916F915F914F913F912F910F90CD
:1014F0000FBE0F901F9018959B01AC017FB7F89419
:101500008091230290912402A0912502B09126029D
:1015100066B5A89B05C06F3F19F00196A11DB11DCE
:101520007FBFBA2FA92F982F8827860F911DA11D45
:10153000B11D63E0880F991FAA1FBB1F6A95D1F7E1
:10154000BC012DC0FFB7F894809123029091240232
:10155000A0912502B0912602E6B5A89B05C0EF3FF9
:1015600019F00196A11DB11DFFBFBA2FA92F982F09
:1015700088278E0F911DA11DB11DE3E0880F991FD3
:10158000AA1FBB1FEA95D1F7861B970B885E934075
:10159000C8F2215030404040504068517C4F2115E6
:1015A00031054105510571F60895789484B582603E
:1015B00084BD84B5816084BD85B5826085BD85B5F7
:1015C000816085BDEEE6F0E0808181608083E1E8A6
:1015D000F0E01082808182608083808181608083DE
:1015E000E0E8F0E0808181608083E1EBF0E08081E1
:1015F00084608083E0EBF0E0808181608083EAE7B3
:10160000F0E080818460808380818260808380813B
:10161000816080838081806880831092C1000895FA
:10162000823000F5E82FF0E0EE0FFF1FE45DFD4F84
:1016300071836083882319F08130A1F408C0809100
:1016400069008C7F842B80936900E89A08958091CB
:101650006900440F551F440F551F837F842B8093CF
:101660006900E99A0895823080F4882319F0813066
:1016700021F402C0E89801C0E998E82FF0E0EE0FED
:10168000FF1FE45DFD4F1182108208951F920F929B
:101690000FB60F9211242F933F934F935F936F9345
:1016A0007F938F939F93AF93BF93EF93FF9380911B
:1016B0002C0290912D02892B29F0E0912C02F091BF
:1016C0002D020995FF91EF91BF91AF919F918F915D
:1016D0007F916F915F914F913F912F910F900FBE2E
:1016E0000F901F9018951F920F920FB60F92112412
:1016F0002F933F934F935F936F937F938F939F931A
:10170000AF93BF93EF93FF9380912E0290912F029E
:10171000892B29F0E0912E02F0912F020995FF917B
:10172000EF91BF91AF919F918F917F916F915F9159
:101730004F913F912F910F900FBE0F901F901895D2
:10174000CF93DF930E94D50A0E94E604CEE8DDE045
:101750000E9415042097E1F30E948E0DF9CFCF92DD
:10176000DF92EF92FF920F931F93CF93DF937C0151
:101770006B018A01C0E0D0E00FC0D6016D916D0110
:10178000D701ED91FC910190F081E02DC701099501
:10179000C80FD91F015010400115110571F7CE0176
:1017A000DF91CF911F910F91FF90EF90DF90CF903D
:1017B0000895DC01ED91FC910190F081E02D0995F7
:1017C0000895EF92FF920F931F938C01DC01ED912E
:1017D000FC910190F081E02D6DE009957C01D8012C
:1017E000ED91FC910190F081E02DC8016AE009952E
:1017F0009C012E0D3F1DC9011F910F91FF90EF908D
:101800000895EF92FF920F931F937C01DC01ED91FD
:10181000FC910190F081E02D09958C01C7010E9497
:10182000E10B080F191FC8011F910F91FF90EF9056
:101830000895CF93DF93EC016115710519F420E051
:1018400030E00FC0DB010D900020E9F71197A61BD7
:10185000B70BE881F9810280F381E02DAD01099594
:101860009C01C901DF91CF9108954F925F927F92C1
:101870008F929F92AF92BF92CF92DF92EF92FF92A0
:101880000F931F93DF93CF93CDB7DEB7A1970FB61A
:10189000F894DEBF0FBECDBF2C01742ECB012230D9
:1018A00008F42AE019A231E2C32ED12CCC0EDD1EA1
:1018B000822E9924AA24BB24672D752FA50194019B
:1018C0000E94790F79018A01C801B701A50194012D
:1018D0000E945A0F472D461B0894C108D1084A3070
:1018E00014F4405D01C0495CF6014083E114F10449
:1018F0000105110521F07E2C5F2DC801DDCFC2014D
:10190000B6010E94190CA1960FB6F894DEBF0FBE67
:10191000CDBFCF91DF911F910F91FF90EF90DF909E
:10192000CF90BF90AF909F908F907F905F904F909F
:101930000895DC012115310541F4ED91FC910190F0
:10194000F081E02D642F099508950E94350C0895CB
:10195000EF92FF920F931F939A017B0100E010E03A
:10196000B801A7010E94990C1F910F91FF90EF9071
:101970000895EF92FF920F931F939A01E62EFF2492
:1019800000E010E0B801A7010E94990C1F910F918F
:10199000FF90EF900895CF92DF92EF92FF920F9316
:1019A0001F936C01E62E9A01FF2400E010E0B801BD
:1019B000A7010E94990C8C01C6010E94E10B080F3F
:1019C000191FC8011F910F91FF90EF90DF90CF90EA
:1019D0000895CF92DF92EF92FF920F931F93CF93D0
:1019E000DF93EC016A017B012115310541F4E881A7
:1019F000F9810190F081E02D642F09951FC02A30F4
:101A00003105D1F477FF17C0E881F9810190F081A9
:101A1000E02D6DE209958C0144275527BA014C1938
:101A20005D096E097F09CE012AE00E94350C9801FC
:101A3000280F391F04C02AE00E94350C9C01C901FF
:101A4000DF91CF911F910F91FF90EF90DF90CF909A
:101A50000895EF92FF920F931F937B019A01002745
:101A6000F7FC0095102FB801A7010E94E90C1F9107
:101A70000F91FF90EF9008950E94190C0895EF9236
:101A8000FF920F931F937C010E94190C8C01C701D8
:101A90000E94E10B080F191FC8011F910F91FF90C1
:101AA000EF90089508951F920F920FB60F92112490
:101AB0002F933F934F938F939F93EF93FF93809137
:101AC000C00082FD1DC04091C6002091700230917F
:101AD00071022F5F3F4F2F7330708091720290918F
:101AE00073022817390771F0E0917002F0917102CA
:101AF000E05DFD4F4083309371022093700202C07D
:101B00008091C600FF91EF919F918F914F913F91EE
:101B10002F910F900FBE0F901F901895E091C40267
:101B2000F091C502E05CFF4F81919191208131815C
:101B3000821B930B8F739070892B11F00E94520DB2
:101B400008951F920F920FB60F9211242F933F9377
:101B50008F939F93EF93FF932091B4023091B5023E
:101B60008091B6029091B7022817390731F480911D
:101B7000C1008F7D8093C10014C0E091B602F09146
:101B8000B702EC58FD4F20818091B6029091B702C8
:101B900001968F7390709093B7028093B602209352
:101BA000C600FF91EF919F918F913F912F910F90E0
:101BB0000FBE0F901F901895AF92BF92DF92EF92D9
:101BC000FF920F931F93CF93DF93EC017A018B0168
:101BD000DD24D39491E0A92EB12CEC89FD89DD2080
:101BE00069F0C50108A002C0880F991F0A94E2F7A6
:101BF000808360E874E88EE190E005C0108260E4C4
:101C000072E48FE090E0A80197010E94790F2150C3
:101C1000304040405040569547953795279580E194
:101C20002030380720F0DD2011F0DD24D6CFE88900
:101C3000F9893083EA89FB89208319A2EE89FF891B
:101C4000408121E030E0C9010C8C02C0880F991F4F
:101C50000A94E2F7482B4083EE89FF894081C9014D
:101C60000D8C02C0880F991F0A94E2F7482B40831D
:101C7000EE89FF894081C9010E8C02C0880F991F2F
:101C80000A94E2F7482B4083EE89FF8980810F8C0C
:101C900002C0220F331F0A94E2F7209528232083E5
:101CA000DF91CF911F910F91FF90EF90DF90BF9048
:101CB000AF900895DC011C96ED91FC911D97E05CBE
:101CC000FF4F2191319180819181281B390B2F7316
:101CD0003070C9010895DC011C96ED91FC911D97AF
:101CE000E05CFF4F20813181E054F040DF01AE5BCA
:101CF000BF4F8D919C9111972817390719F42FEF39
:101D00003FEF07C08D919C91E80FF91F8081282F2C
:101D100030E0C9010895DC011C96ED91FC911D97FE
:101D2000E05CFF4F20813181E054F040DF01AE5B89
:101D3000BF4F8D919C9111972817390719F42FEFF8
:101D40003FEF10C08D919C911197E80FF91F2081F2
:101D50008D919C91119701968F73907011969C9321
:101D60008E9330E0C9010895DC0191968C91919792
:101D7000882339F05496ED91FC915597808186FF28
:101D8000F9CF91961C920895CF93DF93EC01EE85E5
:101D9000FF85E05CFF4F20813181E054F0402F5FF0
:101DA0003F4F2F733070DF01AE5BBF4F8D919C9121
:101DB000119728173907D1F3E05CFF4F808191819B
:101DC000E054F040E80FF91F6083EE85FF85E05C8A
:101DD000FF4F31832083EE89FF89208181E090E0ED
:101DE0000F8C02C0880F991F0A94E2F7282B2083DA
:101DF00081E089A3EC89FD8980818064808381E012
:101E000090E0DF91CF9108951092BB021092BA0238
:101E100088EE93E0A0E0B0E08093BC029093BD0216
:101E2000A093BE02B093BF0282E391E09093B90207
:101E30008093B80280E392E09093C5028093C4023D
:101E400084E792E09093C7028093C60285EC90E00D
:101E50009093C9028093C80284EC90E09093CB02E7
:101E60008093CA0280EC90E09093CD028093CC02E4
:101E700081EC90E09093CF028093CE0282EC90E0D0
:101E80009093D1028093D00286EC90E09093D3029D
:101E90008093D20284E08093D40283E08093D502C1
:101EA00087E08093D60285E08093D70281E080931B
:101EB000D8020895629FD001739FF001829FE00DC8
:101EC000F11D649FE00DF11D929FF00D839FF00DB9
:101ED000749FF00D659FF00D9927729FB00DE11D65
:101EE000F91F639FB00DE11DF91FBD01CF01112442
:101EF0000895A1E21A2EAA1BBB1BFD010DC0AA1F4B
:101F0000BB1FEE1FFF1FA217B307E407F50720F062
:101F1000A21BB30BE40BF50B661F771F881F991FDD
:101F20001A9469F760957095809590959B01AC0126
:101F3000BD01CF010895EE0FFF1F0590F491E02D34
:061F40000994F894FFCFA4
:101F46002A00472000206200206900206700204008
:101F56002000204D487A0020633100206F00207158
:101F66003100207800023B01B101640393030000B5
:0E1F76000000C40EAF0B5A0E8B0E6B0EB40E95
:00000001FF
